{
	"contracts/SimpleStorage.sol": {
		"SimpleStorage": {
			"abi": [
				{
					"inputs": [
						{
							"internalType": "string",
							"name": "_name",
							"type": "string"
						},
						{
							"internalType": "uint256",
							"name": "_favoriteNumber",
							"type": "uint256"
						}
					],
					"name": "addPerson",
					"outputs": [],
					"stateMutability": "nonpayable",
					"type": "function"
				},
				{
					"inputs": [],
					"name": "favoriteNumber",
					"outputs": [
						{
							"internalType": "uint256",
							"name": "",
							"type": "uint256"
						}
					],
					"stateMutability": "view",
					"type": "function"
				},
				{
					"inputs": [
						{
							"internalType": "uint256",
							"name": "",
							"type": "uint256"
						}
					],
					"name": "people",
					"outputs": [
						{
							"internalType": "uint256",
							"name": "favoriteNumber",
							"type": "uint256"
						},
						{
							"internalType": "string",
							"name": "name",
							"type": "string"
						}
					],
					"stateMutability": "view",
					"type": "function"
				},
				{
					"inputs": [
						{
							"internalType": "uint256",
							"name": "_favoriteNumber",
							"type": "uint256"
						}
					],
					"name": "store",
					"outputs": [],
					"stateMutability": "nonpayable",
					"type": "function"
				}
			],
			"devdoc": {
				"kind": "dev",
				"methods": {},
				"version": 1
			},
			"evm": {
				"assembly": "    /* \"contracts/SimpleStorage.sol\":158:692  contract SimpleStorage{\r... */\n  mstore(0x40, 0x80)\n  callvalue\n  dup1\n  iszero\n  tag_1\n  jumpi\n  0x00\n  dup1\n  revert\ntag_1:\n  pop\n  dataSize(sub_0)\n  dup1\n  dataOffset(sub_0)\n  0x00\n  codecopy\n  0x00\n  return\nstop\n\nsub_0: assembly {\n        /* \"contracts/SimpleStorage.sol\":158:692  contract SimpleStorage{\r... */\n      mstore(0x40, 0x80)\n      callvalue\n      dup1\n      iszero\n      tag_1\n      jumpi\n      0x00\n      dup1\n      revert\n    tag_1:\n      pop\n      jumpi(tag_2, lt(calldatasize, 0x04))\n      shr(0xe0, calldataload(0x00))\n      dup1\n      0x471f7cdf\n      eq\n      tag_3\n      jumpi\n      dup1\n      0x6057361d\n      eq\n      tag_4\n      jumpi\n      dup1\n      0x6f760f41\n      eq\n      tag_5\n      jumpi\n      dup1\n      0x9e7a13ad\n      eq\n      tag_6\n      jumpi\n    tag_2:\n      0x00\n      dup1\n      revert\n        /* \"contracts/SimpleStorage.sol\":193:222  uint256 public favoriteNumber */\n    tag_3:\n      tag_7\n      tag_8\n      jump\t// in\n    tag_7:\n      mload(0x40)\n      tag_9\n      swap2\n      swap1\n      tag_10\n      jump\t// in\n    tag_9:\n      mload(0x40)\n      dup1\n      swap2\n      sub\n      swap1\n      return\n        /* \"contracts/SimpleStorage.sol\":424:539  function store(uint256 _favoriteNumber) public {\r... */\n    tag_4:\n      tag_11\n      0x04\n      dup1\n      calldatasize\n      sub\n      dup2\n      add\n      swap1\n      tag_12\n      swap2\n      swap1\n      tag_13\n      jump\t// in\n    tag_12:\n      tag_14\n      jump\t// in\n    tag_11:\n      stop\n        /* \"contracts/SimpleStorage.sol\":551:685  function addPerson(string memory _name, uint256 _favoriteNumber ) public {\r... */\n    tag_5:\n      tag_15\n      0x04\n      dup1\n      calldatasize\n      sub\n      dup2\n      add\n      swap1\n      tag_16\n      swap2\n      swap1\n      tag_17\n      jump\t// in\n    tag_16:\n      tag_18\n      jump\t// in\n    tag_15:\n      stop\n        /* \"contracts/SimpleStorage.sol\":306:328  People[] public people */\n    tag_6:\n      tag_19\n      0x04\n      dup1\n      calldatasize\n      sub\n      dup2\n      add\n      swap1\n      tag_20\n      swap2\n      swap1\n      tag_13\n      jump\t// in\n    tag_20:\n      tag_21\n      jump\t// in\n    tag_19:\n      mload(0x40)\n      tag_22\n      swap3\n      swap2\n      swap1\n      tag_23\n      jump\t// in\n    tag_22:\n      mload(0x40)\n      dup1\n      swap2\n      sub\n      swap1\n      return\n        /* \"contracts/SimpleStorage.sol\":193:222  uint256 public favoriteNumber */\n    tag_8:\n      sload(0x00)\n      dup2\n      jump\t// out\n        /* \"contracts/SimpleStorage.sol\":424:539  function store(uint256 _favoriteNumber) public {\r... */\n    tag_14:\n        /* \"contracts/SimpleStorage.sol\":516:531  _favoriteNumber */\n      dup1\n        /* \"contracts/SimpleStorage.sol\":499:513  favoriteNumber */\n      sload(0x00)\n        /* \"contracts/SimpleStorage.sol\":499:531  favoriteNumber + _favoriteNumber */\n      tag_25\n      swap2\n      swap1\n      tag_26\n      jump\t// in\n    tag_25:\n        /* \"contracts/SimpleStorage.sol\":482:496  favoriteNumber */\n      0x00\n        /* \"contracts/SimpleStorage.sol\":482:531  favoriteNumber = favoriteNumber + _favoriteNumber */\n      dup2\n      swap1\n      sstore\n      pop\n        /* \"contracts/SimpleStorage.sol\":424:539  function store(uint256 _favoriteNumber) public {\r... */\n      pop\n      jump\t// out\n        /* \"contracts/SimpleStorage.sol\":551:685  function addPerson(string memory _name, uint256 _favoriteNumber ) public {\r... */\n    tag_18:\n        /* \"contracts/SimpleStorage.sol\":635:641  people */\n      0x01\n        /* \"contracts/SimpleStorage.sol\":647:676  People(_favoriteNumber,_name) */\n      mload(0x40)\n      dup1\n      0x40\n      add\n      0x40\n      mstore\n      dup1\n        /* \"contracts/SimpleStorage.sol\":654:669  _favoriteNumber */\n      dup4\n        /* \"contracts/SimpleStorage.sol\":647:676  People(_favoriteNumber,_name) */\n      dup2\n      mstore\n      0x20\n      add\n        /* \"contracts/SimpleStorage.sol\":670:675  _name */\n      dup5\n        /* \"contracts/SimpleStorage.sol\":647:676  People(_favoriteNumber,_name) */\n      dup2\n      mstore\n      pop\n        /* \"contracts/SimpleStorage.sol\":635:677  people.push(People(_favoriteNumber,_name)) */\n      swap1\n      dup1\n      0x01\n      dup2\n      sload\n      add\n      dup1\n      dup3\n      sstore\n      dup1\n      swap2\n      pop\n      pop\n      0x01\n      swap1\n      sub\n      swap1\n      0x00\n      mstore\n      keccak256(0x00, 0x20)\n      swap1\n      0x02\n      mul\n      add\n      0x00\n      swap1\n      swap2\n      swap1\n      swap2\n      swap1\n      swap2\n      pop\n      0x00\n      dup3\n      add\n      mload\n      dup2\n      0x00\n      add\n      sstore\n      0x20\n      dup3\n      add\n      mload\n      dup2\n      0x01\n      add\n      swap1\n      dup1\n      mload\n      swap1\n      0x20\n      add\n      swap1\n      tag_29\n      swap3\n      swap2\n      swap1\n      tag_30\n      jump\t// in\n    tag_29:\n      pop\n      pop\n      pop\n        /* \"contracts/SimpleStorage.sol\":551:685  function addPerson(string memory _name, uint256 _favoriteNumber ) public {\r... */\n      pop\n      pop\n      jump\t// out\n        /* \"contracts/SimpleStorage.sol\":306:328  People[] public people */\n    tag_21:\n      0x01\n      dup2\n      dup2\n      sload\n      dup2\n      lt\n      tag_31\n      jumpi\n      0x00\n      dup1\n      revert\n    tag_31:\n      swap1\n      0x00\n      mstore\n      keccak256(0x00, 0x20)\n      swap1\n      0x02\n      mul\n      add\n      0x00\n      swap2\n      pop\n      swap1\n      pop\n      dup1\n      0x00\n      add\n      sload\n      swap1\n      dup1\n      0x01\n      add\n      dup1\n      sload\n      tag_33\n      swap1\n      tag_34\n      jump\t// in\n    tag_33:\n      dup1\n      0x1f\n      add\n      0x20\n      dup1\n      swap2\n      div\n      mul\n      0x20\n      add\n      mload(0x40)\n      swap1\n      dup2\n      add\n      0x40\n      mstore\n      dup1\n      swap3\n      swap2\n      swap1\n      dup2\n      dup2\n      mstore\n      0x20\n      add\n      dup3\n      dup1\n      sload\n      tag_35\n      swap1\n      tag_34\n      jump\t// in\n    tag_35:\n      dup1\n      iszero\n      tag_36\n      jumpi\n      dup1\n      0x1f\n      lt\n      tag_37\n      jumpi\n      0x0100\n      dup1\n      dup4\n      sload\n      div\n      mul\n      dup4\n      mstore\n      swap2\n      0x20\n      add\n      swap2\n      jump(tag_36)\n    tag_37:\n      dup3\n      add\n      swap2\n      swap1\n      0x00\n      mstore\n      keccak256(0x00, 0x20)\n      swap1\n    tag_38:\n      dup2\n      sload\n      dup2\n      mstore\n      swap1\n      0x01\n      add\n      swap1\n      0x20\n      add\n      dup1\n      dup4\n      gt\n      tag_38\n      jumpi\n      dup3\n      swap1\n      sub\n      0x1f\n      and\n      dup3\n      add\n      swap2\n    tag_36:\n      pop\n      pop\n      pop\n      pop\n      pop\n      swap1\n      pop\n      dup3\n      jump\t// out\n    tag_30:\n      dup3\n      dup1\n      sload\n      tag_39\n      swap1\n      tag_34\n      jump\t// in\n    tag_39:\n      swap1\n      0x00\n      mstore\n      keccak256(0x00, 0x20)\n      swap1\n      0x1f\n      add\n      0x20\n      swap1\n      div\n      dup2\n      add\n      swap3\n      dup3\n      tag_41\n      jumpi\n      0x00\n      dup6\n      sstore\n      jump(tag_40)\n    tag_41:\n      dup3\n      0x1f\n      lt\n      tag_42\n      jumpi\n      dup1\n      mload\n      not(0xff)\n      and\n      dup4\n      dup1\n      add\n      or\n      dup6\n      sstore\n      jump(tag_40)\n    tag_42:\n      dup3\n      dup1\n      add\n      0x01\n      add\n      dup6\n      sstore\n      dup3\n      iszero\n      tag_40\n      jumpi\n      swap2\n      dup3\n      add\n    tag_43:\n      dup3\n      dup2\n      gt\n      iszero\n      tag_44\n      jumpi\n      dup3\n      mload\n      dup3\n      sstore\n      swap2\n      0x20\n      add\n      swap2\n      swap1\n      0x01\n      add\n      swap1\n      jump(tag_43)\n    tag_44:\n    tag_40:\n      pop\n      swap1\n      pop\n      tag_45\n      swap2\n      swap1\n      tag_46\n      jump\t// in\n    tag_45:\n      pop\n      swap1\n      jump\t// out\n    tag_46:\n    tag_47:\n      dup1\n      dup3\n      gt\n      iszero\n      tag_48\n      jumpi\n      0x00\n      dup2\n      0x00\n      swap1\n      sstore\n      pop\n      0x01\n      add\n      jump(tag_47)\n    tag_48:\n      pop\n      swap1\n      jump\t// out\n        /* \"#utility.yul\":7:419   */\n    tag_50:\n        /* \"#utility.yul\":85:90   */\n      0x00\n        /* \"#utility.yul\":110:176   */\n      tag_52\n        /* \"#utility.yul\":126:175   */\n      tag_53\n        /* \"#utility.yul\":168:174   */\n      dup5\n        /* \"#utility.yul\":126:175   */\n      tag_54\n      jump\t// in\n    tag_53:\n        /* \"#utility.yul\":110:176   */\n      tag_55\n      jump\t// in\n    tag_52:\n        /* \"#utility.yul\":101:176   */\n      swap1\n      pop\n        /* \"#utility.yul\":199:205   */\n      dup3\n        /* \"#utility.yul\":192:197   */\n      dup2\n        /* \"#utility.yul\":185:206   */\n      mstore\n        /* \"#utility.yul\":237:241   */\n      0x20\n        /* \"#utility.yul\":230:235   */\n      dup2\n        /* \"#utility.yul\":226:242   */\n      add\n        /* \"#utility.yul\":275:278   */\n      dup5\n        /* \"#utility.yul\":266:272   */\n      dup5\n        /* \"#utility.yul\":261:264   */\n      dup5\n        /* \"#utility.yul\":257:273   */\n      add\n        /* \"#utility.yul\":254:279   */\n      gt\n        /* \"#utility.yul\":251:363   */\n      iszero\n      tag_56\n      jumpi\n        /* \"#utility.yul\":282:361   */\n      tag_57\n      tag_58\n      jump\t// in\n    tag_57:\n        /* \"#utility.yul\":251:363   */\n    tag_56:\n        /* \"#utility.yul\":372:413   */\n      tag_59\n        /* \"#utility.yul\":406:412   */\n      dup5\n        /* \"#utility.yul\":401:404   */\n      dup3\n        /* \"#utility.yul\":396:399   */\n      dup6\n        /* \"#utility.yul\":372:413   */\n      tag_60\n      jump\t// in\n    tag_59:\n        /* \"#utility.yul\":91:419   */\n      pop\n        /* \"#utility.yul\":7:419   */\n      swap4\n      swap3\n      pop\n      pop\n      pop\n      jump\t// out\n        /* \"#utility.yul\":439:779   */\n    tag_61:\n        /* \"#utility.yul\":495:500   */\n      0x00\n        /* \"#utility.yul\":544:547   */\n      dup3\n        /* \"#utility.yul\":537:541   */\n      0x1f\n        /* \"#utility.yul\":529:535   */\n      dup4\n        /* \"#utility.yul\":525:542   */\n      add\n        /* \"#utility.yul\":521:548   */\n      slt\n        /* \"#utility.yul\":511:633   */\n      tag_63\n      jumpi\n        /* \"#utility.yul\":552:631   */\n      tag_64\n      tag_65\n      jump\t// in\n    tag_64:\n        /* \"#utility.yul\":511:633   */\n    tag_63:\n        /* \"#utility.yul\":669:675   */\n      dup2\n        /* \"#utility.yul\":656:676   */\n      calldataload\n        /* \"#utility.yul\":694:773   */\n      tag_66\n        /* \"#utility.yul\":769:772   */\n      dup5\n        /* \"#utility.yul\":761:767   */\n      dup3\n        /* \"#utility.yul\":754:758   */\n      0x20\n        /* \"#utility.yul\":746:752   */\n      dup7\n        /* \"#utility.yul\":742:759   */\n      add\n        /* \"#utility.yul\":694:773   */\n      tag_50\n      jump\t// in\n    tag_66:\n        /* \"#utility.yul\":685:773   */\n      swap2\n      pop\n        /* \"#utility.yul\":501:779   */\n      pop\n        /* \"#utility.yul\":439:779   */\n      swap3\n      swap2\n      pop\n      pop\n      jump\t// out\n        /* \"#utility.yul\":785:924   */\n    tag_67:\n        /* \"#utility.yul\":831:836   */\n      0x00\n        /* \"#utility.yul\":869:875   */\n      dup2\n        /* \"#utility.yul\":856:876   */\n      calldataload\n        /* \"#utility.yul\":847:876   */\n      swap1\n      pop\n        /* \"#utility.yul\":885:918   */\n      tag_69\n        /* \"#utility.yul\":912:917   */\n      dup2\n        /* \"#utility.yul\":885:918   */\n      tag_70\n      jump\t// in\n    tag_69:\n        /* \"#utility.yul\":785:924   */\n      swap3\n      swap2\n      pop\n      pop\n      jump\t// out\n        /* \"#utility.yul\":930:1584   */\n    tag_17:\n        /* \"#utility.yul\":1008:1014   */\n      0x00\n        /* \"#utility.yul\":1016:1022   */\n      dup1\n        /* \"#utility.yul\":1065:1067   */\n      0x40\n        /* \"#utility.yul\":1053:1062   */\n      dup4\n        /* \"#utility.yul\":1044:1051   */\n      dup6\n        /* \"#utility.yul\":1040:1063   */\n      sub\n        /* \"#utility.yul\":1036:1068   */\n      slt\n        /* \"#utility.yul\":1033:1152   */\n      iszero\n      tag_72\n      jumpi\n        /* \"#utility.yul\":1071:1150   */\n      tag_73\n      tag_74\n      jump\t// in\n    tag_73:\n        /* \"#utility.yul\":1033:1152   */\n    tag_72:\n        /* \"#utility.yul\":1219:1220   */\n      0x00\n        /* \"#utility.yul\":1208:1217   */\n      dup4\n        /* \"#utility.yul\":1204:1221   */\n      add\n        /* \"#utility.yul\":1191:1222   */\n      calldataload\n        /* \"#utility.yul\":1249:1267   */\n      0xffffffffffffffff\n        /* \"#utility.yul\":1241:1247   */\n      dup2\n        /* \"#utility.yul\":1238:1268   */\n      gt\n        /* \"#utility.yul\":1235:1352   */\n      iszero\n      tag_75\n      jumpi\n        /* \"#utility.yul\":1271:1350   */\n      tag_76\n      tag_77\n      jump\t// in\n    tag_76:\n        /* \"#utility.yul\":1235:1352   */\n    tag_75:\n        /* \"#utility.yul\":1376:1439   */\n      tag_78\n        /* \"#utility.yul\":1431:1438   */\n      dup6\n        /* \"#utility.yul\":1422:1428   */\n      dup3\n        /* \"#utility.yul\":1411:1420   */\n      dup7\n        /* \"#utility.yul\":1407:1429   */\n      add\n        /* \"#utility.yul\":1376:1439   */\n      tag_61\n      jump\t// in\n    tag_78:\n        /* \"#utility.yul\":1366:1439   */\n      swap3\n      pop\n        /* \"#utility.yul\":1162:1449   */\n      pop\n        /* \"#utility.yul\":1488:1490   */\n      0x20\n        /* \"#utility.yul\":1514:1567   */\n      tag_79\n        /* \"#utility.yul\":1559:1566   */\n      dup6\n        /* \"#utility.yul\":1550:1556   */\n      dup3\n        /* \"#utility.yul\":1539:1548   */\n      dup7\n        /* \"#utility.yul\":1535:1557   */\n      add\n        /* \"#utility.yul\":1514:1567   */\n      tag_67\n      jump\t// in\n    tag_79:\n        /* \"#utility.yul\":1504:1567   */\n      swap2\n      pop\n        /* \"#utility.yul\":1459:1577   */\n      pop\n        /* \"#utility.yul\":930:1584   */\n      swap3\n      pop\n      swap3\n      swap1\n      pop\n      jump\t// out\n        /* \"#utility.yul\":1590:1919   */\n    tag_13:\n        /* \"#utility.yul\":1649:1655   */\n      0x00\n        /* \"#utility.yul\":1698:1700   */\n      0x20\n        /* \"#utility.yul\":1686:1695   */\n      dup3\n        /* \"#utility.yul\":1677:1684   */\n      dup5\n        /* \"#utility.yul\":1673:1696   */\n      sub\n        /* \"#utility.yul\":1669:1701   */\n      slt\n        /* \"#utility.yul\":1666:1785   */\n      iszero\n      tag_81\n      jumpi\n        /* \"#utility.yul\":1704:1783   */\n      tag_82\n      tag_74\n      jump\t// in\n    tag_82:\n        /* \"#utility.yul\":1666:1785   */\n    tag_81:\n        /* \"#utility.yul\":1824:1825   */\n      0x00\n        /* \"#utility.yul\":1849:1902   */\n      tag_83\n        /* \"#utility.yul\":1894:1901   */\n      dup5\n        /* \"#utility.yul\":1885:1891   */\n      dup3\n        /* \"#utility.yul\":1874:1883   */\n      dup6\n        /* \"#utility.yul\":1870:1892   */\n      add\n        /* \"#utility.yul\":1849:1902   */\n      tag_67\n      jump\t// in\n    tag_83:\n        /* \"#utility.yul\":1839:1902   */\n      swap2\n      pop\n        /* \"#utility.yul\":1795:1912   */\n      pop\n        /* \"#utility.yul\":1590:1919   */\n      swap3\n      swap2\n      pop\n      pop\n      jump\t// out\n        /* \"#utility.yul\":1925:2289   */\n    tag_84:\n        /* \"#utility.yul\":2013:2016   */\n      0x00\n        /* \"#utility.yul\":2041:2080   */\n      tag_86\n        /* \"#utility.yul\":2074:2079   */\n      dup3\n        /* \"#utility.yul\":2041:2080   */\n      tag_87\n      jump\t// in\n    tag_86:\n        /* \"#utility.yul\":2096:2167   */\n      tag_88\n        /* \"#utility.yul\":2160:2166   */\n      dup2\n        /* \"#utility.yul\":2155:2158   */\n      dup6\n        /* \"#utility.yul\":2096:2167   */\n      tag_89\n      jump\t// in\n    tag_88:\n        /* \"#utility.yul\":2089:2167   */\n      swap4\n      pop\n        /* \"#utility.yul\":2176:2228   */\n      tag_90\n        /* \"#utility.yul\":2221:2227   */\n      dup2\n        /* \"#utility.yul\":2216:2219   */\n      dup6\n        /* \"#utility.yul\":2209:2213   */\n      0x20\n        /* \"#utility.yul\":2202:2207   */\n      dup7\n        /* \"#utility.yul\":2198:2214   */\n      add\n        /* \"#utility.yul\":2176:2228   */\n      tag_91\n      jump\t// in\n    tag_90:\n        /* \"#utility.yul\":2253:2282   */\n      tag_92\n        /* \"#utility.yul\":2275:2281   */\n      dup2\n        /* \"#utility.yul\":2253:2282   */\n      tag_93\n      jump\t// in\n    tag_92:\n        /* \"#utility.yul\":2248:2251   */\n      dup5\n        /* \"#utility.yul\":2244:2283   */\n      add\n        /* \"#utility.yul\":2237:2283   */\n      swap2\n      pop\n        /* \"#utility.yul\":2017:2289   */\n      pop\n        /* \"#utility.yul\":1925:2289   */\n      swap3\n      swap2\n      pop\n      pop\n      jump\t// out\n        /* \"#utility.yul\":2295:2413   */\n    tag_94:\n        /* \"#utility.yul\":2382:2406   */\n      tag_96\n        /* \"#utility.yul\":2400:2405   */\n      dup2\n        /* \"#utility.yul\":2382:2406   */\n      tag_97\n      jump\t// in\n    tag_96:\n        /* \"#utility.yul\":2377:2380   */\n      dup3\n        /* \"#utility.yul\":2370:2407   */\n      mstore\n        /* \"#utility.yul\":2295:2413   */\n      pop\n      pop\n      jump\t// out\n        /* \"#utility.yul\":2419:2641   */\n    tag_10:\n        /* \"#utility.yul\":2512:2516   */\n      0x00\n        /* \"#utility.yul\":2550:2552   */\n      0x20\n        /* \"#utility.yul\":2539:2548   */\n      dup3\n        /* \"#utility.yul\":2535:2553   */\n      add\n        /* \"#utility.yul\":2527:2553   */\n      swap1\n      pop\n        /* \"#utility.yul\":2563:2634   */\n      tag_99\n        /* \"#utility.yul\":2631:2632   */\n      0x00\n        /* \"#utility.yul\":2620:2629   */\n      dup4\n        /* \"#utility.yul\":2616:2633   */\n      add\n        /* \"#utility.yul\":2607:2613   */\n      dup5\n        /* \"#utility.yul\":2563:2634   */\n      tag_94\n      jump\t// in\n    tag_99:\n        /* \"#utility.yul\":2419:2641   */\n      swap3\n      swap2\n      pop\n      pop\n      jump\t// out\n        /* \"#utility.yul\":2647:3070   */\n    tag_23:\n        /* \"#utility.yul\":2788:2792   */\n      0x00\n        /* \"#utility.yul\":2826:2828   */\n      0x40\n        /* \"#utility.yul\":2815:2824   */\n      dup3\n        /* \"#utility.yul\":2811:2829   */\n      add\n        /* \"#utility.yul\":2803:2829   */\n      swap1\n      pop\n        /* \"#utility.yul\":2839:2910   */\n      tag_101\n        /* \"#utility.yul\":2907:2908   */\n      0x00\n        /* \"#utility.yul\":2896:2905   */\n      dup4\n        /* \"#utility.yul\":2892:2909   */\n      add\n        /* \"#utility.yul\":2883:2889   */\n      dup6\n        /* \"#utility.yul\":2839:2910   */\n      tag_94\n      jump\t// in\n    tag_101:\n        /* \"#utility.yul\":2957:2966   */\n      dup2\n        /* \"#utility.yul\":2951:2955   */\n      dup2\n        /* \"#utility.yul\":2947:2967   */\n      sub\n        /* \"#utility.yul\":2942:2944   */\n      0x20\n        /* \"#utility.yul\":2931:2940   */\n      dup4\n        /* \"#utility.yul\":2927:2945   */\n      add\n        /* \"#utility.yul\":2920:2968   */\n      mstore\n        /* \"#utility.yul\":2985:3063   */\n      tag_102\n        /* \"#utility.yul\":3058:3062   */\n      dup2\n        /* \"#utility.yul\":3049:3055   */\n      dup5\n        /* \"#utility.yul\":2985:3063   */\n      tag_84\n      jump\t// in\n    tag_102:\n        /* \"#utility.yul\":2977:3063   */\n      swap1\n      pop\n        /* \"#utility.yul\":2647:3070   */\n      swap4\n      swap3\n      pop\n      pop\n      pop\n      jump\t// out\n        /* \"#utility.yul\":3076:3205   */\n    tag_55:\n        /* \"#utility.yul\":3110:3116   */\n      0x00\n        /* \"#utility.yul\":3137:3157   */\n      tag_104\n      tag_105\n      jump\t// in\n    tag_104:\n        /* \"#utility.yul\":3127:3157   */\n      swap1\n      pop\n        /* \"#utility.yul\":3166:3199   */\n      tag_106\n        /* \"#utility.yul\":3194:3198   */\n      dup3\n        /* \"#utility.yul\":3186:3192   */\n      dup3\n        /* \"#utility.yul\":3166:3199   */\n      tag_107\n      jump\t// in\n    tag_106:\n        /* \"#utility.yul\":3076:3205   */\n      swap2\n      swap1\n      pop\n      jump\t// out\n        /* \"#utility.yul\":3211:3286   */\n    tag_105:\n        /* \"#utility.yul\":3244:3250   */\n      0x00\n        /* \"#utility.yul\":3277:3279   */\n      0x40\n        /* \"#utility.yul\":3271:3280   */\n      mload\n        /* \"#utility.yul\":3261:3280   */\n      swap1\n      pop\n        /* \"#utility.yul\":3211:3286   */\n      swap1\n      jump\t// out\n        /* \"#utility.yul\":3292:3600   */\n    tag_54:\n        /* \"#utility.yul\":3354:3358   */\n      0x00\n        /* \"#utility.yul\":3444:3462   */\n      0xffffffffffffffff\n        /* \"#utility.yul\":3436:3442   */\n      dup3\n        /* \"#utility.yul\":3433:3463   */\n      gt\n        /* \"#utility.yul\":3430:3486   */\n      iszero\n      tag_110\n      jumpi\n        /* \"#utility.yul\":3466:3484   */\n      tag_111\n      tag_112\n      jump\t// in\n    tag_111:\n        /* \"#utility.yul\":3430:3486   */\n    tag_110:\n        /* \"#utility.yul\":3504:3533   */\n      tag_113\n        /* \"#utility.yul\":3526:3532   */\n      dup3\n        /* \"#utility.yul\":3504:3533   */\n      tag_93\n      jump\t// in\n    tag_113:\n        /* \"#utility.yul\":3496:3533   */\n      swap1\n      pop\n        /* \"#utility.yul\":3588:3592   */\n      0x20\n        /* \"#utility.yul\":3582:3586   */\n      dup2\n        /* \"#utility.yul\":3578:3593   */\n      add\n        /* \"#utility.yul\":3570:3593   */\n      swap1\n      pop\n        /* \"#utility.yul\":3292:3600   */\n      swap2\n      swap1\n      pop\n      jump\t// out\n        /* \"#utility.yul\":3606:3705   */\n    tag_87:\n        /* \"#utility.yul\":3658:3664   */\n      0x00\n        /* \"#utility.yul\":3692:3697   */\n      dup2\n        /* \"#utility.yul\":3686:3698   */\n      mload\n        /* \"#utility.yul\":3676:3698   */\n      swap1\n      pop\n        /* \"#utility.yul\":3606:3705   */\n      swap2\n      swap1\n      pop\n      jump\t// out\n        /* \"#utility.yul\":3711:3880   */\n    tag_89:\n        /* \"#utility.yul\":3795:3806   */\n      0x00\n        /* \"#utility.yul\":3829:3835   */\n      dup3\n        /* \"#utility.yul\":3824:3827   */\n      dup3\n        /* \"#utility.yul\":3817:3836   */\n      mstore\n        /* \"#utility.yul\":3869:3873   */\n      0x20\n        /* \"#utility.yul\":3864:3867   */\n      dup3\n        /* \"#utility.yul\":3860:3874   */\n      add\n        /* \"#utility.yul\":3845:3874   */\n      swap1\n      pop\n        /* \"#utility.yul\":3711:3880   */\n      swap3\n      swap2\n      pop\n      pop\n      jump\t// out\n        /* \"#utility.yul\":3886:4191   */\n    tag_26:\n        /* \"#utility.yul\":3926:3929   */\n      0x00\n        /* \"#utility.yul\":3945:3965   */\n      tag_117\n        /* \"#utility.yul\":3963:3964   */\n      dup3\n        /* \"#utility.yul\":3945:3965   */\n      tag_97\n      jump\t// in\n    tag_117:\n        /* \"#utility.yul\":3940:3965   */\n      swap2\n      pop\n        /* \"#utility.yul\":3979:3999   */\n      tag_118\n        /* \"#utility.yul\":3997:3998   */\n      dup4\n        /* \"#utility.yul\":3979:3999   */\n      tag_97\n      jump\t// in\n    tag_118:\n        /* \"#utility.yul\":3974:3999   */\n      swap3\n      pop\n        /* \"#utility.yul\":4133:4134   */\n      dup3\n        /* \"#utility.yul\":4065:4131   */\n      0xffffffffffffffffffffffffffffffffffffffffffffffffffffffffffffffff\n        /* \"#utility.yul\":4061:4135   */\n      sub\n        /* \"#utility.yul\":4058:4059   */\n      dup3\n        /* \"#utility.yul\":4055:4136   */\n      gt\n        /* \"#utility.yul\":4052:4159   */\n      iszero\n      tag_119\n      jumpi\n        /* \"#utility.yul\":4139:4157   */\n      tag_120\n      tag_121\n      jump\t// in\n    tag_120:\n        /* \"#utility.yul\":4052:4159   */\n    tag_119:\n        /* \"#utility.yul\":4183:4184   */\n      dup3\n        /* \"#utility.yul\":4180:4181   */\n      dup3\n        /* \"#utility.yul\":4176:4185   */\n      add\n        /* \"#utility.yul\":4169:4185   */\n      swap1\n      pop\n        /* \"#utility.yul\":3886:4191   */\n      swap3\n      swap2\n      pop\n      pop\n      jump\t// out\n        /* \"#utility.yul\":4197:4274   */\n    tag_97:\n        /* \"#utility.yul\":4234:4241   */\n      0x00\n        /* \"#utility.yul\":4263:4268   */\n      dup2\n        /* \"#utility.yul\":4252:4268   */\n      swap1\n      pop\n        /* \"#utility.yul\":4197:4274   */\n      swap2\n      swap1\n      pop\n      jump\t// out\n        /* \"#utility.yul\":4280:4434   */\n    tag_60:\n        /* \"#utility.yul\":4364:4370   */\n      dup3\n        /* \"#utility.yul\":4359:4362   */\n      dup2\n        /* \"#utility.yul\":4354:4357   */\n      dup4\n        /* \"#utility.yul\":4341:4371   */\n      calldatacopy\n        /* \"#utility.yul\":4426:4427   */\n      0x00\n        /* \"#utility.yul\":4417:4423   */\n      dup4\n        /* \"#utility.yul\":4412:4415   */\n      dup4\n        /* \"#utility.yul\":4408:4424   */\n      add\n        /* \"#utility.yul\":4401:4428   */\n      mstore\n        /* \"#utility.yul\":4280:4434   */\n      pop\n      pop\n      pop\n      jump\t// out\n        /* \"#utility.yul\":4440:4747   */\n    tag_91:\n        /* \"#utility.yul\":4508:4509   */\n      0x00\n        /* \"#utility.yul\":4518:4631   */\n    tag_125:\n        /* \"#utility.yul\":4532:4538   */\n      dup4\n        /* \"#utility.yul\":4529:4530   */\n      dup2\n        /* \"#utility.yul\":4526:4539   */\n      lt\n        /* \"#utility.yul\":4518:4631   */\n      iszero\n      tag_127\n      jumpi\n        /* \"#utility.yul\":4617:4618   */\n      dup1\n        /* \"#utility.yul\":4612:4615   */\n      dup3\n        /* \"#utility.yul\":4608:4619   */\n      add\n        /* \"#utility.yul\":4602:4620   */\n      mload\n        /* \"#utility.yul\":4598:4599   */\n      dup2\n        /* \"#utility.yul\":4593:4596   */\n      dup5\n        /* \"#utility.yul\":4589:4600   */\n      add\n        /* \"#utility.yul\":4582:4621   */\n      mstore\n        /* \"#utility.yul\":4554:4556   */\n      0x20\n        /* \"#utility.yul\":4551:4552   */\n      dup2\n        /* \"#utility.yul\":4547:4557   */\n      add\n        /* \"#utility.yul\":4542:4557   */\n      swap1\n      pop\n        /* \"#utility.yul\":4518:4631   */\n      jump(tag_125)\n    tag_127:\n        /* \"#utility.yul\":4649:4655   */\n      dup4\n        /* \"#utility.yul\":4646:4647   */\n      dup2\n        /* \"#utility.yul\":4643:4656   */\n      gt\n        /* \"#utility.yul\":4640:4741   */\n      iszero\n      tag_128\n      jumpi\n        /* \"#utility.yul\":4729:4730   */\n      0x00\n        /* \"#utility.yul\":4720:4726   */\n      dup5\n        /* \"#utility.yul\":4715:4718   */\n      dup5\n        /* \"#utility.yul\":4711:4727   */\n      add\n        /* \"#utility.yul\":4704:4731   */\n      mstore\n        /* \"#utility.yul\":4640:4741   */\n    tag_128:\n        /* \"#utility.yul\":4489:4747   */\n      pop\n        /* \"#utility.yul\":4440:4747   */\n      pop\n      pop\n      pop\n      jump\t// out\n        /* \"#utility.yul\":4753:5073   */\n    tag_34:\n        /* \"#utility.yul\":4797:4803   */\n      0x00\n        /* \"#utility.yul\":4834:4835   */\n      0x02\n        /* \"#utility.yul\":4828:4832   */\n      dup3\n        /* \"#utility.yul\":4824:4836   */\n      div\n        /* \"#utility.yul\":4814:4836   */\n      swap1\n      pop\n        /* \"#utility.yul\":4881:4882   */\n      0x01\n        /* \"#utility.yul\":4875:4879   */\n      dup3\n        /* \"#utility.yul\":4871:4883   */\n      and\n        /* \"#utility.yul\":4902:4920   */\n      dup1\n        /* \"#utility.yul\":4892:4973   */\n      tag_130\n      jumpi\n        /* \"#utility.yul\":4958:4962   */\n      0x7f\n        /* \"#utility.yul\":4950:4956   */\n      dup3\n        /* \"#utility.yul\":4946:4963   */\n      and\n        /* \"#utility.yul\":4936:4963   */\n      swap2\n      pop\n        /* \"#utility.yul\":4892:4973   */\n    tag_130:\n        /* \"#utility.yul\":5020:5022   */\n      0x20\n        /* \"#utility.yul\":5012:5018   */\n      dup3\n        /* \"#utility.yul\":5009:5023   */\n      lt\n        /* \"#utility.yul\":4989:5007   */\n      dup2\n        /* \"#utility.yul\":4986:5024   */\n      eq\n        /* \"#utility.yul\":4983:5067   */\n      iszero\n      tag_131\n      jumpi\n        /* \"#utility.yul\":5039:5057   */\n      tag_132\n      tag_133\n      jump\t// in\n    tag_132:\n        /* \"#utility.yul\":4983:5067   */\n    tag_131:\n        /* \"#utility.yul\":4804:5073   */\n      pop\n        /* \"#utility.yul\":4753:5073   */\n      swap2\n      swap1\n      pop\n      jump\t// out\n        /* \"#utility.yul\":5079:5360   */\n    tag_107:\n        /* \"#utility.yul\":5162:5189   */\n      tag_135\n        /* \"#utility.yul\":5184:5188   */\n      dup3\n        /* \"#utility.yul\":5162:5189   */\n      tag_93\n      jump\t// in\n    tag_135:\n        /* \"#utility.yul\":5154:5160   */\n      dup2\n        /* \"#utility.yul\":5150:5190   */\n      add\n        /* \"#utility.yul\":5292:5298   */\n      dup2\n        /* \"#utility.yul\":5280:5290   */\n      dup2\n        /* \"#utility.yul\":5277:5299   */\n      lt\n        /* \"#utility.yul\":5256:5274   */\n      0xffffffffffffffff\n        /* \"#utility.yul\":5244:5254   */\n      dup3\n        /* \"#utility.yul\":5241:5275   */\n      gt\n        /* \"#utility.yul\":5238:5300   */\n      or\n        /* \"#utility.yul\":5235:5323   */\n      iszero\n      tag_136\n      jumpi\n        /* \"#utility.yul\":5303:5321   */\n      tag_137\n      tag_112\n      jump\t// in\n    tag_137:\n        /* \"#utility.yul\":5235:5323   */\n    tag_136:\n        /* \"#utility.yul\":5343:5353   */\n      dup1\n        /* \"#utility.yul\":5339:5341   */\n      0x40\n        /* \"#utility.yul\":5332:5354   */\n      mstore\n        /* \"#utility.yul\":5122:5360   */\n      pop\n        /* \"#utility.yul\":5079:5360   */\n      pop\n      pop\n      jump\t// out\n        /* \"#utility.yul\":5366:5546   */\n    tag_121:\n        /* \"#utility.yul\":5414:5491   */\n      0x4e487b7100000000000000000000000000000000000000000000000000000000\n        /* \"#utility.yul\":5411:5412   */\n      0x00\n        /* \"#utility.yul\":5404:5492   */\n      mstore\n        /* \"#utility.yul\":5511:5515   */\n      0x11\n        /* \"#utility.yul\":5508:5509   */\n      0x04\n        /* \"#utility.yul\":5501:5516   */\n      mstore\n        /* \"#utility.yul\":5535:5539   */\n      0x24\n        /* \"#utility.yul\":5532:5533   */\n      0x00\n        /* \"#utility.yul\":5525:5540   */\n      revert\n        /* \"#utility.yul\":5552:5732   */\n    tag_133:\n        /* \"#utility.yul\":5600:5677   */\n      0x4e487b7100000000000000000000000000000000000000000000000000000000\n        /* \"#utility.yul\":5597:5598   */\n      0x00\n        /* \"#utility.yul\":5590:5678   */\n      mstore\n        /* \"#utility.yul\":5697:5701   */\n      0x22\n        /* \"#utility.yul\":5694:5695   */\n      0x04\n        /* \"#utility.yul\":5687:5702   */\n      mstore\n        /* \"#utility.yul\":5721:5725   */\n      0x24\n        /* \"#utility.yul\":5718:5719   */\n      0x00\n        /* \"#utility.yul\":5711:5726   */\n      revert\n        /* \"#utility.yul\":5738:5918   */\n    tag_112:\n        /* \"#utility.yul\":5786:5863   */\n      0x4e487b7100000000000000000000000000000000000000000000000000000000\n        /* \"#utility.yul\":5783:5784   */\n      0x00\n        /* \"#utility.yul\":5776:5864   */\n      mstore\n        /* \"#utility.yul\":5883:5887   */\n      0x41\n        /* \"#utility.yul\":5880:5881   */\n      0x04\n        /* \"#utility.yul\":5873:5888   */\n      mstore\n        /* \"#utility.yul\":5907:5911   */\n      0x24\n        /* \"#utility.yul\":5904:5905   */\n      0x00\n        /* \"#utility.yul\":5897:5912   */\n      revert\n        /* \"#utility.yul\":5924:6041   */\n    tag_65:\n        /* \"#utility.yul\":6033:6034   */\n      0x00\n        /* \"#utility.yul\":6030:6031   */\n      dup1\n        /* \"#utility.yul\":6023:6035   */\n      revert\n        /* \"#utility.yul\":6047:6164   */\n    tag_58:\n        /* \"#utility.yul\":6156:6157   */\n      0x00\n        /* \"#utility.yul\":6153:6154   */\n      dup1\n        /* \"#utility.yul\":6146:6158   */\n      revert\n        /* \"#utility.yul\":6170:6287   */\n    tag_77:\n        /* \"#utility.yul\":6279:6280   */\n      0x00\n        /* \"#utility.yul\":6276:6277   */\n      dup1\n        /* \"#utility.yul\":6269:6281   */\n      revert\n        /* \"#utility.yul\":6293:6410   */\n    tag_74:\n        /* \"#utility.yul\":6402:6403   */\n      0x00\n        /* \"#utility.yul\":6399:6400   */\n      dup1\n        /* \"#utility.yul\":6392:6404   */\n      revert\n        /* \"#utility.yul\":6416:6518   */\n    tag_93:\n        /* \"#utility.yul\":6457:6463   */\n      0x00\n        /* \"#utility.yul\":6508:6510   */\n      0x1f\n        /* \"#utility.yul\":6504:6511   */\n      not\n        /* \"#utility.yul\":6499:6501   */\n      0x1f\n        /* \"#utility.yul\":6492:6497   */\n      dup4\n        /* \"#utility.yul\":6488:6502   */\n      add\n        /* \"#utility.yul\":6484:6512   */\n      and\n        /* \"#utility.yul\":6474:6512   */\n      swap1\n      pop\n        /* \"#utility.yul\":6416:6518   */\n      swap2\n      swap1\n      pop\n      jump\t// out\n        /* \"#utility.yul\":6524:6646   */\n    tag_70:\n        /* \"#utility.yul\":6597:6621   */\n      tag_147\n        /* \"#utility.yul\":6615:6620   */\n      dup2\n        /* \"#utility.yul\":6597:6621   */\n      tag_97\n      jump\t// in\n    tag_147:\n        /* \"#utility.yul\":6590:6595   */\n      dup2\n        /* \"#utility.yul\":6587:6622   */\n      eq\n        /* \"#utility.yul\":6577:6640   */\n      tag_148\n      jumpi\n        /* \"#utility.yul\":6636:6637   */\n      0x00\n        /* \"#utility.yul\":6633:6634   */\n      dup1\n        /* \"#utility.yul\":6626:6638   */\n      revert\n        /* \"#utility.yul\":6577:6640   */\n    tag_148:\n        /* \"#utility.yul\":6524:6646   */\n      pop\n      jump\t// out\n\n    auxdata: 0xa264697066735822122002f6e54e6600281227a81fc62312da20178ce6a56e6ee2fe3ebcb20778c4dc8564736f6c63430008070033\n}\n",
				"bytecode": {
					"linkReferences": {},
					"object": "608060405234801561001057600080fd5b506106d8806100206000396000f3fe608060405234801561001057600080fd5b506004361061004c5760003560e01c8063471f7cdf146100515780636057361d1461006f5780636f760f411461008b5780639e7a13ad146100a7575b600080fd5b6100596100d8565b6040516100669190610417565b60405180910390f35b610089600480360381019061008491906103a2565b6100de565b005b6100a560048036038101906100a09190610346565b6100f5565b005b6100c160048036038101906100bc91906103a2565b610162565b6040516100cf929190610432565b60405180910390f35b60005481565b806000546100ec91906104d4565b60008190555050565b6001604051806040016040528083815260200184815250908060018154018082558091505060019003906000526020600020906002020160009091909190915060008201518160000155602082015181600101908051906020019061015b92919061021e565b5050505050565b6001818154811061017257600080fd5b906000526020600020906002020160009150905080600001549080600101805461019b90610576565b80601f01602080910402602001604051908101604052809291908181526020018280546101c790610576565b80156102145780601f106101e957610100808354040283529160200191610214565b820191906000526020600020905b8154815290600101906020018083116101f757829003601f168201915b5050505050905082565b82805461022a90610576565b90600052602060002090601f01602090048101928261024c5760008555610293565b82601f1061026557805160ff1916838001178555610293565b82800160010185558215610293579182015b82811115610292578251825591602001919060010190610277565b5b5090506102a091906102a4565b5090565b5b808211156102bd5760008160009055506001016102a5565b5090565b60006102d46102cf84610487565b610462565b9050828152602081018484840111156102f0576102ef61066b565b5b6102fb848285610534565b509392505050565b600082601f83011261031857610317610666565b5b81356103288482602086016102c1565b91505092915050565b6000813590506103408161068b565b92915050565b6000806040838503121561035d5761035c610675565b5b600083013567ffffffffffffffff81111561037b5761037a610670565b5b61038785828601610303565b925050602061039885828601610331565b9150509250929050565b6000602082840312156103b8576103b7610675565b5b60006103c684828501610331565b91505092915050565b60006103da826104b8565b6103e481856104c3565b93506103f4818560208601610543565b6103fd8161067a565b840191505092915050565b6104118161052a565b82525050565b600060208201905061042c6000830184610408565b92915050565b60006040820190506104476000830185610408565b818103602083015261045981846103cf565b90509392505050565b600061046c61047d565b905061047882826105a8565b919050565b6000604051905090565b600067ffffffffffffffff8211156104a2576104a1610637565b5b6104ab8261067a565b9050602081019050919050565b600081519050919050565b600082825260208201905092915050565b60006104df8261052a565b91506104ea8361052a565b9250827fffffffffffffffffffffffffffffffffffffffffffffffffffffffffffffffff0382111561051f5761051e6105d9565b5b828201905092915050565b6000819050919050565b82818337600083830152505050565b60005b83811015610561578082015181840152602081019050610546565b83811115610570576000848401525b50505050565b6000600282049050600182168061058e57607f821691505b602082108114156105a2576105a1610608565b5b50919050565b6105b18261067a565b810181811067ffffffffffffffff821117156105d0576105cf610637565b5b80604052505050565b7f4e487b7100000000000000000000000000000000000000000000000000000000600052601160045260246000fd5b7f4e487b7100000000000000000000000000000000000000000000000000000000600052602260045260246000fd5b7f4e487b7100000000000000000000000000000000000000000000000000000000600052604160045260246000fd5b600080fd5b600080fd5b600080fd5b600080fd5b6000601f19601f8301169050919050565b6106948161052a565b811461069f57600080fd5b5056fea264697066735822122002f6e54e6600281227a81fc62312da20178ce6a56e6ee2fe3ebcb20778c4dc8564736f6c63430008070033",
					"opcodes": "PUSH1 0x80 PUSH1 0x40 MSTORE CALLVALUE DUP1 ISZERO PUSH2 0x10 JUMPI PUSH1 0x0 DUP1 REVERT JUMPDEST POP PUSH2 0x6D8 DUP1 PUSH2 0x20 PUSH1 0x0 CODECOPY PUSH1 0x0 RETURN INVALID PUSH1 0x80 PUSH1 0x40 MSTORE CALLVALUE DUP1 ISZERO PUSH2 0x10 JUMPI PUSH1 0x0 DUP1 REVERT JUMPDEST POP PUSH1 0x4 CALLDATASIZE LT PUSH2 0x4C JUMPI PUSH1 0x0 CALLDATALOAD PUSH1 0xE0 SHR DUP1 PUSH4 0x471F7CDF EQ PUSH2 0x51 JUMPI DUP1 PUSH4 0x6057361D EQ PUSH2 0x6F JUMPI DUP1 PUSH4 0x6F760F41 EQ PUSH2 0x8B JUMPI DUP1 PUSH4 0x9E7A13AD EQ PUSH2 0xA7 JUMPI JUMPDEST PUSH1 0x0 DUP1 REVERT JUMPDEST PUSH2 0x59 PUSH2 0xD8 JUMP JUMPDEST PUSH1 0x40 MLOAD PUSH2 0x66 SWAP2 SWAP1 PUSH2 0x417 JUMP JUMPDEST PUSH1 0x40 MLOAD DUP1 SWAP2 SUB SWAP1 RETURN JUMPDEST PUSH2 0x89 PUSH1 0x4 DUP1 CALLDATASIZE SUB DUP2 ADD SWAP1 PUSH2 0x84 SWAP2 SWAP1 PUSH2 0x3A2 JUMP JUMPDEST PUSH2 0xDE JUMP JUMPDEST STOP JUMPDEST PUSH2 0xA5 PUSH1 0x4 DUP1 CALLDATASIZE SUB DUP2 ADD SWAP1 PUSH2 0xA0 SWAP2 SWAP1 PUSH2 0x346 JUMP JUMPDEST PUSH2 0xF5 JUMP JUMPDEST STOP JUMPDEST PUSH2 0xC1 PUSH1 0x4 DUP1 CALLDATASIZE SUB DUP2 ADD SWAP1 PUSH2 0xBC SWAP2 SWAP1 PUSH2 0x3A2 JUMP JUMPDEST PUSH2 0x162 JUMP JUMPDEST PUSH1 0x40 MLOAD PUSH2 0xCF SWAP3 SWAP2 SWAP1 PUSH2 0x432 JUMP JUMPDEST PUSH1 0x40 MLOAD DUP1 SWAP2 SUB SWAP1 RETURN JUMPDEST PUSH1 0x0 SLOAD DUP2 JUMP JUMPDEST DUP1 PUSH1 0x0 SLOAD PUSH2 0xEC SWAP2 SWAP1 PUSH2 0x4D4 JUMP JUMPDEST PUSH1 0x0 DUP2 SWAP1 SSTORE POP POP JUMP JUMPDEST PUSH1 0x1 PUSH1 0x40 MLOAD DUP1 PUSH1 0x40 ADD PUSH1 0x40 MSTORE DUP1 DUP4 DUP2 MSTORE PUSH1 0x20 ADD DUP5 DUP2 MSTORE POP SWAP1 DUP1 PUSH1 0x1 DUP2 SLOAD ADD DUP1 DUP3 SSTORE DUP1 SWAP2 POP POP PUSH1 0x1 SWAP1 SUB SWAP1 PUSH1 0x0 MSTORE PUSH1 0x20 PUSH1 0x0 KECCAK256 SWAP1 PUSH1 0x2 MUL ADD PUSH1 0x0 SWAP1 SWAP2 SWAP1 SWAP2 SWAP1 SWAP2 POP PUSH1 0x0 DUP3 ADD MLOAD DUP2 PUSH1 0x0 ADD SSTORE PUSH1 0x20 DUP3 ADD MLOAD DUP2 PUSH1 0x1 ADD SWAP1 DUP1 MLOAD SWAP1 PUSH1 0x20 ADD SWAP1 PUSH2 0x15B SWAP3 SWAP2 SWAP1 PUSH2 0x21E JUMP JUMPDEST POP POP POP POP POP JUMP JUMPDEST PUSH1 0x1 DUP2 DUP2 SLOAD DUP2 LT PUSH2 0x172 JUMPI PUSH1 0x0 DUP1 REVERT JUMPDEST SWAP1 PUSH1 0x0 MSTORE PUSH1 0x20 PUSH1 0x0 KECCAK256 SWAP1 PUSH1 0x2 MUL ADD PUSH1 0x0 SWAP2 POP SWAP1 POP DUP1 PUSH1 0x0 ADD SLOAD SWAP1 DUP1 PUSH1 0x1 ADD DUP1 SLOAD PUSH2 0x19B SWAP1 PUSH2 0x576 JUMP JUMPDEST DUP1 PUSH1 0x1F ADD PUSH1 0x20 DUP1 SWAP2 DIV MUL PUSH1 0x20 ADD PUSH1 0x40 MLOAD SWAP1 DUP2 ADD PUSH1 0x40 MSTORE DUP1 SWAP3 SWAP2 SWAP1 DUP2 DUP2 MSTORE PUSH1 0x20 ADD DUP3 DUP1 SLOAD PUSH2 0x1C7 SWAP1 PUSH2 0x576 JUMP JUMPDEST DUP1 ISZERO PUSH2 0x214 JUMPI DUP1 PUSH1 0x1F LT PUSH2 0x1E9 JUMPI PUSH2 0x100 DUP1 DUP4 SLOAD DIV MUL DUP4 MSTORE SWAP2 PUSH1 0x20 ADD SWAP2 PUSH2 0x214 JUMP JUMPDEST DUP3 ADD SWAP2 SWAP1 PUSH1 0x0 MSTORE PUSH1 0x20 PUSH1 0x0 KECCAK256 SWAP1 JUMPDEST DUP2 SLOAD DUP2 MSTORE SWAP1 PUSH1 0x1 ADD SWAP1 PUSH1 0x20 ADD DUP1 DUP4 GT PUSH2 0x1F7 JUMPI DUP3 SWAP1 SUB PUSH1 0x1F AND DUP3 ADD SWAP2 JUMPDEST POP POP POP POP POP SWAP1 POP DUP3 JUMP JUMPDEST DUP3 DUP1 SLOAD PUSH2 0x22A SWAP1 PUSH2 0x576 JUMP JUMPDEST SWAP1 PUSH1 0x0 MSTORE PUSH1 0x20 PUSH1 0x0 KECCAK256 SWAP1 PUSH1 0x1F ADD PUSH1 0x20 SWAP1 DIV DUP2 ADD SWAP3 DUP3 PUSH2 0x24C JUMPI PUSH1 0x0 DUP6 SSTORE PUSH2 0x293 JUMP JUMPDEST DUP3 PUSH1 0x1F LT PUSH2 0x265 JUMPI DUP1 MLOAD PUSH1 0xFF NOT AND DUP4 DUP1 ADD OR DUP6 SSTORE PUSH2 0x293 JUMP JUMPDEST DUP3 DUP1 ADD PUSH1 0x1 ADD DUP6 SSTORE DUP3 ISZERO PUSH2 0x293 JUMPI SWAP2 DUP3 ADD JUMPDEST DUP3 DUP2 GT ISZERO PUSH2 0x292 JUMPI DUP3 MLOAD DUP3 SSTORE SWAP2 PUSH1 0x20 ADD SWAP2 SWAP1 PUSH1 0x1 ADD SWAP1 PUSH2 0x277 JUMP JUMPDEST JUMPDEST POP SWAP1 POP PUSH2 0x2A0 SWAP2 SWAP1 PUSH2 0x2A4 JUMP JUMPDEST POP SWAP1 JUMP JUMPDEST JUMPDEST DUP1 DUP3 GT ISZERO PUSH2 0x2BD JUMPI PUSH1 0x0 DUP2 PUSH1 0x0 SWAP1 SSTORE POP PUSH1 0x1 ADD PUSH2 0x2A5 JUMP JUMPDEST POP SWAP1 JUMP JUMPDEST PUSH1 0x0 PUSH2 0x2D4 PUSH2 0x2CF DUP5 PUSH2 0x487 JUMP JUMPDEST PUSH2 0x462 JUMP JUMPDEST SWAP1 POP DUP3 DUP2 MSTORE PUSH1 0x20 DUP2 ADD DUP5 DUP5 DUP5 ADD GT ISZERO PUSH2 0x2F0 JUMPI PUSH2 0x2EF PUSH2 0x66B JUMP JUMPDEST JUMPDEST PUSH2 0x2FB DUP5 DUP3 DUP6 PUSH2 0x534 JUMP JUMPDEST POP SWAP4 SWAP3 POP POP POP JUMP JUMPDEST PUSH1 0x0 DUP3 PUSH1 0x1F DUP4 ADD SLT PUSH2 0x318 JUMPI PUSH2 0x317 PUSH2 0x666 JUMP JUMPDEST JUMPDEST DUP2 CALLDATALOAD PUSH2 0x328 DUP5 DUP3 PUSH1 0x20 DUP7 ADD PUSH2 0x2C1 JUMP JUMPDEST SWAP2 POP POP SWAP3 SWAP2 POP POP JUMP JUMPDEST PUSH1 0x0 DUP2 CALLDATALOAD SWAP1 POP PUSH2 0x340 DUP2 PUSH2 0x68B JUMP JUMPDEST SWAP3 SWAP2 POP POP JUMP JUMPDEST PUSH1 0x0 DUP1 PUSH1 0x40 DUP4 DUP6 SUB SLT ISZERO PUSH2 0x35D JUMPI PUSH2 0x35C PUSH2 0x675 JUMP JUMPDEST JUMPDEST PUSH1 0x0 DUP4 ADD CALLDATALOAD PUSH8 0xFFFFFFFFFFFFFFFF DUP2 GT ISZERO PUSH2 0x37B JUMPI PUSH2 0x37A PUSH2 0x670 JUMP JUMPDEST JUMPDEST PUSH2 0x387 DUP6 DUP3 DUP7 ADD PUSH2 0x303 JUMP JUMPDEST SWAP3 POP POP PUSH1 0x20 PUSH2 0x398 DUP6 DUP3 DUP7 ADD PUSH2 0x331 JUMP JUMPDEST SWAP2 POP POP SWAP3 POP SWAP3 SWAP1 POP JUMP JUMPDEST PUSH1 0x0 PUSH1 0x20 DUP3 DUP5 SUB SLT ISZERO PUSH2 0x3B8 JUMPI PUSH2 0x3B7 PUSH2 0x675 JUMP JUMPDEST JUMPDEST PUSH1 0x0 PUSH2 0x3C6 DUP5 DUP3 DUP6 ADD PUSH2 0x331 JUMP JUMPDEST SWAP2 POP POP SWAP3 SWAP2 POP POP JUMP JUMPDEST PUSH1 0x0 PUSH2 0x3DA DUP3 PUSH2 0x4B8 JUMP JUMPDEST PUSH2 0x3E4 DUP2 DUP6 PUSH2 0x4C3 JUMP JUMPDEST SWAP4 POP PUSH2 0x3F4 DUP2 DUP6 PUSH1 0x20 DUP7 ADD PUSH2 0x543 JUMP JUMPDEST PUSH2 0x3FD DUP2 PUSH2 0x67A JUMP JUMPDEST DUP5 ADD SWAP2 POP POP SWAP3 SWAP2 POP POP JUMP JUMPDEST PUSH2 0x411 DUP2 PUSH2 0x52A JUMP JUMPDEST DUP3 MSTORE POP POP JUMP JUMPDEST PUSH1 0x0 PUSH1 0x20 DUP3 ADD SWAP1 POP PUSH2 0x42C PUSH1 0x0 DUP4 ADD DUP5 PUSH2 0x408 JUMP JUMPDEST SWAP3 SWAP2 POP POP JUMP JUMPDEST PUSH1 0x0 PUSH1 0x40 DUP3 ADD SWAP1 POP PUSH2 0x447 PUSH1 0x0 DUP4 ADD DUP6 PUSH2 0x408 JUMP JUMPDEST DUP2 DUP2 SUB PUSH1 0x20 DUP4 ADD MSTORE PUSH2 0x459 DUP2 DUP5 PUSH2 0x3CF JUMP JUMPDEST SWAP1 POP SWAP4 SWAP3 POP POP POP JUMP JUMPDEST PUSH1 0x0 PUSH2 0x46C PUSH2 0x47D JUMP JUMPDEST SWAP1 POP PUSH2 0x478 DUP3 DUP3 PUSH2 0x5A8 JUMP JUMPDEST SWAP2 SWAP1 POP JUMP JUMPDEST PUSH1 0x0 PUSH1 0x40 MLOAD SWAP1 POP SWAP1 JUMP JUMPDEST PUSH1 0x0 PUSH8 0xFFFFFFFFFFFFFFFF DUP3 GT ISZERO PUSH2 0x4A2 JUMPI PUSH2 0x4A1 PUSH2 0x637 JUMP JUMPDEST JUMPDEST PUSH2 0x4AB DUP3 PUSH2 0x67A JUMP JUMPDEST SWAP1 POP PUSH1 0x20 DUP2 ADD SWAP1 POP SWAP2 SWAP1 POP JUMP JUMPDEST PUSH1 0x0 DUP2 MLOAD SWAP1 POP SWAP2 SWAP1 POP JUMP JUMPDEST PUSH1 0x0 DUP3 DUP3 MSTORE PUSH1 0x20 DUP3 ADD SWAP1 POP SWAP3 SWAP2 POP POP JUMP JUMPDEST PUSH1 0x0 PUSH2 0x4DF DUP3 PUSH2 0x52A JUMP JUMPDEST SWAP2 POP PUSH2 0x4EA DUP4 PUSH2 0x52A JUMP JUMPDEST SWAP3 POP DUP3 PUSH32 0xFFFFFFFFFFFFFFFFFFFFFFFFFFFFFFFFFFFFFFFFFFFFFFFFFFFFFFFFFFFFFFFF SUB DUP3 GT ISZERO PUSH2 0x51F JUMPI PUSH2 0x51E PUSH2 0x5D9 JUMP JUMPDEST JUMPDEST DUP3 DUP3 ADD SWAP1 POP SWAP3 SWAP2 POP POP JUMP JUMPDEST PUSH1 0x0 DUP2 SWAP1 POP SWAP2 SWAP1 POP JUMP JUMPDEST DUP3 DUP2 DUP4 CALLDATACOPY PUSH1 0x0 DUP4 DUP4 ADD MSTORE POP POP POP JUMP JUMPDEST PUSH1 0x0 JUMPDEST DUP4 DUP2 LT ISZERO PUSH2 0x561 JUMPI DUP1 DUP3 ADD MLOAD DUP2 DUP5 ADD MSTORE PUSH1 0x20 DUP2 ADD SWAP1 POP PUSH2 0x546 JUMP JUMPDEST DUP4 DUP2 GT ISZERO PUSH2 0x570 JUMPI PUSH1 0x0 DUP5 DUP5 ADD MSTORE JUMPDEST POP POP POP POP JUMP JUMPDEST PUSH1 0x0 PUSH1 0x2 DUP3 DIV SWAP1 POP PUSH1 0x1 DUP3 AND DUP1 PUSH2 0x58E JUMPI PUSH1 0x7F DUP3 AND SWAP2 POP JUMPDEST PUSH1 0x20 DUP3 LT DUP2 EQ ISZERO PUSH2 0x5A2 JUMPI PUSH2 0x5A1 PUSH2 0x608 JUMP JUMPDEST JUMPDEST POP SWAP2 SWAP1 POP JUMP JUMPDEST PUSH2 0x5B1 DUP3 PUSH2 0x67A JUMP JUMPDEST DUP2 ADD DUP2 DUP2 LT PUSH8 0xFFFFFFFFFFFFFFFF DUP3 GT OR ISZERO PUSH2 0x5D0 JUMPI PUSH2 0x5CF PUSH2 0x637 JUMP JUMPDEST JUMPDEST DUP1 PUSH1 0x40 MSTORE POP POP POP JUMP JUMPDEST PUSH32 0x4E487B7100000000000000000000000000000000000000000000000000000000 PUSH1 0x0 MSTORE PUSH1 0x11 PUSH1 0x4 MSTORE PUSH1 0x24 PUSH1 0x0 REVERT JUMPDEST PUSH32 0x4E487B7100000000000000000000000000000000000000000000000000000000 PUSH1 0x0 MSTORE PUSH1 0x22 PUSH1 0x4 MSTORE PUSH1 0x24 PUSH1 0x0 REVERT JUMPDEST PUSH32 0x4E487B7100000000000000000000000000000000000000000000000000000000 PUSH1 0x0 MSTORE PUSH1 0x41 PUSH1 0x4 MSTORE PUSH1 0x24 PUSH1 0x0 REVERT JUMPDEST PUSH1 0x0 DUP1 REVERT JUMPDEST PUSH1 0x0 DUP1 REVERT JUMPDEST PUSH1 0x0 DUP1 REVERT JUMPDEST PUSH1 0x0 DUP1 REVERT JUMPDEST PUSH1 0x0 PUSH1 0x1F NOT PUSH1 0x1F DUP4 ADD AND SWAP1 POP SWAP2 SWAP1 POP JUMP JUMPDEST PUSH2 0x694 DUP2 PUSH2 0x52A JUMP JUMPDEST DUP2 EQ PUSH2 0x69F JUMPI PUSH1 0x0 DUP1 REVERT JUMPDEST POP JUMP INVALID LOG2 PUSH5 0x6970667358 0x22 SLT KECCAK256 MUL 0xF6 0xE5 0x4E PUSH7 0x281227A81FC6 0x23 SLT 0xDA KECCAK256 OR DUP13 0xE6 0xA5 PUSH15 0x6EE2FE3EBCB20778C4DC8564736F6C PUSH4 0x43000807 STOP CALLER "
				},
				"gasEstimates": {
					"creation": {
						"codeDepositCost": "350400",
						"executionCost": "386",
						"totalCost": "350786"
					},
					"external": {
						"addPerson(string,uint256)": "infinite",
						"favoriteNumber()": "2407",
						"people(uint256)": "infinite",
						"store(uint256)": "infinite"
					}
				},
				"methodIdentifiers": {
					"addPerson(string,uint256)": "6f760f41",
					"favoriteNumber()": "471f7cdf",
					"people(uint256)": "9e7a13ad",
					"store(uint256)": "6057361d"
				}
			},
			"storageLayout": {
				"storage": [
					{
						"astId": 3,
						"contract": "contracts/SimpleStorage.sol:SimpleStorage",
						"label": "favoriteNumber",
						"offset": 0,
						"slot": "0",
						"type": "t_uint256"
					},
					{
						"astId": 7,
						"contract": "contracts/SimpleStorage.sol:SimpleStorage",
						"label": "people",
						"offset": 0,
						"slot": "1",
						"type": "t_array(t_struct(People)12_storage)dyn_storage"
					}
				],
				"types": {
					"t_array(t_struct(People)12_storage)dyn_storage": {
						"base": "t_struct(People)12_storage",
						"encoding": "dynamic_array",
						"label": "struct SimpleStorage.People[]",
						"numberOfBytes": "32"
					},
					"t_string_storage": {
						"encoding": "bytes",
						"label": "string",
						"numberOfBytes": "32"
					},
					"t_struct(People)12_storage": {
						"encoding": "inplace",
						"label": "struct SimpleStorage.People",
						"members": [
							{
								"astId": 9,
								"contract": "contracts/SimpleStorage.sol:SimpleStorage",
								"label": "favoriteNumber",
								"offset": 0,
								"slot": "0",
								"type": "t_uint256"
							},
							{
								"astId": 11,
								"contract": "contracts/SimpleStorage.sol:SimpleStorage",
								"label": "name",
								"offset": 0,
								"slot": "1",
								"type": "t_string_storage"
							}
						],
						"numberOfBytes": "64"
					},
					"t_uint256": {
						"encoding": "inplace",
						"label": "uint256",
						"numberOfBytes": "32"
					}
				}
			},
			"userdoc": {
				"kind": "user",
				"methods": {},
				"version": 1
			}
		}
	}
}