{
	"contracts/FundMe.sol": {
		"FundMe": {
			"abi": [
				{
					"inputs": [],
					"stateMutability": "nonpayable",
					"type": "constructor"
				},
				{
					"inputs": [
						{
							"internalType": "address",
							"name": "",
							"type": "address"
						}
					],
					"name": "adressToAmountFunded",
					"outputs": [
						{
							"internalType": "uint256",
							"name": "",
							"type": "uint256"
						}
					],
					"stateMutability": "view",
					"type": "function"
				},
				{
					"inputs": [],
					"name": "fund",
					"outputs": [],
					"stateMutability": "payable",
					"type": "function"
				},
				{
					"inputs": [
						{
							"internalType": "uint256",
							"name": "",
							"type": "uint256"
						}
					],
					"name": "funders",
					"outputs": [
						{
							"internalType": "address",
							"name": "",
							"type": "address"
						}
					],
					"stateMutability": "view",
					"type": "function"
				},
				{
					"inputs": [],
					"name": "minUSD",
					"outputs": [
						{
							"internalType": "uint256",
							"name": "",
							"type": "uint256"
						}
					],
					"stateMutability": "view",
					"type": "function"
				},
				{
					"inputs": [],
					"name": "owner",
					"outputs": [
						{
							"internalType": "address",
							"name": "",
							"type": "address"
						}
					],
					"stateMutability": "view",
					"type": "function"
				},
				{
					"inputs": [],
					"name": "withdraw",
					"outputs": [],
					"stateMutability": "nonpayable",
					"type": "function"
				}
			],
			"devdoc": {
				"kind": "dev",
				"methods": {},
				"version": 1
			},
			"evm": {
				"assembly": "    /* \"contracts/FundMe.sol\":92:2036  contract FundMe {\r... */\n  mstore(0x40, 0x80)\n    /* \"contracts/FundMe.sol\":178:187  50 * 1e18 */\n  0x02b5e3af16b1880000\n    /* \"contracts/FundMe.sol\":154:187  uint256 public minUSD = 50 * 1e18 */\n  0x00\n  sstore\n    /* \"contracts/FundMe.sol\":316:366  constructor(){\r... */\n  callvalue\n  dup1\n  iszero\n  tag_1\n  jumpi\n  0x00\n  dup1\n  revert\ntag_1:\n  pop\n    /* \"contracts/FundMe.sol\":348:358  msg.sender */\n  caller\n    /* \"contracts/FundMe.sol\":340:345  owner */\n  0x03\n  0x00\n    /* \"contracts/FundMe.sol\":340:358  owner = msg.sender */\n  0x0100\n  exp\n  dup2\n  sload\n  dup2\n  0xffffffffffffffffffffffffffffffffffffffff\n  mul\n  not\n  and\n  swap1\n  dup4\n  0xffffffffffffffffffffffffffffffffffffffff\n  and\n  mul\n  or\n  swap1\n  sstore\n  pop\n    /* \"contracts/FundMe.sol\":92:2036  contract FundMe {\r... */\n  dataSize(sub_0)\n  dup1\n  dataOffset(sub_0)\n  0x00\n  codecopy\n  0x00\n  return\nstop\n\nsub_0: assembly {\n        /* \"contracts/FundMe.sol\":92:2036  contract FundMe {\r... */\n      mstore(0x40, 0x80)\n      jumpi(tag_1, lt(calldatasize, 0x04))\n      shr(0xe0, calldataload(0x00))\n      dup1\n      0x3ccfd60b\n      eq\n      tag_2\n      jumpi\n      dup1\n      0x55f2a7d5\n      eq\n      tag_3\n      jumpi\n      dup1\n      0x8da5cb5b\n      eq\n      tag_4\n      jumpi\n      dup1\n      0xb60d4288\n      eq\n      tag_5\n      jumpi\n      dup1\n      0xdc0d3dff\n      eq\n      tag_6\n      jumpi\n      dup1\n      0xdc992aa0\n      eq\n      tag_7\n      jumpi\n    tag_1:\n      0x00\n      dup1\n      revert\n        /* \"contracts/FundMe.sol\":780:1791  function withdraw() public onlyOwner{\r... */\n    tag_2:\n      callvalue\n      dup1\n      iszero\n      tag_8\n      jumpi\n      0x00\n      dup1\n      revert\n    tag_8:\n      pop\n      tag_9\n      tag_10\n      jump\t// in\n    tag_9:\n      stop\n        /* \"contracts/FundMe.sol\":225:280  mapping(address => uint256) public adressToAmountFunded */\n    tag_3:\n      callvalue\n      dup1\n      iszero\n      tag_11\n      jumpi\n      0x00\n      dup1\n      revert\n    tag_11:\n      pop\n      tag_12\n      0x04\n      dup1\n      calldatasize\n      sub\n      dup2\n      add\n      swap1\n      tag_13\n      swap2\n      swap1\n      tag_14\n      jump\t// in\n    tag_13:\n      tag_15\n      jump\t// in\n    tag_12:\n      mload(0x40)\n      tag_16\n      swap2\n      swap1\n      tag_17\n      jump\t// in\n    tag_16:\n      mload(0x40)\n      dup1\n      swap2\n      sub\n      swap1\n      return\n        /* \"contracts/FundMe.sol\":289:309  address public owner */\n    tag_4:\n      callvalue\n      dup1\n      iszero\n      tag_18\n      jumpi\n      0x00\n      dup1\n      revert\n    tag_18:\n      pop\n      tag_19\n      tag_20\n      jump\t// in\n    tag_19:\n      mload(0x40)\n      tag_21\n      swap2\n      swap1\n      tag_22\n      jump\t// in\n    tag_21:\n      mload(0x40)\n      dup1\n      swap2\n      sub\n      swap1\n      return\n        /* \"contracts/FundMe.sol\":374:768  function fund() public payable{\r... */\n    tag_5:\n      tag_23\n      tag_24\n      jump\t// in\n    tag_23:\n      stop\n        /* \"contracts/FundMe.sol\":194:218  address[] public funders */\n    tag_6:\n      callvalue\n      dup1\n      iszero\n      tag_25\n      jumpi\n      0x00\n      dup1\n      revert\n    tag_25:\n      pop\n      tag_26\n      0x04\n      dup1\n      calldatasize\n      sub\n      dup2\n      add\n      swap1\n      tag_27\n      swap2\n      swap1\n      tag_28\n      jump\t// in\n    tag_27:\n      tag_29\n      jump\t// in\n    tag_26:\n      mload(0x40)\n      tag_30\n      swap2\n      swap1\n      tag_22\n      jump\t// in\n    tag_30:\n      mload(0x40)\n      dup1\n      swap2\n      sub\n      swap1\n      return\n        /* \"contracts/FundMe.sol\":154:187  uint256 public minUSD = 50 * 1e18 */\n    tag_7:\n      callvalue\n      dup1\n      iszero\n      tag_31\n      jumpi\n      0x00\n      dup1\n      revert\n    tag_31:\n      pop\n      tag_32\n      tag_33\n      jump\t// in\n    tag_32:\n      mload(0x40)\n      tag_34\n      swap2\n      swap1\n      tag_17\n      jump\t// in\n    tag_34:\n      mload(0x40)\n      dup1\n      swap2\n      sub\n      swap1\n      return\n        /* \"contracts/FundMe.sol\":780:1791  function withdraw() public onlyOwner{\r... */\n    tag_10:\n        /* \"contracts/FundMe.sol\":1983:1988  owner */\n      0x03\n      0x00\n      swap1\n      sload\n      swap1\n      0x0100\n      exp\n      swap1\n      div\n      0xffffffffffffffffffffffffffffffffffffffff\n      and\n        /* \"contracts/FundMe.sol\":1969:1988  msg.sender == owner */\n      0xffffffffffffffffffffffffffffffffffffffff\n      and\n        /* \"contracts/FundMe.sol\":1969:1979  msg.sender */\n      caller\n        /* \"contracts/FundMe.sol\":1969:1988  msg.sender == owner */\n      0xffffffffffffffffffffffffffffffffffffffff\n      and\n      eq\n        /* \"contracts/FundMe.sol\":1961:2015  require(msg.sender == owner, \"You are not the Owner!\") */\n      tag_36\n      jumpi\n      mload(0x40)\n      0x08c379a000000000000000000000000000000000000000000000000000000000\n      dup2\n      mstore\n      0x04\n      add\n      tag_37\n      swap1\n      tag_38\n      jump\t// in\n    tag_37:\n      mload(0x40)\n      dup1\n      swap2\n      sub\n      swap1\n      revert\n    tag_36:\n        /* \"contracts/FundMe.sol\":857:876  uint256 funderIndex */\n      0x00\n        /* \"contracts/FundMe.sol\":853:1039  for(uint256 funderIndex = 0; funderIndex < funders.length; funderIndex++){\r... */\n    tag_40:\n        /* \"contracts/FundMe.sol\":896:903  funders */\n      0x01\n        /* \"contracts/FundMe.sol\":896:910  funders.length */\n      dup1\n      sload\n      swap1\n      pop\n        /* \"contracts/FundMe.sol\":882:893  funderIndex */\n      dup2\n        /* \"contracts/FundMe.sol\":882:910  funderIndex < funders.length */\n      lt\n        /* \"contracts/FundMe.sol\":853:1039  for(uint256 funderIndex = 0; funderIndex < funders.length; funderIndex++){\r... */\n      iszero\n      tag_41\n      jumpi\n        /* \"contracts/FundMe.sol\":941:955  address funder */\n      0x00\n        /* \"contracts/FundMe.sol\":958:965  funders */\n      0x01\n        /* \"contracts/FundMe.sol\":966:977  funderIndex */\n      dup3\n        /* \"contracts/FundMe.sol\":958:978  funders[funderIndex] */\n      dup2\n      sload\n      dup2\n      lt\n      tag_43\n      jumpi\n      tag_44\n      tag_45\n      jump\t// in\n    tag_44:\n    tag_43:\n      swap1\n      0x00\n      mstore\n      keccak256(0x00, 0x20)\n      add\n      0x00\n      swap1\n      sload\n      swap1\n      0x0100\n      exp\n      swap1\n      div\n      0xffffffffffffffffffffffffffffffffffffffff\n      and\n        /* \"contracts/FundMe.sol\":941:978  address funder = funders[funderIndex] */\n      swap1\n      pop\n        /* \"contracts/FundMe.sol\":1024:1025  0 */\n      0x00\n        /* \"contracts/FundMe.sol\":993:1013  adressToAmountFunded */\n      0x02\n        /* \"contracts/FundMe.sol\":993:1021  adressToAmountFunded[funder] */\n      0x00\n        /* \"contracts/FundMe.sol\":1014:1020  funder */\n      dup4\n        /* \"contracts/FundMe.sol\":993:1021  adressToAmountFunded[funder] */\n      0xffffffffffffffffffffffffffffffffffffffff\n      and\n      0xffffffffffffffffffffffffffffffffffffffff\n      and\n      dup2\n      mstore\n      0x20\n      add\n      swap1\n      dup2\n      mstore\n      0x20\n      add\n      0x00\n      keccak256\n        /* \"contracts/FundMe.sol\":993:1025  adressToAmountFunded[funder] = 0 */\n      dup2\n      swap1\n      sstore\n      pop\n        /* \"contracts/FundMe.sol\":926:1039  {\r... */\n      pop\n        /* \"contracts/FundMe.sol\":912:925  funderIndex++ */\n      dup1\n      dup1\n      tag_47\n      swap1\n      tag_48\n      jump\t// in\n    tag_47:\n      swap2\n      pop\n      pop\n        /* \"contracts/FundMe.sol\":853:1039  for(uint256 funderIndex = 0; funderIndex < funders.length; funderIndex++){\r... */\n      jump(tag_40)\n    tag_41:\n      pop\n        /* \"contracts/FundMe.sol\":1100:1101  0 */\n      0x00\n        /* \"contracts/FundMe.sol\":1086:1102  new address[](0) */\n      0xffffffffffffffff\n      dup2\n      gt\n      iszero\n      tag_49\n      jumpi\n      tag_50\n      tag_51\n      jump\t// in\n    tag_50:\n    tag_49:\n      mload(0x40)\n      swap1\n      dup1\n      dup3\n      mstore\n      dup1\n      0x20\n      mul\n      0x20\n      add\n      dup3\n      add\n      0x40\n      mstore\n      dup1\n      iszero\n      tag_52\n      jumpi\n      dup2\n      0x20\n      add\n      0x20\n      dup3\n      mul\n      dup1\n      calldatasize\n      dup4\n      calldatacopy\n      dup1\n      dup3\n      add\n      swap2\n      pop\n      pop\n      swap1\n      pop\n    tag_52:\n      pop\n        /* \"contracts/FundMe.sol\":1076:1083  funders */\n      0x01\n        /* \"contracts/FundMe.sol\":1076:1102  funders = new address[](0) */\n      swap1\n      dup1\n      mload\n      swap1\n      0x20\n      add\n      swap1\n      tag_53\n      swap3\n      swap2\n      swap1\n      tag_54\n      jump\t// in\n    tag_53:\n      pop\n        /* \"contracts/FundMe.sol\":1653:1669  bool callSuccess */\n      0x00\n        /* \"contracts/FundMe.sol\":1683:1693  msg.sender */\n      caller\n        /* \"contracts/FundMe.sol\":1675:1699  payable(msg.sender).call */\n      0xffffffffffffffffffffffffffffffffffffffff\n      and\n        /* \"contracts/FundMe.sol\":1707:1728  address(this).balance */\n      selfbalance\n        /* \"contracts/FundMe.sol\":1675:1733  payable(msg.sender).call{value: address(this).balance}(\"\") */\n      mload(0x40)\n      tag_55\n      swap1\n      tag_56\n      jump\t// in\n    tag_55:\n      0x00\n      mload(0x40)\n      dup1\n      dup4\n      sub\n      dup2\n      dup6\n      dup8\n      gas\n      call\n      swap3\n      pop\n      pop\n      pop\n      returndatasize\n      dup1\n      0x00\n      dup2\n      eq\n      tag_59\n      jumpi\n      mload(0x40)\n      swap2\n      pop\n      and(add(returndatasize, 0x3f), not(0x1f))\n      dup3\n      add\n      0x40\n      mstore\n      returndatasize\n      dup3\n      mstore\n      returndatasize\n      0x00\n      0x20\n      dup5\n      add\n      returndatacopy\n      jump(tag_58)\n    tag_59:\n      0x60\n      swap2\n      pop\n    tag_58:\n      pop\n        /* \"contracts/FundMe.sol\":1652:1733  (bool callSuccess, ) = payable(msg.sender).call{value: address(this).balance}(\"\") */\n      pop\n      swap1\n      pop\n        /* \"contracts/FundMe.sol\":1756:1767  callSuccess */\n      dup1\n        /* \"contracts/FundMe.sol\":1748:1783  require(callSuccess, \"Send Failed\") */\n      tag_60\n      jumpi\n      mload(0x40)\n      0x08c379a000000000000000000000000000000000000000000000000000000000\n      dup2\n      mstore\n      0x04\n      add\n      tag_61\n      swap1\n      tag_62\n      jump\t// in\n    tag_61:\n      mload(0x40)\n      dup1\n      swap2\n      sub\n      swap1\n      revert\n    tag_60:\n        /* \"contracts/FundMe.sol\":816:1791  {\r... */\n      pop\n        /* \"contracts/FundMe.sol\":780:1791  function withdraw() public onlyOwner{\r... */\n      jump\t// out\n        /* \"contracts/FundMe.sol\":225:280  mapping(address => uint256) public adressToAmountFunded */\n    tag_15:\n      mstore(0x20, 0x02)\n      dup1\n      0x00\n      mstore\n      keccak256(0x00, 0x40)\n      0x00\n      swap2\n      pop\n      swap1\n      pop\n      sload\n      dup2\n      jump\t// out\n        /* \"contracts/FundMe.sol\":289:309  address public owner */\n    tag_20:\n      0x03\n      0x00\n      swap1\n      sload\n      swap1\n      0x0100\n      exp\n      swap1\n      div\n      0xffffffffffffffffffffffffffffffffffffffff\n      and\n      dup2\n      jump\t// out\n        /* \"contracts/FundMe.sol\":374:768  function fund() public payable{\r... */\n    tag_24:\n        /* \"contracts/FundMe.sol\":564:570  minUSD */\n      sload(0x00)\n        /* \"contracts/FundMe.sol\":531:560  msg.value.getConversionRate() */\n      tag_64\n        /* \"contracts/FundMe.sol\":531:540  msg.value */\n      callvalue\n        /* \"contracts/FundMe.sol\":531:558  msg.value.getConversionRate */\n      tag_65\n        /* \"contracts/FundMe.sol\":531:560  msg.value.getConversionRate() */\n      jump\t// in\n    tag_64:\n        /* \"contracts/FundMe.sol\":531:570  msg.value.getConversionRate() >= minUSD */\n      lt\n      iszero\n        /* \"contracts/FundMe.sol\":523:615  require(msg.value.getConversionRate() >= minUSD, \"The amount is less than 1ETH! Try Again.\") */\n      tag_66\n      jumpi\n      mload(0x40)\n      0x08c379a000000000000000000000000000000000000000000000000000000000\n      dup2\n      mstore\n      0x04\n      add\n      tag_67\n      swap1\n      tag_68\n      jump\t// in\n    tag_67:\n      mload(0x40)\n      dup1\n      swap2\n      sub\n      swap1\n      revert\n    tag_66:\n        /* \"contracts/FundMe.sol\":681:688  funders */\n      0x01\n        /* \"contracts/FundMe.sol\":694:704  msg.sender */\n      caller\n        /* \"contracts/FundMe.sol\":681:705  funders.push(msg.sender) */\n      swap1\n      dup1\n      0x01\n      dup2\n      sload\n      add\n      dup1\n      dup3\n      sstore\n      dup1\n      swap2\n      pop\n      pop\n      0x01\n      swap1\n      sub\n      swap1\n      0x00\n      mstore\n      keccak256(0x00, 0x20)\n      add\n      0x00\n      swap1\n      swap2\n      swap1\n      swap2\n      swap1\n      swap2\n      0x0100\n      exp\n      dup2\n      sload\n      dup2\n      0xffffffffffffffffffffffffffffffffffffffff\n      mul\n      not\n      and\n      swap1\n      dup4\n      0xffffffffffffffffffffffffffffffffffffffff\n      and\n      mul\n      or\n      swap1\n      sstore\n      pop\n        /* \"contracts/FundMe.sol\":751:760  msg.value */\n      callvalue\n        /* \"contracts/FundMe.sol\":716:736  adressToAmountFunded */\n      0x02\n        /* \"contracts/FundMe.sol\":716:748  adressToAmountFunded[msg.sender] */\n      0x00\n        /* \"contracts/FundMe.sol\":737:747  msg.sender */\n      caller\n        /* \"contracts/FundMe.sol\":716:748  adressToAmountFunded[msg.sender] */\n      0xffffffffffffffffffffffffffffffffffffffff\n      and\n      0xffffffffffffffffffffffffffffffffffffffff\n      and\n      dup2\n      mstore\n      0x20\n      add\n      swap1\n      dup2\n      mstore\n      0x20\n      add\n      0x00\n      keccak256\n        /* \"contracts/FundMe.sol\":716:760  adressToAmountFunded[msg.sender] = msg.value */\n      dup2\n      swap1\n      sstore\n      pop\n        /* \"contracts/FundMe.sol\":374:768  function fund() public payable{\r... */\n      jump\t// out\n        /* \"contracts/FundMe.sol\":194:218  address[] public funders */\n    tag_29:\n      0x01\n      dup2\n      dup2\n      sload\n      dup2\n      lt\n      tag_70\n      jumpi\n      0x00\n      dup1\n      revert\n    tag_70:\n      swap1\n      0x00\n      mstore\n      keccak256(0x00, 0x20)\n      add\n      0x00\n      swap2\n      pop\n      sload\n      swap1\n      0x0100\n      exp\n      swap1\n      div\n      0xffffffffffffffffffffffffffffffffffffffff\n      and\n      dup2\n      jump\t// out\n        /* \"contracts/FundMe.sol\":154:187  uint256 public minUSD = 50 * 1e18 */\n    tag_33:\n      sload(0x00)\n      dup2\n      jump\t// out\n        /* \"contracts/PriceConverter.sol\":1402:1624  function getConversionRate(uint256 ethAmount) internal view returns(uint256) {\r... */\n    tag_65:\n        /* \"contracts/PriceConverter.sol\":1470:1477  uint256 */\n      0x00\n        /* \"contracts/PriceConverter.sol\":1490:1506  uint256 ethPrice */\n      dup1\n        /* \"contracts/PriceConverter.sol\":1509:1519  getPrice() */\n      tag_73\n        /* \"contracts/PriceConverter.sol\":1509:1517  getPrice */\n      tag_74\n        /* \"contracts/PriceConverter.sol\":1509:1519  getPrice() */\n      jump\t// in\n    tag_73:\n        /* \"contracts/PriceConverter.sol\":1490:1519  uint256 ethPrice = getPrice() */\n      swap1\n      pop\n        /* \"contracts/PriceConverter.sol\":1530:1552  uint256 ethAmountInUSD */\n      0x00\n        /* \"contracts/PriceConverter.sol\":1580:1584  1e18 */\n      0x0de0b6b3a7640000\n        /* \"contracts/PriceConverter.sol\":1567:1576  ethAmount */\n      dup5\n        /* \"contracts/PriceConverter.sol\":1556:1564  ethPrice */\n      dup4\n        /* \"contracts/PriceConverter.sol\":1556:1576  ethPrice * ethAmount */\n      tag_75\n      swap2\n      swap1\n      tag_76\n      jump\t// in\n    tag_75:\n        /* \"contracts/PriceConverter.sol\":1555:1584  (ethPrice * ethAmount) / 1e18 */\n      tag_77\n      swap2\n      swap1\n      tag_78\n      jump\t// in\n    tag_77:\n        /* \"contracts/PriceConverter.sol\":1530:1584  uint256 ethAmountInUSD = (ethPrice * ethAmount) / 1e18 */\n      swap1\n      pop\n        /* \"contracts/PriceConverter.sol\":1602:1616  ethAmountInUSD */\n      dup1\n        /* \"contracts/PriceConverter.sol\":1595:1616  return ethAmountInUSD */\n      swap3\n      pop\n      pop\n      pop\n        /* \"contracts/PriceConverter.sol\":1402:1624  function getConversionRate(uint256 ethAmount) internal view returns(uint256) {\r... */\n      swap2\n      swap1\n      pop\n      jump\t// out\n        /* \"contracts/PriceConverter.sol\":812:1394  function getPrice() internal view returns(uint256){\r... */\n    tag_74:\n        /* \"contracts/PriceConverter.sol\":854:861  uint256 */\n      0x00\n        /* \"contracts/PriceConverter.sol\":1147:1178  AggregatorV3Interface priceFeed */\n      dup1\n        /* \"contracts/PriceConverter.sol\":1203:1245  0xD4a33860578De61DBAbDc8BFdb98FD742fA7028e */\n      0xd4a33860578de61dbabdc8bfdb98fd742fa7028e\n        /* \"contracts/PriceConverter.sol\":1147:1246  AggregatorV3Interface priceFeed = AggregatorV3Interface(0xD4a33860578De61DBAbDc8BFdb98FD742fA7028e) */\n      swap1\n      pop\n        /* \"contracts/PriceConverter.sol\":1259:1268  int price */\n      0x00\n        /* \"contracts/PriceConverter.sol\":1275:1284  priceFeed */\n      dup2\n        /* \"contracts/PriceConverter.sol\":1275:1300  priceFeed.latestRoundData */\n      0xffffffffffffffffffffffffffffffffffffffff\n      and\n      0xfeaf968c\n        /* \"contracts/PriceConverter.sol\":1275:1302  priceFeed.latestRoundData() */\n      mload(0x40)\n      dup2\n      0xffffffff\n      and\n      0xe0\n      shl\n      dup2\n      mstore\n      0x04\n      add\n      0xa0\n      mload(0x40)\n      dup1\n      dup4\n      sub\n      dup2\n      dup7\n      dup1\n      extcodesize\n      iszero\n      dup1\n      iszero\n      tag_80\n      jumpi\n      0x00\n      dup1\n      revert\n    tag_80:\n      pop\n      gas\n      staticcall\n      iszero\n      dup1\n      iszero\n      tag_82\n      jumpi\n      returndatasize\n      0x00\n      dup1\n      returndatacopy\n      revert(0x00, returndatasize)\n    tag_82:\n      pop\n      pop\n      pop\n      pop\n      mload(0x40)\n      returndatasize\n      not(0x1f)\n      0x1f\n      dup3\n      add\n      and\n      dup3\n      add\n      dup1\n      0x40\n      mstore\n      pop\n      dup2\n      add\n      swap1\n      tag_83\n      swap2\n      swap1\n      tag_84\n      jump\t// in\n    tag_83:\n        /* \"contracts/PriceConverter.sol\":1257:1302  (,int price,,,) = priceFeed.latestRoundData() */\n      pop\n      pop\n      pop\n      swap2\n      pop\n      pop\n        /* \"contracts/PriceConverter.sol\":1358:1362  1e10 */\n      0x02540be400\n        /* \"contracts/PriceConverter.sol\":1350:1355  price */\n      dup2\n        /* \"contracts/PriceConverter.sol\":1350:1362  price * 1e10 */\n      tag_85\n      swap2\n      swap1\n      tag_86\n      jump\t// in\n    tag_85:\n        /* \"contracts/PriceConverter.sol\":1335:1363  return uint256(price * 1e10) */\n      swap3\n      pop\n      pop\n      pop\n        /* \"contracts/PriceConverter.sol\":812:1394  function getPrice() internal view returns(uint256){\r... */\n      swap1\n      jump\t// out\n    tag_54:\n      dup3\n      dup1\n      sload\n      dup3\n      dup3\n      sstore\n      swap1\n      0x00\n      mstore\n      keccak256(0x00, 0x20)\n      swap1\n      dup2\n      add\n      swap3\n      dup3\n      iszero\n      tag_87\n      jumpi\n      swap2\n      0x20\n      mul\n      dup3\n      add\n    tag_88:\n      dup3\n      dup2\n      gt\n      iszero\n      tag_89\n      jumpi\n      dup3\n      mload\n      dup3\n      exp(0x0100, 0x00)\n      dup2\n      sload\n      dup2\n      0xffffffffffffffffffffffffffffffffffffffff\n      mul\n      not\n      and\n      swap1\n      dup4\n      0xffffffffffffffffffffffffffffffffffffffff\n      and\n      mul\n      or\n      swap1\n      sstore\n      pop\n      swap2\n      0x20\n      add\n      swap2\n      swap1\n      0x01\n      add\n      swap1\n      jump(tag_88)\n    tag_89:\n    tag_87:\n      pop\n      swap1\n      pop\n      tag_90\n      swap2\n      swap1\n      tag_91\n      jump\t// in\n    tag_90:\n      pop\n      swap1\n      jump\t// out\n    tag_91:\n    tag_92:\n      dup1\n      dup3\n      gt\n      iszero\n      tag_93\n      jumpi\n      0x00\n      dup2\n      0x00\n      swap1\n      sstore\n      pop\n      0x01\n      add\n      jump(tag_92)\n    tag_93:\n      pop\n      swap1\n      jump\t// out\n        /* \"#utility.yul\":7:146   */\n    tag_95:\n        /* \"#utility.yul\":53:58   */\n      0x00\n        /* \"#utility.yul\":91:97   */\n      dup2\n        /* \"#utility.yul\":78:98   */\n      calldataload\n        /* \"#utility.yul\":69:98   */\n      swap1\n      pop\n        /* \"#utility.yul\":107:140   */\n      tag_97\n        /* \"#utility.yul\":134:139   */\n      dup2\n        /* \"#utility.yul\":107:140   */\n      tag_98\n      jump\t// in\n    tag_97:\n        /* \"#utility.yul\":7:146   */\n      swap3\n      swap2\n      pop\n      pop\n      jump\t// out\n        /* \"#utility.yul\":152:293   */\n    tag_99:\n        /* \"#utility.yul\":208:213   */\n      0x00\n        /* \"#utility.yul\":239:245   */\n      dup2\n        /* \"#utility.yul\":233:246   */\n      mload\n        /* \"#utility.yul\":224:246   */\n      swap1\n      pop\n        /* \"#utility.yul\":255:287   */\n      tag_101\n        /* \"#utility.yul\":281:286   */\n      dup2\n        /* \"#utility.yul\":255:287   */\n      tag_102\n      jump\t// in\n    tag_101:\n        /* \"#utility.yul\":152:293   */\n      swap3\n      swap2\n      pop\n      pop\n      jump\t// out\n        /* \"#utility.yul\":299:438   */\n    tag_103:\n        /* \"#utility.yul\":345:350   */\n      0x00\n        /* \"#utility.yul\":383:389   */\n      dup2\n        /* \"#utility.yul\":370:390   */\n      calldataload\n        /* \"#utility.yul\":361:390   */\n      swap1\n      pop\n        /* \"#utility.yul\":399:432   */\n      tag_105\n        /* \"#utility.yul\":426:431   */\n      dup2\n        /* \"#utility.yul\":399:432   */\n      tag_106\n      jump\t// in\n    tag_105:\n        /* \"#utility.yul\":299:438   */\n      swap3\n      swap2\n      pop\n      pop\n      jump\t// out\n        /* \"#utility.yul\":444:587   */\n    tag_107:\n        /* \"#utility.yul\":501:506   */\n      0x00\n        /* \"#utility.yul\":532:538   */\n      dup2\n        /* \"#utility.yul\":526:539   */\n      mload\n        /* \"#utility.yul\":517:539   */\n      swap1\n      pop\n        /* \"#utility.yul\":548:581   */\n      tag_109\n        /* \"#utility.yul\":575:580   */\n      dup2\n        /* \"#utility.yul\":548:581   */\n      tag_106\n      jump\t// in\n    tag_109:\n        /* \"#utility.yul\":444:587   */\n      swap3\n      swap2\n      pop\n      pop\n      jump\t// out\n        /* \"#utility.yul\":593:734   */\n    tag_110:\n        /* \"#utility.yul\":649:654   */\n      0x00\n        /* \"#utility.yul\":680:686   */\n      dup2\n        /* \"#utility.yul\":674:687   */\n      mload\n        /* \"#utility.yul\":665:687   */\n      swap1\n      pop\n        /* \"#utility.yul\":696:728   */\n      tag_112\n        /* \"#utility.yul\":722:727   */\n      dup2\n        /* \"#utility.yul\":696:728   */\n      tag_113\n      jump\t// in\n    tag_112:\n        /* \"#utility.yul\":593:734   */\n      swap3\n      swap2\n      pop\n      pop\n      jump\t// out\n        /* \"#utility.yul\":740:1069   */\n    tag_14:\n        /* \"#utility.yul\":799:805   */\n      0x00\n        /* \"#utility.yul\":848:850   */\n      0x20\n        /* \"#utility.yul\":836:845   */\n      dup3\n        /* \"#utility.yul\":827:834   */\n      dup5\n        /* \"#utility.yul\":823:846   */\n      sub\n        /* \"#utility.yul\":819:851   */\n      slt\n        /* \"#utility.yul\":816:935   */\n      iszero\n      tag_115\n      jumpi\n        /* \"#utility.yul\":854:933   */\n      tag_116\n      tag_117\n      jump\t// in\n    tag_116:\n        /* \"#utility.yul\":816:935   */\n    tag_115:\n        /* \"#utility.yul\":974:975   */\n      0x00\n        /* \"#utility.yul\":999:1052   */\n      tag_118\n        /* \"#utility.yul\":1044:1051   */\n      dup5\n        /* \"#utility.yul\":1035:1041   */\n      dup3\n        /* \"#utility.yul\":1024:1033   */\n      dup6\n        /* \"#utility.yul\":1020:1042   */\n      add\n        /* \"#utility.yul\":999:1052   */\n      tag_95\n      jump\t// in\n    tag_118:\n        /* \"#utility.yul\":989:1052   */\n      swap2\n      pop\n        /* \"#utility.yul\":945:1062   */\n      pop\n        /* \"#utility.yul\":740:1069   */\n      swap3\n      swap2\n      pop\n      pop\n      jump\t// out\n        /* \"#utility.yul\":1075:1404   */\n    tag_28:\n        /* \"#utility.yul\":1134:1140   */\n      0x00\n        /* \"#utility.yul\":1183:1185   */\n      0x20\n        /* \"#utility.yul\":1171:1180   */\n      dup3\n        /* \"#utility.yul\":1162:1169   */\n      dup5\n        /* \"#utility.yul\":1158:1181   */\n      sub\n        /* \"#utility.yul\":1154:1186   */\n      slt\n        /* \"#utility.yul\":1151:1270   */\n      iszero\n      tag_120\n      jumpi\n        /* \"#utility.yul\":1189:1268   */\n      tag_121\n      tag_117\n      jump\t// in\n    tag_121:\n        /* \"#utility.yul\":1151:1270   */\n    tag_120:\n        /* \"#utility.yul\":1309:1310   */\n      0x00\n        /* \"#utility.yul\":1334:1387   */\n      tag_122\n        /* \"#utility.yul\":1379:1386   */\n      dup5\n        /* \"#utility.yul\":1370:1376   */\n      dup3\n        /* \"#utility.yul\":1359:1368   */\n      dup6\n        /* \"#utility.yul\":1355:1377   */\n      add\n        /* \"#utility.yul\":1334:1387   */\n      tag_103\n      jump\t// in\n    tag_122:\n        /* \"#utility.yul\":1324:1387   */\n      swap2\n      pop\n        /* \"#utility.yul\":1280:1397   */\n      pop\n        /* \"#utility.yul\":1075:1404   */\n      swap3\n      swap2\n      pop\n      pop\n      jump\t// out\n        /* \"#utility.yul\":1410:2381   */\n    tag_84:\n        /* \"#utility.yul\":1513:1519   */\n      0x00\n        /* \"#utility.yul\":1521:1527   */\n      dup1\n        /* \"#utility.yul\":1529:1535   */\n      0x00\n        /* \"#utility.yul\":1537:1543   */\n      dup1\n        /* \"#utility.yul\":1545:1551   */\n      0x00\n        /* \"#utility.yul\":1594:1597   */\n      0xa0\n        /* \"#utility.yul\":1582:1591   */\n      dup7\n        /* \"#utility.yul\":1573:1580   */\n      dup9\n        /* \"#utility.yul\":1569:1592   */\n      sub\n        /* \"#utility.yul\":1565:1598   */\n      slt\n        /* \"#utility.yul\":1562:1682   */\n      iszero\n      tag_124\n      jumpi\n        /* \"#utility.yul\":1601:1680   */\n      tag_125\n      tag_117\n      jump\t// in\n    tag_125:\n        /* \"#utility.yul\":1562:1682   */\n    tag_124:\n        /* \"#utility.yul\":1721:1722   */\n      0x00\n        /* \"#utility.yul\":1746:1809   */\n      tag_126\n        /* \"#utility.yul\":1801:1808   */\n      dup9\n        /* \"#utility.yul\":1792:1798   */\n      dup3\n        /* \"#utility.yul\":1781:1790   */\n      dup10\n        /* \"#utility.yul\":1777:1799   */\n      add\n        /* \"#utility.yul\":1746:1809   */\n      tag_110\n      jump\t// in\n    tag_126:\n        /* \"#utility.yul\":1736:1809   */\n      swap6\n      pop\n        /* \"#utility.yul\":1692:1819   */\n      pop\n        /* \"#utility.yul\":1858:1860   */\n      0x20\n        /* \"#utility.yul\":1884:1947   */\n      tag_127\n        /* \"#utility.yul\":1939:1946   */\n      dup9\n        /* \"#utility.yul\":1930:1936   */\n      dup3\n        /* \"#utility.yul\":1919:1928   */\n      dup10\n        /* \"#utility.yul\":1915:1937   */\n      add\n        /* \"#utility.yul\":1884:1947   */\n      tag_99\n      jump\t// in\n    tag_127:\n        /* \"#utility.yul\":1874:1947   */\n      swap5\n      pop\n        /* \"#utility.yul\":1829:1957   */\n      pop\n        /* \"#utility.yul\":1996:1998   */\n      0x40\n        /* \"#utility.yul\":2022:2086   */\n      tag_128\n        /* \"#utility.yul\":2078:2085   */\n      dup9\n        /* \"#utility.yul\":2069:2075   */\n      dup3\n        /* \"#utility.yul\":2058:2067   */\n      dup10\n        /* \"#utility.yul\":2054:2076   */\n      add\n        /* \"#utility.yul\":2022:2086   */\n      tag_107\n      jump\t// in\n    tag_128:\n        /* \"#utility.yul\":2012:2086   */\n      swap4\n      pop\n        /* \"#utility.yul\":1967:2096   */\n      pop\n        /* \"#utility.yul\":2135:2137   */\n      0x60\n        /* \"#utility.yul\":2161:2225   */\n      tag_129\n        /* \"#utility.yul\":2217:2224   */\n      dup9\n        /* \"#utility.yul\":2208:2214   */\n      dup3\n        /* \"#utility.yul\":2197:2206   */\n      dup10\n        /* \"#utility.yul\":2193:2215   */\n      add\n        /* \"#utility.yul\":2161:2225   */\n      tag_107\n      jump\t// in\n    tag_129:\n        /* \"#utility.yul\":2151:2225   */\n      swap3\n      pop\n        /* \"#utility.yul\":2106:2235   */\n      pop\n        /* \"#utility.yul\":2274:2277   */\n      0x80\n        /* \"#utility.yul\":2301:2364   */\n      tag_130\n        /* \"#utility.yul\":2356:2363   */\n      dup9\n        /* \"#utility.yul\":2347:2353   */\n      dup3\n        /* \"#utility.yul\":2336:2345   */\n      dup10\n        /* \"#utility.yul\":2332:2354   */\n      add\n        /* \"#utility.yul\":2301:2364   */\n      tag_110\n      jump\t// in\n    tag_130:\n        /* \"#utility.yul\":2291:2364   */\n      swap2\n      pop\n        /* \"#utility.yul\":2245:2374   */\n      pop\n        /* \"#utility.yul\":1410:2381   */\n      swap3\n      swap6\n      pop\n      swap3\n      swap6\n      swap1\n      swap4\n      pop\n      jump\t// out\n        /* \"#utility.yul\":2387:2505   */\n    tag_131:\n        /* \"#utility.yul\":2474:2498   */\n      tag_133\n        /* \"#utility.yul\":2492:2497   */\n      dup2\n        /* \"#utility.yul\":2474:2498   */\n      tag_134\n      jump\t// in\n    tag_133:\n        /* \"#utility.yul\":2469:2472   */\n      dup3\n        /* \"#utility.yul\":2462:2499   */\n      mstore\n        /* \"#utility.yul\":2387:2505   */\n      pop\n      pop\n      jump\t// out\n        /* \"#utility.yul\":2511:2877   */\n    tag_135:\n        /* \"#utility.yul\":2653:2656   */\n      0x00\n        /* \"#utility.yul\":2674:2741   */\n      tag_137\n        /* \"#utility.yul\":2738:2740   */\n      0x28\n        /* \"#utility.yul\":2733:2736   */\n      dup4\n        /* \"#utility.yul\":2674:2741   */\n      tag_138\n      jump\t// in\n    tag_137:\n        /* \"#utility.yul\":2667:2741   */\n      swap2\n      pop\n        /* \"#utility.yul\":2750:2843   */\n      tag_139\n        /* \"#utility.yul\":2839:2842   */\n      dup3\n        /* \"#utility.yul\":2750:2843   */\n      tag_140\n      jump\t// in\n    tag_139:\n        /* \"#utility.yul\":2868:2870   */\n      0x40\n        /* \"#utility.yul\":2863:2866   */\n      dup3\n        /* \"#utility.yul\":2859:2871   */\n      add\n        /* \"#utility.yul\":2852:2871   */\n      swap1\n      pop\n        /* \"#utility.yul\":2511:2877   */\n      swap2\n      swap1\n      pop\n      jump\t// out\n        /* \"#utility.yul\":2883:3249   */\n    tag_141:\n        /* \"#utility.yul\":3025:3028   */\n      0x00\n        /* \"#utility.yul\":3046:3113   */\n      tag_143\n        /* \"#utility.yul\":3110:3112   */\n      0x16\n        /* \"#utility.yul\":3105:3108   */\n      dup4\n        /* \"#utility.yul\":3046:3113   */\n      tag_138\n      jump\t// in\n    tag_143:\n        /* \"#utility.yul\":3039:3113   */\n      swap2\n      pop\n        /* \"#utility.yul\":3122:3215   */\n      tag_144\n        /* \"#utility.yul\":3211:3214   */\n      dup3\n        /* \"#utility.yul\":3122:3215   */\n      tag_145\n      jump\t// in\n    tag_144:\n        /* \"#utility.yul\":3240:3242   */\n      0x20\n        /* \"#utility.yul\":3235:3238   */\n      dup3\n        /* \"#utility.yul\":3231:3243   */\n      add\n        /* \"#utility.yul\":3224:3243   */\n      swap1\n      pop\n        /* \"#utility.yul\":2883:3249   */\n      swap2\n      swap1\n      pop\n      jump\t// out\n        /* \"#utility.yul\":3255:3621   */\n    tag_146:\n        /* \"#utility.yul\":3397:3400   */\n      0x00\n        /* \"#utility.yul\":3418:3485   */\n      tag_148\n        /* \"#utility.yul\":3482:3484   */\n      0x0b\n        /* \"#utility.yul\":3477:3480   */\n      dup4\n        /* \"#utility.yul\":3418:3485   */\n      tag_138\n      jump\t// in\n    tag_148:\n        /* \"#utility.yul\":3411:3485   */\n      swap2\n      pop\n        /* \"#utility.yul\":3494:3587   */\n      tag_149\n        /* \"#utility.yul\":3583:3586   */\n      dup3\n        /* \"#utility.yul\":3494:3587   */\n      tag_150\n      jump\t// in\n    tag_149:\n        /* \"#utility.yul\":3612:3614   */\n      0x20\n        /* \"#utility.yul\":3607:3610   */\n      dup3\n        /* \"#utility.yul\":3603:3615   */\n      add\n        /* \"#utility.yul\":3596:3615   */\n      swap1\n      pop\n        /* \"#utility.yul\":3255:3621   */\n      swap2\n      swap1\n      pop\n      jump\t// out\n        /* \"#utility.yul\":3627:4025   */\n    tag_151:\n        /* \"#utility.yul\":3786:3789   */\n      0x00\n        /* \"#utility.yul\":3807:3890   */\n      tag_153\n        /* \"#utility.yul\":3888:3889   */\n      0x00\n        /* \"#utility.yul\":3883:3886   */\n      dup4\n        /* \"#utility.yul\":3807:3890   */\n      tag_154\n      jump\t// in\n    tag_153:\n        /* \"#utility.yul\":3800:3890   */\n      swap2\n      pop\n        /* \"#utility.yul\":3899:3992   */\n      tag_155\n        /* \"#utility.yul\":3988:3991   */\n      dup3\n        /* \"#utility.yul\":3899:3992   */\n      tag_156\n      jump\t// in\n    tag_155:\n        /* \"#utility.yul\":4017:4018   */\n      0x00\n        /* \"#utility.yul\":4012:4015   */\n      dup3\n        /* \"#utility.yul\":4008:4019   */\n      add\n        /* \"#utility.yul\":4001:4019   */\n      swap1\n      pop\n        /* \"#utility.yul\":3627:4025   */\n      swap2\n      swap1\n      pop\n      jump\t// out\n        /* \"#utility.yul\":4031:4149   */\n    tag_157:\n        /* \"#utility.yul\":4118:4142   */\n      tag_159\n        /* \"#utility.yul\":4136:4141   */\n      dup2\n        /* \"#utility.yul\":4118:4142   */\n      tag_160\n      jump\t// in\n    tag_159:\n        /* \"#utility.yul\":4113:4116   */\n      dup3\n        /* \"#utility.yul\":4106:4143   */\n      mstore\n        /* \"#utility.yul\":4031:4149   */\n      pop\n      pop\n      jump\t// out\n        /* \"#utility.yul\":4155:4534   */\n    tag_56:\n        /* \"#utility.yul\":4339:4342   */\n      0x00\n        /* \"#utility.yul\":4361:4508   */\n      tag_162\n        /* \"#utility.yul\":4504:4507   */\n      dup3\n        /* \"#utility.yul\":4361:4508   */\n      tag_151\n      jump\t// in\n    tag_162:\n        /* \"#utility.yul\":4354:4508   */\n      swap2\n      pop\n        /* \"#utility.yul\":4525:4528   */\n      dup2\n        /* \"#utility.yul\":4518:4528   */\n      swap1\n      pop\n        /* \"#utility.yul\":4155:4534   */\n      swap2\n      swap1\n      pop\n      jump\t// out\n        /* \"#utility.yul\":4540:4762   */\n    tag_22:\n        /* \"#utility.yul\":4633:4637   */\n      0x00\n        /* \"#utility.yul\":4671:4673   */\n      0x20\n        /* \"#utility.yul\":4660:4669   */\n      dup3\n        /* \"#utility.yul\":4656:4674   */\n      add\n        /* \"#utility.yul\":4648:4674   */\n      swap1\n      pop\n        /* \"#utility.yul\":4684:4755   */\n      tag_164\n        /* \"#utility.yul\":4752:4753   */\n      0x00\n        /* \"#utility.yul\":4741:4750   */\n      dup4\n        /* \"#utility.yul\":4737:4754   */\n      add\n        /* \"#utility.yul\":4728:4734   */\n      dup5\n        /* \"#utility.yul\":4684:4755   */\n      tag_131\n      jump\t// in\n    tag_164:\n        /* \"#utility.yul\":4540:4762   */\n      swap3\n      swap2\n      pop\n      pop\n      jump\t// out\n        /* \"#utility.yul\":4768:5187   */\n    tag_68:\n        /* \"#utility.yul\":4934:4938   */\n      0x00\n        /* \"#utility.yul\":4972:4974   */\n      0x20\n        /* \"#utility.yul\":4961:4970   */\n      dup3\n        /* \"#utility.yul\":4957:4975   */\n      add\n        /* \"#utility.yul\":4949:4975   */\n      swap1\n      pop\n        /* \"#utility.yul\":5021:5030   */\n      dup2\n        /* \"#utility.yul\":5015:5019   */\n      dup2\n        /* \"#utility.yul\":5011:5031   */\n      sub\n        /* \"#utility.yul\":5007:5008   */\n      0x00\n        /* \"#utility.yul\":4996:5005   */\n      dup4\n        /* \"#utility.yul\":4992:5009   */\n      add\n        /* \"#utility.yul\":4985:5032   */\n      mstore\n        /* \"#utility.yul\":5049:5180   */\n      tag_166\n        /* \"#utility.yul\":5175:5179   */\n      dup2\n        /* \"#utility.yul\":5049:5180   */\n      tag_135\n      jump\t// in\n    tag_166:\n        /* \"#utility.yul\":5041:5180   */\n      swap1\n      pop\n        /* \"#utility.yul\":4768:5187   */\n      swap2\n      swap1\n      pop\n      jump\t// out\n        /* \"#utility.yul\":5193:5612   */\n    tag_38:\n        /* \"#utility.yul\":5359:5363   */\n      0x00\n        /* \"#utility.yul\":5397:5399   */\n      0x20\n        /* \"#utility.yul\":5386:5395   */\n      dup3\n        /* \"#utility.yul\":5382:5400   */\n      add\n        /* \"#utility.yul\":5374:5400   */\n      swap1\n      pop\n        /* \"#utility.yul\":5446:5455   */\n      dup2\n        /* \"#utility.yul\":5440:5444   */\n      dup2\n        /* \"#utility.yul\":5436:5456   */\n      sub\n        /* \"#utility.yul\":5432:5433   */\n      0x00\n        /* \"#utility.yul\":5421:5430   */\n      dup4\n        /* \"#utility.yul\":5417:5434   */\n      add\n        /* \"#utility.yul\":5410:5457   */\n      mstore\n        /* \"#utility.yul\":5474:5605   */\n      tag_168\n        /* \"#utility.yul\":5600:5604   */\n      dup2\n        /* \"#utility.yul\":5474:5605   */\n      tag_141\n      jump\t// in\n    tag_168:\n        /* \"#utility.yul\":5466:5605   */\n      swap1\n      pop\n        /* \"#utility.yul\":5193:5612   */\n      swap2\n      swap1\n      pop\n      jump\t// out\n        /* \"#utility.yul\":5618:6037   */\n    tag_62:\n        /* \"#utility.yul\":5784:5788   */\n      0x00\n        /* \"#utility.yul\":5822:5824   */\n      0x20\n        /* \"#utility.yul\":5811:5820   */\n      dup3\n        /* \"#utility.yul\":5807:5825   */\n      add\n        /* \"#utility.yul\":5799:5825   */\n      swap1\n      pop\n        /* \"#utility.yul\":5871:5880   */\n      dup2\n        /* \"#utility.yul\":5865:5869   */\n      dup2\n        /* \"#utility.yul\":5861:5881   */\n      sub\n        /* \"#utility.yul\":5857:5858   */\n      0x00\n        /* \"#utility.yul\":5846:5855   */\n      dup4\n        /* \"#utility.yul\":5842:5859   */\n      add\n        /* \"#utility.yul\":5835:5882   */\n      mstore\n        /* \"#utility.yul\":5899:6030   */\n      tag_170\n        /* \"#utility.yul\":6025:6029   */\n      dup2\n        /* \"#utility.yul\":5899:6030   */\n      tag_146\n      jump\t// in\n    tag_170:\n        /* \"#utility.yul\":5891:6030   */\n      swap1\n      pop\n        /* \"#utility.yul\":5618:6037   */\n      swap2\n      swap1\n      pop\n      jump\t// out\n        /* \"#utility.yul\":6043:6265   */\n    tag_17:\n        /* \"#utility.yul\":6136:6140   */\n      0x00\n        /* \"#utility.yul\":6174:6176   */\n      0x20\n        /* \"#utility.yul\":6163:6172   */\n      dup3\n        /* \"#utility.yul\":6159:6177   */\n      add\n        /* \"#utility.yul\":6151:6177   */\n      swap1\n      pop\n        /* \"#utility.yul\":6187:6258   */\n      tag_172\n        /* \"#utility.yul\":6255:6256   */\n      0x00\n        /* \"#utility.yul\":6244:6253   */\n      dup4\n        /* \"#utility.yul\":6240:6257   */\n      add\n        /* \"#utility.yul\":6231:6237   */\n      dup5\n        /* \"#utility.yul\":6187:6258   */\n      tag_157\n      jump\t// in\n    tag_172:\n        /* \"#utility.yul\":6043:6265   */\n      swap3\n      swap2\n      pop\n      pop\n      jump\t// out\n        /* \"#utility.yul\":6352:6499   */\n    tag_154:\n        /* \"#utility.yul\":6453:6464   */\n      0x00\n        /* \"#utility.yul\":6490:6493   */\n      dup2\n        /* \"#utility.yul\":6475:6493   */\n      swap1\n      pop\n        /* \"#utility.yul\":6352:6499   */\n      swap3\n      swap2\n      pop\n      pop\n      jump\t// out\n        /* \"#utility.yul\":6505:6674   */\n    tag_138:\n        /* \"#utility.yul\":6589:6600   */\n      0x00\n        /* \"#utility.yul\":6623:6629   */\n      dup3\n        /* \"#utility.yul\":6618:6621   */\n      dup3\n        /* \"#utility.yul\":6611:6630   */\n      mstore\n        /* \"#utility.yul\":6663:6667   */\n      0x20\n        /* \"#utility.yul\":6658:6661   */\n      dup3\n        /* \"#utility.yul\":6654:6668   */\n      add\n        /* \"#utility.yul\":6639:6668   */\n      swap1\n      pop\n        /* \"#utility.yul\":6505:6674   */\n      swap3\n      swap2\n      pop\n      pop\n      jump\t// out\n        /* \"#utility.yul\":6680:6865   */\n    tag_78:\n        /* \"#utility.yul\":6720:6721   */\n      0x00\n        /* \"#utility.yul\":6737:6757   */\n      tag_178\n        /* \"#utility.yul\":6755:6756   */\n      dup3\n        /* \"#utility.yul\":6737:6757   */\n      tag_160\n      jump\t// in\n    tag_178:\n        /* \"#utility.yul\":6732:6757   */\n      swap2\n      pop\n        /* \"#utility.yul\":6771:6791   */\n      tag_179\n        /* \"#utility.yul\":6789:6790   */\n      dup4\n        /* \"#utility.yul\":6771:6791   */\n      tag_160\n      jump\t// in\n    tag_179:\n        /* \"#utility.yul\":6766:6791   */\n      swap3\n      pop\n        /* \"#utility.yul\":6810:6811   */\n      dup3\n        /* \"#utility.yul\":6800:6835   */\n      tag_180\n      jumpi\n        /* \"#utility.yul\":6815:6833   */\n      tag_181\n      tag_182\n      jump\t// in\n    tag_181:\n        /* \"#utility.yul\":6800:6835   */\n    tag_180:\n        /* \"#utility.yul\":6857:6858   */\n      dup3\n        /* \"#utility.yul\":6854:6855   */\n      dup3\n        /* \"#utility.yul\":6850:6859   */\n      div\n        /* \"#utility.yul\":6845:6859   */\n      swap1\n      pop\n        /* \"#utility.yul\":6680:6865   */\n      swap3\n      swap2\n      pop\n      pop\n      jump\t// out\n        /* \"#utility.yul\":6871:7862   */\n    tag_86:\n        /* \"#utility.yul\":6910:6917   */\n      0x00\n        /* \"#utility.yul\":6933:6952   */\n      tag_184\n        /* \"#utility.yul\":6950:6951   */\n      dup3\n        /* \"#utility.yul\":6933:6952   */\n      tag_185\n      jump\t// in\n    tag_184:\n        /* \"#utility.yul\":6928:6952   */\n      swap2\n      pop\n        /* \"#utility.yul\":6966:6985   */\n      tag_186\n        /* \"#utility.yul\":6983:6984   */\n      dup4\n        /* \"#utility.yul\":6966:6985   */\n      tag_185\n      jump\t// in\n    tag_186:\n        /* \"#utility.yul\":6961:6985   */\n      swap3\n      pop\n        /* \"#utility.yul\":7167:7168   */\n      dup3\n        /* \"#utility.yul\":7099:7165   */\n      0x7fffffffffffffffffffffffffffffffffffffffffffffffffffffffffffffff\n        /* \"#utility.yul\":7095:7169   */\n      div\n        /* \"#utility.yul\":7092:7093   */\n      dup3\n        /* \"#utility.yul\":7089:7170   */\n      gt\n        /* \"#utility.yul\":7084:7085   */\n      0x00\n        /* \"#utility.yul\":7081:7082   */\n      dup5\n        /* \"#utility.yul\":7077:7086   */\n      sgt\n        /* \"#utility.yul\":7073:7074   */\n      0x00\n        /* \"#utility.yul\":7070:7071   */\n      dup5\n        /* \"#utility.yul\":7066:7075   */\n      sgt\n        /* \"#utility.yul\":7062:7087   */\n      and\n        /* \"#utility.yul\":7058:7171   */\n      and\n        /* \"#utility.yul\":7055:7194   */\n      iszero\n      tag_187\n      jumpi\n        /* \"#utility.yul\":7174:7192   */\n      tag_188\n      tag_189\n      jump\t// in\n    tag_188:\n        /* \"#utility.yul\":7055:7194   */\n    tag_187:\n        /* \"#utility.yul\":7378:7379   */\n      dup2\n        /* \"#utility.yul\":7310:7376   */\n      0x8000000000000000000000000000000000000000000000000000000000000000\n        /* \"#utility.yul\":7305:7380   */\n      sdiv\n        /* \"#utility.yul\":7302:7303   */\n      dup4\n        /* \"#utility.yul\":7298:7381   */\n      slt\n        /* \"#utility.yul\":7293:7294   */\n      0x00\n        /* \"#utility.yul\":7290:7291   */\n      dup5\n        /* \"#utility.yul\":7286:7295   */\n      slt\n        /* \"#utility.yul\":7282:7283   */\n      0x00\n        /* \"#utility.yul\":7279:7280   */\n      dup5\n        /* \"#utility.yul\":7275:7284   */\n      sgt\n        /* \"#utility.yul\":7271:7296   */\n      and\n        /* \"#utility.yul\":7267:7382   */\n      and\n        /* \"#utility.yul\":7264:7405   */\n      iszero\n      tag_190\n      jumpi\n        /* \"#utility.yul\":7385:7403   */\n      tag_191\n      tag_189\n      jump\t// in\n    tag_191:\n        /* \"#utility.yul\":7264:7405   */\n    tag_190:\n        /* \"#utility.yul\":7589:7590   */\n      dup3\n        /* \"#utility.yul\":7521:7587   */\n      0x8000000000000000000000000000000000000000000000000000000000000000\n        /* \"#utility.yul\":7516:7591   */\n      sdiv\n        /* \"#utility.yul\":7513:7514   */\n      dup3\n        /* \"#utility.yul\":7509:7592   */\n      slt\n        /* \"#utility.yul\":7504:7505   */\n      0x00\n        /* \"#utility.yul\":7501:7502   */\n      dup5\n        /* \"#utility.yul\":7497:7506   */\n      sgt\n        /* \"#utility.yul\":7493:7494   */\n      0x00\n        /* \"#utility.yul\":7490:7491   */\n      dup5\n        /* \"#utility.yul\":7486:7495   */\n      slt\n        /* \"#utility.yul\":7482:7507   */\n      and\n        /* \"#utility.yul\":7478:7593   */\n      and\n        /* \"#utility.yul\":7475:7616   */\n      iszero\n      tag_192\n      jumpi\n        /* \"#utility.yul\":7596:7614   */\n      tag_193\n      tag_189\n      jump\t// in\n    tag_193:\n        /* \"#utility.yul\":7475:7616   */\n    tag_192:\n        /* \"#utility.yul\":7799:7800   */\n      dup3\n        /* \"#utility.yul\":7731:7797   */\n      0x7fffffffffffffffffffffffffffffffffffffffffffffffffffffffffffffff\n        /* \"#utility.yul\":7726:7801   */\n      sdiv\n        /* \"#utility.yul\":7723:7724   */\n      dup3\n        /* \"#utility.yul\":7719:7802   */\n      slt\n        /* \"#utility.yul\":7714:7715   */\n      0x00\n        /* \"#utility.yul\":7711:7712   */\n      dup5\n        /* \"#utility.yul\":7707:7716   */\n      slt\n        /* \"#utility.yul\":7703:7704   */\n      0x00\n        /* \"#utility.yul\":7700:7701   */\n      dup5\n        /* \"#utility.yul\":7696:7705   */\n      slt\n        /* \"#utility.yul\":7692:7717   */\n      and\n        /* \"#utility.yul\":7688:7803   */\n      and\n        /* \"#utility.yul\":7685:7826   */\n      iszero\n      tag_194\n      jumpi\n        /* \"#utility.yul\":7806:7824   */\n      tag_195\n      tag_189\n      jump\t// in\n    tag_195:\n        /* \"#utility.yul\":7685:7826   */\n    tag_194:\n        /* \"#utility.yul\":7854:7855   */\n      dup3\n        /* \"#utility.yul\":7851:7852   */\n      dup3\n        /* \"#utility.yul\":7847:7856   */\n      mul\n        /* \"#utility.yul\":7836:7856   */\n      swap1\n      pop\n        /* \"#utility.yul\":6871:7862   */\n      swap3\n      swap2\n      pop\n      pop\n      jump\t// out\n        /* \"#utility.yul\":7868:8216   */\n    tag_76:\n        /* \"#utility.yul\":7908:7915   */\n      0x00\n        /* \"#utility.yul\":7931:7951   */\n      tag_197\n        /* \"#utility.yul\":7949:7950   */\n      dup3\n        /* \"#utility.yul\":7931:7951   */\n      tag_160\n      jump\t// in\n    tag_197:\n        /* \"#utility.yul\":7926:7951   */\n      swap2\n      pop\n        /* \"#utility.yul\":7965:7985   */\n      tag_198\n        /* \"#utility.yul\":7983:7984   */\n      dup4\n        /* \"#utility.yul\":7965:7985   */\n      tag_160\n      jump\t// in\n    tag_198:\n        /* \"#utility.yul\":7960:7985   */\n      swap3\n      pop\n        /* \"#utility.yul\":8153:8154   */\n      dup2\n        /* \"#utility.yul\":8085:8151   */\n      0xffffffffffffffffffffffffffffffffffffffffffffffffffffffffffffffff\n        /* \"#utility.yul\":8081:8155   */\n      div\n        /* \"#utility.yul\":8078:8079   */\n      dup4\n        /* \"#utility.yul\":8075:8156   */\n      gt\n        /* \"#utility.yul\":8070:8071   */\n      dup3\n        /* \"#utility.yul\":8063:8072   */\n      iszero\n        /* \"#utility.yul\":8056:8073   */\n      iszero\n        /* \"#utility.yul\":8052:8157   */\n      and\n        /* \"#utility.yul\":8049:8180   */\n      iszero\n      tag_199\n      jumpi\n        /* \"#utility.yul\":8160:8178   */\n      tag_200\n      tag_189\n      jump\t// in\n    tag_200:\n        /* \"#utility.yul\":8049:8180   */\n    tag_199:\n        /* \"#utility.yul\":8208:8209   */\n      dup3\n        /* \"#utility.yul\":8205:8206   */\n      dup3\n        /* \"#utility.yul\":8201:8210   */\n      mul\n        /* \"#utility.yul\":8190:8210   */\n      swap1\n      pop\n        /* \"#utility.yul\":7868:8216   */\n      swap3\n      swap2\n      pop\n      pop\n      jump\t// out\n        /* \"#utility.yul\":8222:8318   */\n    tag_134:\n        /* \"#utility.yul\":8259:8266   */\n      0x00\n        /* \"#utility.yul\":8288:8312   */\n      tag_202\n        /* \"#utility.yul\":8306:8311   */\n      dup3\n        /* \"#utility.yul\":8288:8312   */\n      tag_203\n      jump\t// in\n    tag_202:\n        /* \"#utility.yul\":8277:8312   */\n      swap1\n      pop\n        /* \"#utility.yul\":8222:8318   */\n      swap2\n      swap1\n      pop\n      jump\t// out\n        /* \"#utility.yul\":8324:8400   */\n    tag_185:\n        /* \"#utility.yul\":8360:8367   */\n      0x00\n        /* \"#utility.yul\":8389:8394   */\n      dup2\n        /* \"#utility.yul\":8378:8394   */\n      swap1\n      pop\n        /* \"#utility.yul\":8324:8400   */\n      swap2\n      swap1\n      pop\n      jump\t// out\n        /* \"#utility.yul\":8406:8532   */\n    tag_203:\n        /* \"#utility.yul\":8443:8450   */\n      0x00\n        /* \"#utility.yul\":8483:8525   */\n      0xffffffffffffffffffffffffffffffffffffffff\n        /* \"#utility.yul\":8476:8481   */\n      dup3\n        /* \"#utility.yul\":8472:8526   */\n      and\n        /* \"#utility.yul\":8461:8526   */\n      swap1\n      pop\n        /* \"#utility.yul\":8406:8532   */\n      swap2\n      swap1\n      pop\n      jump\t// out\n        /* \"#utility.yul\":8538:8615   */\n    tag_160:\n        /* \"#utility.yul\":8575:8582   */\n      0x00\n        /* \"#utility.yul\":8604:8609   */\n      dup2\n        /* \"#utility.yul\":8593:8609   */\n      swap1\n      pop\n        /* \"#utility.yul\":8538:8615   */\n      swap2\n      swap1\n      pop\n      jump\t// out\n        /* \"#utility.yul\":8621:8726   */\n    tag_207:\n        /* \"#utility.yul\":8657:8664   */\n      0x00\n        /* \"#utility.yul\":8697:8719   */\n      0xffffffffffffffffffff\n        /* \"#utility.yul\":8690:8695   */\n      dup3\n        /* \"#utility.yul\":8686:8720   */\n      and\n        /* \"#utility.yul\":8675:8720   */\n      swap1\n      pop\n        /* \"#utility.yul\":8621:8726   */\n      swap2\n      swap1\n      pop\n      jump\t// out\n        /* \"#utility.yul\":8732:8965   */\n    tag_48:\n        /* \"#utility.yul\":8771:8774   */\n      0x00\n        /* \"#utility.yul\":8794:8818   */\n      tag_210\n        /* \"#utility.yul\":8812:8817   */\n      dup3\n        /* \"#utility.yul\":8794:8818   */\n      tag_160\n      jump\t// in\n    tag_210:\n        /* \"#utility.yul\":8785:8818   */\n      swap2\n      pop\n        /* \"#utility.yul\":8840:8906   */\n      0xffffffffffffffffffffffffffffffffffffffffffffffffffffffffffffffff\n        /* \"#utility.yul\":8833:8838   */\n      dup3\n        /* \"#utility.yul\":8830:8907   */\n      eq\n        /* \"#utility.yul\":8827:8930   */\n      iszero\n      tag_211\n      jumpi\n        /* \"#utility.yul\":8910:8928   */\n      tag_212\n      tag_189\n      jump\t// in\n    tag_212:\n        /* \"#utility.yul\":8827:8930   */\n    tag_211:\n        /* \"#utility.yul\":8957:8958   */\n      0x01\n        /* \"#utility.yul\":8950:8955   */\n      dup3\n        /* \"#utility.yul\":8946:8959   */\n      add\n        /* \"#utility.yul\":8939:8959   */\n      swap1\n      pop\n        /* \"#utility.yul\":8732:8965   */\n      swap2\n      swap1\n      pop\n      jump\t// out\n        /* \"#utility.yul\":8971:9151   */\n    tag_189:\n        /* \"#utility.yul\":9019:9096   */\n      0x4e487b7100000000000000000000000000000000000000000000000000000000\n        /* \"#utility.yul\":9016:9017   */\n      0x00\n        /* \"#utility.yul\":9009:9097   */\n      mstore\n        /* \"#utility.yul\":9116:9120   */\n      0x11\n        /* \"#utility.yul\":9113:9114   */\n      0x04\n        /* \"#utility.yul\":9106:9121   */\n      mstore\n        /* \"#utility.yul\":9140:9144   */\n      0x24\n        /* \"#utility.yul\":9137:9138   */\n      0x00\n        /* \"#utility.yul\":9130:9145   */\n      revert\n        /* \"#utility.yul\":9157:9337   */\n    tag_182:\n        /* \"#utility.yul\":9205:9282   */\n      0x4e487b7100000000000000000000000000000000000000000000000000000000\n        /* \"#utility.yul\":9202:9203   */\n      0x00\n        /* \"#utility.yul\":9195:9283   */\n      mstore\n        /* \"#utility.yul\":9302:9306   */\n      0x12\n        /* \"#utility.yul\":9299:9300   */\n      0x04\n        /* \"#utility.yul\":9292:9307   */\n      mstore\n        /* \"#utility.yul\":9326:9330   */\n      0x24\n        /* \"#utility.yul\":9323:9324   */\n      0x00\n        /* \"#utility.yul\":9316:9331   */\n      revert\n        /* \"#utility.yul\":9343:9523   */\n    tag_45:\n        /* \"#utility.yul\":9391:9468   */\n      0x4e487b7100000000000000000000000000000000000000000000000000000000\n        /* \"#utility.yul\":9388:9389   */\n      0x00\n        /* \"#utility.yul\":9381:9469   */\n      mstore\n        /* \"#utility.yul\":9488:9492   */\n      0x32\n        /* \"#utility.yul\":9485:9486   */\n      0x04\n        /* \"#utility.yul\":9478:9493   */\n      mstore\n        /* \"#utility.yul\":9512:9516   */\n      0x24\n        /* \"#utility.yul\":9509:9510   */\n      0x00\n        /* \"#utility.yul\":9502:9517   */\n      revert\n        /* \"#utility.yul\":9529:9709   */\n    tag_51:\n        /* \"#utility.yul\":9577:9654   */\n      0x4e487b7100000000000000000000000000000000000000000000000000000000\n        /* \"#utility.yul\":9574:9575   */\n      0x00\n        /* \"#utility.yul\":9567:9655   */\n      mstore\n        /* \"#utility.yul\":9674:9678   */\n      0x41\n        /* \"#utility.yul\":9671:9672   */\n      0x04\n        /* \"#utility.yul\":9664:9679   */\n      mstore\n        /* \"#utility.yul\":9698:9702   */\n      0x24\n        /* \"#utility.yul\":9695:9696   */\n      0x00\n        /* \"#utility.yul\":9688:9703   */\n      revert\n        /* \"#utility.yul\":9838:9955   */\n    tag_117:\n        /* \"#utility.yul\":9947:9948   */\n      0x00\n        /* \"#utility.yul\":9944:9945   */\n      dup1\n        /* \"#utility.yul\":9937:9949   */\n      revert\n        /* \"#utility.yul\":9961:10188   */\n    tag_140:\n        /* \"#utility.yul\":10101:10135   */\n      0x54686520616d6f756e74206973206c657373207468616e203145544821205472\n        /* \"#utility.yul\":10097:10098   */\n      0x00\n        /* \"#utility.yul\":10089:10095   */\n      dup3\n        /* \"#utility.yul\":10085:10099   */\n      add\n        /* \"#utility.yul\":10078:10136   */\n      mstore\n        /* \"#utility.yul\":10170:10180   */\n      0x7920416761696e2e000000000000000000000000000000000000000000000000\n        /* \"#utility.yul\":10165:10167   */\n      0x20\n        /* \"#utility.yul\":10157:10163   */\n      dup3\n        /* \"#utility.yul\":10153:10168   */\n      add\n        /* \"#utility.yul\":10146:10181   */\n      mstore\n        /* \"#utility.yul\":9961:10188   */\n      pop\n      jump\t// out\n        /* \"#utility.yul\":10194:10366   */\n    tag_145:\n        /* \"#utility.yul\":10334:10358   */\n      0x596f7520617265206e6f7420746865204f776e65722100000000000000000000\n        /* \"#utility.yul\":10330:10331   */\n      0x00\n        /* \"#utility.yul\":10322:10328   */\n      dup3\n        /* \"#utility.yul\":10318:10332   */\n      add\n        /* \"#utility.yul\":10311:10359   */\n      mstore\n        /* \"#utility.yul\":10194:10366   */\n      pop\n      jump\t// out\n        /* \"#utility.yul\":10372:10533   */\n    tag_150:\n        /* \"#utility.yul\":10512:10525   */\n      0x53656e64204661696c6564000000000000000000000000000000000000000000\n        /* \"#utility.yul\":10508:10509   */\n      0x00\n        /* \"#utility.yul\":10500:10506   */\n      dup3\n        /* \"#utility.yul\":10496:10510   */\n      add\n        /* \"#utility.yul\":10489:10526   */\n      mstore\n        /* \"#utility.yul\":10372:10533   */\n      pop\n      jump\t// out\n        /* \"#utility.yul\":10539:10653   */\n    tag_156:\n      pop\n      jump\t// out\n        /* \"#utility.yul\":10659:10781   */\n    tag_98:\n        /* \"#utility.yul\":10732:10756   */\n      tag_225\n        /* \"#utility.yul\":10750:10755   */\n      dup2\n        /* \"#utility.yul\":10732:10756   */\n      tag_134\n      jump\t// in\n    tag_225:\n        /* \"#utility.yul\":10725:10730   */\n      dup2\n        /* \"#utility.yul\":10722:10757   */\n      eq\n        /* \"#utility.yul\":10712:10775   */\n      tag_226\n      jumpi\n        /* \"#utility.yul\":10771:10772   */\n      0x00\n        /* \"#utility.yul\":10768:10769   */\n      dup1\n        /* \"#utility.yul\":10761:10773   */\n      revert\n        /* \"#utility.yul\":10712:10775   */\n    tag_226:\n        /* \"#utility.yul\":10659:10781   */\n      pop\n      jump\t// out\n        /* \"#utility.yul\":10787:10907   */\n    tag_102:\n        /* \"#utility.yul\":10859:10882   */\n      tag_228\n        /* \"#utility.yul\":10876:10881   */\n      dup2\n        /* \"#utility.yul\":10859:10882   */\n      tag_185\n      jump\t// in\n    tag_228:\n        /* \"#utility.yul\":10852:10857   */\n      dup2\n        /* \"#utility.yul\":10849:10883   */\n      eq\n        /* \"#utility.yul\":10839:10901   */\n      tag_229\n      jumpi\n        /* \"#utility.yul\":10897:10898   */\n      0x00\n        /* \"#utility.yul\":10894:10895   */\n      dup1\n        /* \"#utility.yul\":10887:10899   */\n      revert\n        /* \"#utility.yul\":10839:10901   */\n    tag_229:\n        /* \"#utility.yul\":10787:10907   */\n      pop\n      jump\t// out\n        /* \"#utility.yul\":10913:11035   */\n    tag_106:\n        /* \"#utility.yul\":10986:11010   */\n      tag_231\n        /* \"#utility.yul\":11004:11009   */\n      dup2\n        /* \"#utility.yul\":10986:11010   */\n      tag_160\n      jump\t// in\n    tag_231:\n        /* \"#utility.yul\":10979:10984   */\n      dup2\n        /* \"#utility.yul\":10976:11011   */\n      eq\n        /* \"#utility.yul\":10966:11029   */\n      tag_232\n      jumpi\n        /* \"#utility.yul\":11025:11026   */\n      0x00\n        /* \"#utility.yul\":11022:11023   */\n      dup1\n        /* \"#utility.yul\":11015:11027   */\n      revert\n        /* \"#utility.yul\":10966:11029   */\n    tag_232:\n        /* \"#utility.yul\":10913:11035   */\n      pop\n      jump\t// out\n        /* \"#utility.yul\":11041:11161   */\n    tag_113:\n        /* \"#utility.yul\":11113:11136   */\n      tag_234\n        /* \"#utility.yul\":11130:11135   */\n      dup2\n        /* \"#utility.yul\":11113:11136   */\n      tag_207\n      jump\t// in\n    tag_234:\n        /* \"#utility.yul\":11106:11111   */\n      dup2\n        /* \"#utility.yul\":11103:11137   */\n      eq\n        /* \"#utility.yul\":11093:11155   */\n      tag_235\n      jumpi\n        /* \"#utility.yul\":11151:11152   */\n      0x00\n        /* \"#utility.yul\":11148:11149   */\n      dup1\n        /* \"#utility.yul\":11141:11153   */\n      revert\n        /* \"#utility.yul\":11093:11155   */\n    tag_235:\n        /* \"#utility.yul\":11041:11161   */\n      pop\n      jump\t// out\n\n    auxdata: 0xa2646970667358221220871666fa46527139800eed44c9d28b5ef7c3aabe15b63f9912553ecc5982d91d64736f6c63430008070033\n}\n",
				"bytecode": {
					"linkReferences": {},
					"object": "60806040526802b5e3af16b188000060005534801561001d57600080fd5b5033600360006101000a81548173ffffffffffffffffffffffffffffffffffffffff021916908373ffffffffffffffffffffffffffffffffffffffff160217905550610d968061006e6000396000f3fe6080604052600436106100555760003560e01c80633ccfd60b1461005a57806355f2a7d5146100715780638da5cb5b146100ae578063b60d4288146100d9578063dc0d3dff146100e3578063dc992aa014610120575b600080fd5b34801561006657600080fd5b5061006f61014b565b005b34801561007d57600080fd5b5061009860048036038101906100939190610712565b610397565b6040516100a59190610921565b60405180910390f35b3480156100ba57600080fd5b506100c36103af565b6040516100d091906108a6565b60405180910390f35b6100e16103d5565b005b3480156100ef57600080fd5b5061010a6004803603810190610105919061073f565b6104cb565b60405161011791906108a6565b60405180910390f35b34801561012c57600080fd5b5061013561050a565b6040516101429190610921565b60405180910390f35b600360009054906101000a900473ffffffffffffffffffffffffffffffffffffffff1673ffffffffffffffffffffffffffffffffffffffff163373ffffffffffffffffffffffffffffffffffffffff16146101db576040517f08c379a00000000000000000000000000000000000000000000000000000000081526004016101d2906108e1565b60405180910390fd5b60005b6001805490508110156102875760006001828154811061020157610200610bfd565b5b9060005260206000200160009054906101000a900473ffffffffffffffffffffffffffffffffffffffff1690506000600260008373ffffffffffffffffffffffffffffffffffffffff1673ffffffffffffffffffffffffffffffffffffffff1681526020019081526020016000208190555050808061027f90610b56565b9150506101de565b50600067ffffffffffffffff8111156102a3576102a2610c2c565b5b6040519080825280602002602001820160405280156102d15781602001602082028036833780820191505090505b50600190805190602001906102e7929190610602565b5060003373ffffffffffffffffffffffffffffffffffffffff164760405161030e90610891565b60006040518083038185875af1925050503d806000811461034b576040519150601f19603f3d011682016040523d82523d6000602084013e610350565b606091505b5050905080610394576040517f08c379a000000000000000000000000000000000000000000000000000000000815260040161038b90610901565b60405180910390fd5b50565b60026020528060005260406000206000915090505481565b600360009054906101000a900473ffffffffffffffffffffffffffffffffffffffff1681565b6000546103e134610510565b1015610422576040517f08c379a0000000000000000000000000000000000000000000000000000000008152600401610419906108c1565b60405180910390fd5b6001339080600181540180825580915050600190039060005260206000200160009091909190916101000a81548173ffffffffffffffffffffffffffffffffffffffff021916908373ffffffffffffffffffffffffffffffffffffffff16021790555034600260003373ffffffffffffffffffffffffffffffffffffffff1673ffffffffffffffffffffffffffffffffffffffff16815260200190815260200160002081905550565b600181815481106104db57600080fd5b906000526020600020016000915054906101000a900473ffffffffffffffffffffffffffffffffffffffff1681565b60005481565b60008061051b61054a565b90506000670de0b6b3a764000084836105349190610aa0565b61053e9190610958565b90508092505050919050565b60008073d4a33860578de61dbabdc8bfdb98fd742fa7028e905060008173ffffffffffffffffffffffffffffffffffffffff1663feaf968c6040518163ffffffff1660e01b815260040160a06040518083038186803b1580156105ac57600080fd5b505afa1580156105c0573d6000803e3d6000fd5b505050506040513d601f19601f820116820180604052508101906105e4919061076c565b5050509150506402540be400816105fb9190610989565b9250505090565b82805482825590600052602060002090810192821561067b579160200282015b8281111561067a5782518260006101000a81548173ffffffffffffffffffffffffffffffffffffffff021916908373ffffffffffffffffffffffffffffffffffffffff16021790555091602001919060010190610622565b5b509050610688919061068c565b5090565b5b808211156106a557600081600090555060010161068d565b5090565b6000813590506106b881610d04565b92915050565b6000815190506106cd81610d1b565b92915050565b6000813590506106e281610d32565b92915050565b6000815190506106f781610d32565b92915050565b60008151905061070c81610d49565b92915050565b60006020828403121561072857610727610c5b565b5b6000610736848285016106a9565b91505092915050565b60006020828403121561075557610754610c5b565b5b6000610763848285016106d3565b91505092915050565b600080600080600060a0868803121561078857610787610c5b565b5b6000610796888289016106fd565b95505060206107a7888289016106be565b94505060406107b8888289016106e8565b93505060606107c9888289016106e8565b92505060806107da888289016106fd565b9150509295509295909350565b6107f081610afa565b82525050565b6000610803602883610947565b915061080e82610c60565b604082019050919050565b6000610826601683610947565b915061083182610caf565b602082019050919050565b6000610849600b83610947565b915061085482610cd8565b602082019050919050565b600061086c60008361093c565b915061087782610d01565b600082019050919050565b61088b81610b36565b82525050565b600061089c8261085f565b9150819050919050565b60006020820190506108bb60008301846107e7565b92915050565b600060208201905081810360008301526108da816107f6565b9050919050565b600060208201905081810360008301526108fa81610819565b9050919050565b6000602082019050818103600083015261091a8161083c565b9050919050565b60006020820190506109366000830184610882565b92915050565b600081905092915050565b600082825260208201905092915050565b600061096382610b36565b915061096e83610b36565b92508261097e5761097d610bce565b5b828204905092915050565b600061099482610b0c565b915061099f83610b0c565b9250827f7fffffffffffffffffffffffffffffffffffffffffffffffffffffffffffffff04821160008413600084131616156109de576109dd610b9f565b5b817f80000000000000000000000000000000000000000000000000000000000000000583126000841260008413161615610a1b57610a1a610b9f565b5b827f80000000000000000000000000000000000000000000000000000000000000000582126000841360008412161615610a5857610a57610b9f565b5b827f7fffffffffffffffffffffffffffffffffffffffffffffffffffffffffffffff0582126000841260008412161615610a9557610a94610b9f565b5b828202905092915050565b6000610aab82610b36565b9150610ab683610b36565b9250817fffffffffffffffffffffffffffffffffffffffffffffffffffffffffffffffff0483118215151615610aef57610aee610b9f565b5b828202905092915050565b6000610b0582610b16565b9050919050565b6000819050919050565b600073ffffffffffffffffffffffffffffffffffffffff82169050919050565b6000819050919050565b600069ffffffffffffffffffff82169050919050565b6000610b6182610b36565b91507fffffffffffffffffffffffffffffffffffffffffffffffffffffffffffffffff821415610b9457610b93610b9f565b5b600182019050919050565b7f4e487b7100000000000000000000000000000000000000000000000000000000600052601160045260246000fd5b7f4e487b7100000000000000000000000000000000000000000000000000000000600052601260045260246000fd5b7f4e487b7100000000000000000000000000000000000000000000000000000000600052603260045260246000fd5b7f4e487b7100000000000000000000000000000000000000000000000000000000600052604160045260246000fd5b600080fd5b7f54686520616d6f756e74206973206c657373207468616e20314554482120547260008201527f7920416761696e2e000000000000000000000000000000000000000000000000602082015250565b7f596f7520617265206e6f7420746865204f776e65722100000000000000000000600082015250565b7f53656e64204661696c6564000000000000000000000000000000000000000000600082015250565b50565b610d0d81610afa565b8114610d1857600080fd5b50565b610d2481610b0c565b8114610d2f57600080fd5b50565b610d3b81610b36565b8114610d4657600080fd5b50565b610d5281610b40565b8114610d5d57600080fd5b5056fea2646970667358221220871666fa46527139800eed44c9d28b5ef7c3aabe15b63f9912553ecc5982d91d64736f6c63430008070033",
					"opcodes": "PUSH1 0x80 PUSH1 0x40 MSTORE PUSH9 0x2B5E3AF16B1880000 PUSH1 0x0 SSTORE CALLVALUE DUP1 ISZERO PUSH2 0x1D JUMPI PUSH1 0x0 DUP1 REVERT JUMPDEST POP CALLER PUSH1 0x3 PUSH1 0x0 PUSH2 0x100 EXP DUP2 SLOAD DUP2 PUSH20 0xFFFFFFFFFFFFFFFFFFFFFFFFFFFFFFFFFFFFFFFF MUL NOT AND SWAP1 DUP4 PUSH20 0xFFFFFFFFFFFFFFFFFFFFFFFFFFFFFFFFFFFFFFFF AND MUL OR SWAP1 SSTORE POP PUSH2 0xD96 DUP1 PUSH2 0x6E PUSH1 0x0 CODECOPY PUSH1 0x0 RETURN INVALID PUSH1 0x80 PUSH1 0x40 MSTORE PUSH1 0x4 CALLDATASIZE LT PUSH2 0x55 JUMPI PUSH1 0x0 CALLDATALOAD PUSH1 0xE0 SHR DUP1 PUSH4 0x3CCFD60B EQ PUSH2 0x5A JUMPI DUP1 PUSH4 0x55F2A7D5 EQ PUSH2 0x71 JUMPI DUP1 PUSH4 0x8DA5CB5B EQ PUSH2 0xAE JUMPI DUP1 PUSH4 0xB60D4288 EQ PUSH2 0xD9 JUMPI DUP1 PUSH4 0xDC0D3DFF EQ PUSH2 0xE3 JUMPI DUP1 PUSH4 0xDC992AA0 EQ PUSH2 0x120 JUMPI JUMPDEST PUSH1 0x0 DUP1 REVERT JUMPDEST CALLVALUE DUP1 ISZERO PUSH2 0x66 JUMPI PUSH1 0x0 DUP1 REVERT JUMPDEST POP PUSH2 0x6F PUSH2 0x14B JUMP JUMPDEST STOP JUMPDEST CALLVALUE DUP1 ISZERO PUSH2 0x7D JUMPI PUSH1 0x0 DUP1 REVERT JUMPDEST POP PUSH2 0x98 PUSH1 0x4 DUP1 CALLDATASIZE SUB DUP2 ADD SWAP1 PUSH2 0x93 SWAP2 SWAP1 PUSH2 0x712 JUMP JUMPDEST PUSH2 0x397 JUMP JUMPDEST PUSH1 0x40 MLOAD PUSH2 0xA5 SWAP2 SWAP1 PUSH2 0x921 JUMP JUMPDEST PUSH1 0x40 MLOAD DUP1 SWAP2 SUB SWAP1 RETURN JUMPDEST CALLVALUE DUP1 ISZERO PUSH2 0xBA JUMPI PUSH1 0x0 DUP1 REVERT JUMPDEST POP PUSH2 0xC3 PUSH2 0x3AF JUMP JUMPDEST PUSH1 0x40 MLOAD PUSH2 0xD0 SWAP2 SWAP1 PUSH2 0x8A6 JUMP JUMPDEST PUSH1 0x40 MLOAD DUP1 SWAP2 SUB SWAP1 RETURN JUMPDEST PUSH2 0xE1 PUSH2 0x3D5 JUMP JUMPDEST STOP JUMPDEST CALLVALUE DUP1 ISZERO PUSH2 0xEF JUMPI PUSH1 0x0 DUP1 REVERT JUMPDEST POP PUSH2 0x10A PUSH1 0x4 DUP1 CALLDATASIZE SUB DUP2 ADD SWAP1 PUSH2 0x105 SWAP2 SWAP1 PUSH2 0x73F JUMP JUMPDEST PUSH2 0x4CB JUMP JUMPDEST PUSH1 0x40 MLOAD PUSH2 0x117 SWAP2 SWAP1 PUSH2 0x8A6 JUMP JUMPDEST PUSH1 0x40 MLOAD DUP1 SWAP2 SUB SWAP1 RETURN JUMPDEST CALLVALUE DUP1 ISZERO PUSH2 0x12C JUMPI PUSH1 0x0 DUP1 REVERT JUMPDEST POP PUSH2 0x135 PUSH2 0x50A JUMP JUMPDEST PUSH1 0x40 MLOAD PUSH2 0x142 SWAP2 SWAP1 PUSH2 0x921 JUMP JUMPDEST PUSH1 0x40 MLOAD DUP1 SWAP2 SUB SWAP1 RETURN JUMPDEST PUSH1 0x3 PUSH1 0x0 SWAP1 SLOAD SWAP1 PUSH2 0x100 EXP SWAP1 DIV PUSH20 0xFFFFFFFFFFFFFFFFFFFFFFFFFFFFFFFFFFFFFFFF AND PUSH20 0xFFFFFFFFFFFFFFFFFFFFFFFFFFFFFFFFFFFFFFFF AND CALLER PUSH20 0xFFFFFFFFFFFFFFFFFFFFFFFFFFFFFFFFFFFFFFFF AND EQ PUSH2 0x1DB JUMPI PUSH1 0x40 MLOAD PUSH32 0x8C379A000000000000000000000000000000000000000000000000000000000 DUP2 MSTORE PUSH1 0x4 ADD PUSH2 0x1D2 SWAP1 PUSH2 0x8E1 JUMP JUMPDEST PUSH1 0x40 MLOAD DUP1 SWAP2 SUB SWAP1 REVERT JUMPDEST PUSH1 0x0 JUMPDEST PUSH1 0x1 DUP1 SLOAD SWAP1 POP DUP2 LT ISZERO PUSH2 0x287 JUMPI PUSH1 0x0 PUSH1 0x1 DUP3 DUP2 SLOAD DUP2 LT PUSH2 0x201 JUMPI PUSH2 0x200 PUSH2 0xBFD JUMP JUMPDEST JUMPDEST SWAP1 PUSH1 0x0 MSTORE PUSH1 0x20 PUSH1 0x0 KECCAK256 ADD PUSH1 0x0 SWAP1 SLOAD SWAP1 PUSH2 0x100 EXP SWAP1 DIV PUSH20 0xFFFFFFFFFFFFFFFFFFFFFFFFFFFFFFFFFFFFFFFF AND SWAP1 POP PUSH1 0x0 PUSH1 0x2 PUSH1 0x0 DUP4 PUSH20 0xFFFFFFFFFFFFFFFFFFFFFFFFFFFFFFFFFFFFFFFF AND PUSH20 0xFFFFFFFFFFFFFFFFFFFFFFFFFFFFFFFFFFFFFFFF AND DUP2 MSTORE PUSH1 0x20 ADD SWAP1 DUP2 MSTORE PUSH1 0x20 ADD PUSH1 0x0 KECCAK256 DUP2 SWAP1 SSTORE POP POP DUP1 DUP1 PUSH2 0x27F SWAP1 PUSH2 0xB56 JUMP JUMPDEST SWAP2 POP POP PUSH2 0x1DE JUMP JUMPDEST POP PUSH1 0x0 PUSH8 0xFFFFFFFFFFFFFFFF DUP2 GT ISZERO PUSH2 0x2A3 JUMPI PUSH2 0x2A2 PUSH2 0xC2C JUMP JUMPDEST JUMPDEST PUSH1 0x40 MLOAD SWAP1 DUP1 DUP3 MSTORE DUP1 PUSH1 0x20 MUL PUSH1 0x20 ADD DUP3 ADD PUSH1 0x40 MSTORE DUP1 ISZERO PUSH2 0x2D1 JUMPI DUP2 PUSH1 0x20 ADD PUSH1 0x20 DUP3 MUL DUP1 CALLDATASIZE DUP4 CALLDATACOPY DUP1 DUP3 ADD SWAP2 POP POP SWAP1 POP JUMPDEST POP PUSH1 0x1 SWAP1 DUP1 MLOAD SWAP1 PUSH1 0x20 ADD SWAP1 PUSH2 0x2E7 SWAP3 SWAP2 SWAP1 PUSH2 0x602 JUMP JUMPDEST POP PUSH1 0x0 CALLER PUSH20 0xFFFFFFFFFFFFFFFFFFFFFFFFFFFFFFFFFFFFFFFF AND SELFBALANCE PUSH1 0x40 MLOAD PUSH2 0x30E SWAP1 PUSH2 0x891 JUMP JUMPDEST PUSH1 0x0 PUSH1 0x40 MLOAD DUP1 DUP4 SUB DUP2 DUP6 DUP8 GAS CALL SWAP3 POP POP POP RETURNDATASIZE DUP1 PUSH1 0x0 DUP2 EQ PUSH2 0x34B JUMPI PUSH1 0x40 MLOAD SWAP2 POP PUSH1 0x1F NOT PUSH1 0x3F RETURNDATASIZE ADD AND DUP3 ADD PUSH1 0x40 MSTORE RETURNDATASIZE DUP3 MSTORE RETURNDATASIZE PUSH1 0x0 PUSH1 0x20 DUP5 ADD RETURNDATACOPY PUSH2 0x350 JUMP JUMPDEST PUSH1 0x60 SWAP2 POP JUMPDEST POP POP SWAP1 POP DUP1 PUSH2 0x394 JUMPI PUSH1 0x40 MLOAD PUSH32 0x8C379A000000000000000000000000000000000000000000000000000000000 DUP2 MSTORE PUSH1 0x4 ADD PUSH2 0x38B SWAP1 PUSH2 0x901 JUMP JUMPDEST PUSH1 0x40 MLOAD DUP1 SWAP2 SUB SWAP1 REVERT JUMPDEST POP JUMP JUMPDEST PUSH1 0x2 PUSH1 0x20 MSTORE DUP1 PUSH1 0x0 MSTORE PUSH1 0x40 PUSH1 0x0 KECCAK256 PUSH1 0x0 SWAP2 POP SWAP1 POP SLOAD DUP2 JUMP JUMPDEST PUSH1 0x3 PUSH1 0x0 SWAP1 SLOAD SWAP1 PUSH2 0x100 EXP SWAP1 DIV PUSH20 0xFFFFFFFFFFFFFFFFFFFFFFFFFFFFFFFFFFFFFFFF AND DUP2 JUMP JUMPDEST PUSH1 0x0 SLOAD PUSH2 0x3E1 CALLVALUE PUSH2 0x510 JUMP JUMPDEST LT ISZERO PUSH2 0x422 JUMPI PUSH1 0x40 MLOAD PUSH32 0x8C379A000000000000000000000000000000000000000000000000000000000 DUP2 MSTORE PUSH1 0x4 ADD PUSH2 0x419 SWAP1 PUSH2 0x8C1 JUMP JUMPDEST PUSH1 0x40 MLOAD DUP1 SWAP2 SUB SWAP1 REVERT JUMPDEST PUSH1 0x1 CALLER SWAP1 DUP1 PUSH1 0x1 DUP2 SLOAD ADD DUP1 DUP3 SSTORE DUP1 SWAP2 POP POP PUSH1 0x1 SWAP1 SUB SWAP1 PUSH1 0x0 MSTORE PUSH1 0x20 PUSH1 0x0 KECCAK256 ADD PUSH1 0x0 SWAP1 SWAP2 SWAP1 SWAP2 SWAP1 SWAP2 PUSH2 0x100 EXP DUP2 SLOAD DUP2 PUSH20 0xFFFFFFFFFFFFFFFFFFFFFFFFFFFFFFFFFFFFFFFF MUL NOT AND SWAP1 DUP4 PUSH20 0xFFFFFFFFFFFFFFFFFFFFFFFFFFFFFFFFFFFFFFFF AND MUL OR SWAP1 SSTORE POP CALLVALUE PUSH1 0x2 PUSH1 0x0 CALLER PUSH20 0xFFFFFFFFFFFFFFFFFFFFFFFFFFFFFFFFFFFFFFFF AND PUSH20 0xFFFFFFFFFFFFFFFFFFFFFFFFFFFFFFFFFFFFFFFF AND DUP2 MSTORE PUSH1 0x20 ADD SWAP1 DUP2 MSTORE PUSH1 0x20 ADD PUSH1 0x0 KECCAK256 DUP2 SWAP1 SSTORE POP JUMP JUMPDEST PUSH1 0x1 DUP2 DUP2 SLOAD DUP2 LT PUSH2 0x4DB JUMPI PUSH1 0x0 DUP1 REVERT JUMPDEST SWAP1 PUSH1 0x0 MSTORE PUSH1 0x20 PUSH1 0x0 KECCAK256 ADD PUSH1 0x0 SWAP2 POP SLOAD SWAP1 PUSH2 0x100 EXP SWAP1 DIV PUSH20 0xFFFFFFFFFFFFFFFFFFFFFFFFFFFFFFFFFFFFFFFF AND DUP2 JUMP JUMPDEST PUSH1 0x0 SLOAD DUP2 JUMP JUMPDEST PUSH1 0x0 DUP1 PUSH2 0x51B PUSH2 0x54A JUMP JUMPDEST SWAP1 POP PUSH1 0x0 PUSH8 0xDE0B6B3A7640000 DUP5 DUP4 PUSH2 0x534 SWAP2 SWAP1 PUSH2 0xAA0 JUMP JUMPDEST PUSH2 0x53E SWAP2 SWAP1 PUSH2 0x958 JUMP JUMPDEST SWAP1 POP DUP1 SWAP3 POP POP POP SWAP2 SWAP1 POP JUMP JUMPDEST PUSH1 0x0 DUP1 PUSH20 0xD4A33860578DE61DBABDC8BFDB98FD742FA7028E SWAP1 POP PUSH1 0x0 DUP2 PUSH20 0xFFFFFFFFFFFFFFFFFFFFFFFFFFFFFFFFFFFFFFFF AND PUSH4 0xFEAF968C PUSH1 0x40 MLOAD DUP2 PUSH4 0xFFFFFFFF AND PUSH1 0xE0 SHL DUP2 MSTORE PUSH1 0x4 ADD PUSH1 0xA0 PUSH1 0x40 MLOAD DUP1 DUP4 SUB DUP2 DUP7 DUP1 EXTCODESIZE ISZERO DUP1 ISZERO PUSH2 0x5AC JUMPI PUSH1 0x0 DUP1 REVERT JUMPDEST POP GAS STATICCALL ISZERO DUP1 ISZERO PUSH2 0x5C0 JUMPI RETURNDATASIZE PUSH1 0x0 DUP1 RETURNDATACOPY RETURNDATASIZE PUSH1 0x0 REVERT JUMPDEST POP POP POP POP PUSH1 0x40 MLOAD RETURNDATASIZE PUSH1 0x1F NOT PUSH1 0x1F DUP3 ADD AND DUP3 ADD DUP1 PUSH1 0x40 MSTORE POP DUP2 ADD SWAP1 PUSH2 0x5E4 SWAP2 SWAP1 PUSH2 0x76C JUMP JUMPDEST POP POP POP SWAP2 POP POP PUSH5 0x2540BE400 DUP2 PUSH2 0x5FB SWAP2 SWAP1 PUSH2 0x989 JUMP JUMPDEST SWAP3 POP POP POP SWAP1 JUMP JUMPDEST DUP3 DUP1 SLOAD DUP3 DUP3 SSTORE SWAP1 PUSH1 0x0 MSTORE PUSH1 0x20 PUSH1 0x0 KECCAK256 SWAP1 DUP2 ADD SWAP3 DUP3 ISZERO PUSH2 0x67B JUMPI SWAP2 PUSH1 0x20 MUL DUP3 ADD JUMPDEST DUP3 DUP2 GT ISZERO PUSH2 0x67A JUMPI DUP3 MLOAD DUP3 PUSH1 0x0 PUSH2 0x100 EXP DUP2 SLOAD DUP2 PUSH20 0xFFFFFFFFFFFFFFFFFFFFFFFFFFFFFFFFFFFFFFFF MUL NOT AND SWAP1 DUP4 PUSH20 0xFFFFFFFFFFFFFFFFFFFFFFFFFFFFFFFFFFFFFFFF AND MUL OR SWAP1 SSTORE POP SWAP2 PUSH1 0x20 ADD SWAP2 SWAP1 PUSH1 0x1 ADD SWAP1 PUSH2 0x622 JUMP JUMPDEST JUMPDEST POP SWAP1 POP PUSH2 0x688 SWAP2 SWAP1 PUSH2 0x68C JUMP JUMPDEST POP SWAP1 JUMP JUMPDEST JUMPDEST DUP1 DUP3 GT ISZERO PUSH2 0x6A5 JUMPI PUSH1 0x0 DUP2 PUSH1 0x0 SWAP1 SSTORE POP PUSH1 0x1 ADD PUSH2 0x68D JUMP JUMPDEST POP SWAP1 JUMP JUMPDEST PUSH1 0x0 DUP2 CALLDATALOAD SWAP1 POP PUSH2 0x6B8 DUP2 PUSH2 0xD04 JUMP JUMPDEST SWAP3 SWAP2 POP POP JUMP JUMPDEST PUSH1 0x0 DUP2 MLOAD SWAP1 POP PUSH2 0x6CD DUP2 PUSH2 0xD1B JUMP JUMPDEST SWAP3 SWAP2 POP POP JUMP JUMPDEST PUSH1 0x0 DUP2 CALLDATALOAD SWAP1 POP PUSH2 0x6E2 DUP2 PUSH2 0xD32 JUMP JUMPDEST SWAP3 SWAP2 POP POP JUMP JUMPDEST PUSH1 0x0 DUP2 MLOAD SWAP1 POP PUSH2 0x6F7 DUP2 PUSH2 0xD32 JUMP JUMPDEST SWAP3 SWAP2 POP POP JUMP JUMPDEST PUSH1 0x0 DUP2 MLOAD SWAP1 POP PUSH2 0x70C DUP2 PUSH2 0xD49 JUMP JUMPDEST SWAP3 SWAP2 POP POP JUMP JUMPDEST PUSH1 0x0 PUSH1 0x20 DUP3 DUP5 SUB SLT ISZERO PUSH2 0x728 JUMPI PUSH2 0x727 PUSH2 0xC5B JUMP JUMPDEST JUMPDEST PUSH1 0x0 PUSH2 0x736 DUP5 DUP3 DUP6 ADD PUSH2 0x6A9 JUMP JUMPDEST SWAP2 POP POP SWAP3 SWAP2 POP POP JUMP JUMPDEST PUSH1 0x0 PUSH1 0x20 DUP3 DUP5 SUB SLT ISZERO PUSH2 0x755 JUMPI PUSH2 0x754 PUSH2 0xC5B JUMP JUMPDEST JUMPDEST PUSH1 0x0 PUSH2 0x763 DUP5 DUP3 DUP6 ADD PUSH2 0x6D3 JUMP JUMPDEST SWAP2 POP POP SWAP3 SWAP2 POP POP JUMP JUMPDEST PUSH1 0x0 DUP1 PUSH1 0x0 DUP1 PUSH1 0x0 PUSH1 0xA0 DUP7 DUP9 SUB SLT ISZERO PUSH2 0x788 JUMPI PUSH2 0x787 PUSH2 0xC5B JUMP JUMPDEST JUMPDEST PUSH1 0x0 PUSH2 0x796 DUP9 DUP3 DUP10 ADD PUSH2 0x6FD JUMP JUMPDEST SWAP6 POP POP PUSH1 0x20 PUSH2 0x7A7 DUP9 DUP3 DUP10 ADD PUSH2 0x6BE JUMP JUMPDEST SWAP5 POP POP PUSH1 0x40 PUSH2 0x7B8 DUP9 DUP3 DUP10 ADD PUSH2 0x6E8 JUMP JUMPDEST SWAP4 POP POP PUSH1 0x60 PUSH2 0x7C9 DUP9 DUP3 DUP10 ADD PUSH2 0x6E8 JUMP JUMPDEST SWAP3 POP POP PUSH1 0x80 PUSH2 0x7DA DUP9 DUP3 DUP10 ADD PUSH2 0x6FD JUMP JUMPDEST SWAP2 POP POP SWAP3 SWAP6 POP SWAP3 SWAP6 SWAP1 SWAP4 POP JUMP JUMPDEST PUSH2 0x7F0 DUP2 PUSH2 0xAFA JUMP JUMPDEST DUP3 MSTORE POP POP JUMP JUMPDEST PUSH1 0x0 PUSH2 0x803 PUSH1 0x28 DUP4 PUSH2 0x947 JUMP JUMPDEST SWAP2 POP PUSH2 0x80E DUP3 PUSH2 0xC60 JUMP JUMPDEST PUSH1 0x40 DUP3 ADD SWAP1 POP SWAP2 SWAP1 POP JUMP JUMPDEST PUSH1 0x0 PUSH2 0x826 PUSH1 0x16 DUP4 PUSH2 0x947 JUMP JUMPDEST SWAP2 POP PUSH2 0x831 DUP3 PUSH2 0xCAF JUMP JUMPDEST PUSH1 0x20 DUP3 ADD SWAP1 POP SWAP2 SWAP1 POP JUMP JUMPDEST PUSH1 0x0 PUSH2 0x849 PUSH1 0xB DUP4 PUSH2 0x947 JUMP JUMPDEST SWAP2 POP PUSH2 0x854 DUP3 PUSH2 0xCD8 JUMP JUMPDEST PUSH1 0x20 DUP3 ADD SWAP1 POP SWAP2 SWAP1 POP JUMP JUMPDEST PUSH1 0x0 PUSH2 0x86C PUSH1 0x0 DUP4 PUSH2 0x93C JUMP JUMPDEST SWAP2 POP PUSH2 0x877 DUP3 PUSH2 0xD01 JUMP JUMPDEST PUSH1 0x0 DUP3 ADD SWAP1 POP SWAP2 SWAP1 POP JUMP JUMPDEST PUSH2 0x88B DUP2 PUSH2 0xB36 JUMP JUMPDEST DUP3 MSTORE POP POP JUMP JUMPDEST PUSH1 0x0 PUSH2 0x89C DUP3 PUSH2 0x85F JUMP JUMPDEST SWAP2 POP DUP2 SWAP1 POP SWAP2 SWAP1 POP JUMP JUMPDEST PUSH1 0x0 PUSH1 0x20 DUP3 ADD SWAP1 POP PUSH2 0x8BB PUSH1 0x0 DUP4 ADD DUP5 PUSH2 0x7E7 JUMP JUMPDEST SWAP3 SWAP2 POP POP JUMP JUMPDEST PUSH1 0x0 PUSH1 0x20 DUP3 ADD SWAP1 POP DUP2 DUP2 SUB PUSH1 0x0 DUP4 ADD MSTORE PUSH2 0x8DA DUP2 PUSH2 0x7F6 JUMP JUMPDEST SWAP1 POP SWAP2 SWAP1 POP JUMP JUMPDEST PUSH1 0x0 PUSH1 0x20 DUP3 ADD SWAP1 POP DUP2 DUP2 SUB PUSH1 0x0 DUP4 ADD MSTORE PUSH2 0x8FA DUP2 PUSH2 0x819 JUMP JUMPDEST SWAP1 POP SWAP2 SWAP1 POP JUMP JUMPDEST PUSH1 0x0 PUSH1 0x20 DUP3 ADD SWAP1 POP DUP2 DUP2 SUB PUSH1 0x0 DUP4 ADD MSTORE PUSH2 0x91A DUP2 PUSH2 0x83C JUMP JUMPDEST SWAP1 POP SWAP2 SWAP1 POP JUMP JUMPDEST PUSH1 0x0 PUSH1 0x20 DUP3 ADD SWAP1 POP PUSH2 0x936 PUSH1 0x0 DUP4 ADD DUP5 PUSH2 0x882 JUMP JUMPDEST SWAP3 SWAP2 POP POP JUMP JUMPDEST PUSH1 0x0 DUP2 SWAP1 POP SWAP3 SWAP2 POP POP JUMP JUMPDEST PUSH1 0x0 DUP3 DUP3 MSTORE PUSH1 0x20 DUP3 ADD SWAP1 POP SWAP3 SWAP2 POP POP JUMP JUMPDEST PUSH1 0x0 PUSH2 0x963 DUP3 PUSH2 0xB36 JUMP JUMPDEST SWAP2 POP PUSH2 0x96E DUP4 PUSH2 0xB36 JUMP JUMPDEST SWAP3 POP DUP3 PUSH2 0x97E JUMPI PUSH2 0x97D PUSH2 0xBCE JUMP JUMPDEST JUMPDEST DUP3 DUP3 DIV SWAP1 POP SWAP3 SWAP2 POP POP JUMP JUMPDEST PUSH1 0x0 PUSH2 0x994 DUP3 PUSH2 0xB0C JUMP JUMPDEST SWAP2 POP PUSH2 0x99F DUP4 PUSH2 0xB0C JUMP JUMPDEST SWAP3 POP DUP3 PUSH32 0x7FFFFFFFFFFFFFFFFFFFFFFFFFFFFFFFFFFFFFFFFFFFFFFFFFFFFFFFFFFFFFFF DIV DUP3 GT PUSH1 0x0 DUP5 SGT PUSH1 0x0 DUP5 SGT AND AND ISZERO PUSH2 0x9DE JUMPI PUSH2 0x9DD PUSH2 0xB9F JUMP JUMPDEST JUMPDEST DUP2 PUSH32 0x8000000000000000000000000000000000000000000000000000000000000000 SDIV DUP4 SLT PUSH1 0x0 DUP5 SLT PUSH1 0x0 DUP5 SGT AND AND ISZERO PUSH2 0xA1B JUMPI PUSH2 0xA1A PUSH2 0xB9F JUMP JUMPDEST JUMPDEST DUP3 PUSH32 0x8000000000000000000000000000000000000000000000000000000000000000 SDIV DUP3 SLT PUSH1 0x0 DUP5 SGT PUSH1 0x0 DUP5 SLT AND AND ISZERO PUSH2 0xA58 JUMPI PUSH2 0xA57 PUSH2 0xB9F JUMP JUMPDEST JUMPDEST DUP3 PUSH32 0x7FFFFFFFFFFFFFFFFFFFFFFFFFFFFFFFFFFFFFFFFFFFFFFFFFFFFFFFFFFFFFFF SDIV DUP3 SLT PUSH1 0x0 DUP5 SLT PUSH1 0x0 DUP5 SLT AND AND ISZERO PUSH2 0xA95 JUMPI PUSH2 0xA94 PUSH2 0xB9F JUMP JUMPDEST JUMPDEST DUP3 DUP3 MUL SWAP1 POP SWAP3 SWAP2 POP POP JUMP JUMPDEST PUSH1 0x0 PUSH2 0xAAB DUP3 PUSH2 0xB36 JUMP JUMPDEST SWAP2 POP PUSH2 0xAB6 DUP4 PUSH2 0xB36 JUMP JUMPDEST SWAP3 POP DUP2 PUSH32 0xFFFFFFFFFFFFFFFFFFFFFFFFFFFFFFFFFFFFFFFFFFFFFFFFFFFFFFFFFFFFFFFF DIV DUP4 GT DUP3 ISZERO ISZERO AND ISZERO PUSH2 0xAEF JUMPI PUSH2 0xAEE PUSH2 0xB9F JUMP JUMPDEST JUMPDEST DUP3 DUP3 MUL SWAP1 POP SWAP3 SWAP2 POP POP JUMP JUMPDEST PUSH1 0x0 PUSH2 0xB05 DUP3 PUSH2 0xB16 JUMP JUMPDEST SWAP1 POP SWAP2 SWAP1 POP JUMP JUMPDEST PUSH1 0x0 DUP2 SWAP1 POP SWAP2 SWAP1 POP JUMP JUMPDEST PUSH1 0x0 PUSH20 0xFFFFFFFFFFFFFFFFFFFFFFFFFFFFFFFFFFFFFFFF DUP3 AND SWAP1 POP SWAP2 SWAP1 POP JUMP JUMPDEST PUSH1 0x0 DUP2 SWAP1 POP SWAP2 SWAP1 POP JUMP JUMPDEST PUSH1 0x0 PUSH10 0xFFFFFFFFFFFFFFFFFFFF DUP3 AND SWAP1 POP SWAP2 SWAP1 POP JUMP JUMPDEST PUSH1 0x0 PUSH2 0xB61 DUP3 PUSH2 0xB36 JUMP JUMPDEST SWAP2 POP PUSH32 0xFFFFFFFFFFFFFFFFFFFFFFFFFFFFFFFFFFFFFFFFFFFFFFFFFFFFFFFFFFFFFFFF DUP3 EQ ISZERO PUSH2 0xB94 JUMPI PUSH2 0xB93 PUSH2 0xB9F JUMP JUMPDEST JUMPDEST PUSH1 0x1 DUP3 ADD SWAP1 POP SWAP2 SWAP1 POP JUMP JUMPDEST PUSH32 0x4E487B7100000000000000000000000000000000000000000000000000000000 PUSH1 0x0 MSTORE PUSH1 0x11 PUSH1 0x4 MSTORE PUSH1 0x24 PUSH1 0x0 REVERT JUMPDEST PUSH32 0x4E487B7100000000000000000000000000000000000000000000000000000000 PUSH1 0x0 MSTORE PUSH1 0x12 PUSH1 0x4 MSTORE PUSH1 0x24 PUSH1 0x0 REVERT JUMPDEST PUSH32 0x4E487B7100000000000000000000000000000000000000000000000000000000 PUSH1 0x0 MSTORE PUSH1 0x32 PUSH1 0x4 MSTORE PUSH1 0x24 PUSH1 0x0 REVERT JUMPDEST PUSH32 0x4E487B7100000000000000000000000000000000000000000000000000000000 PUSH1 0x0 MSTORE PUSH1 0x41 PUSH1 0x4 MSTORE PUSH1 0x24 PUSH1 0x0 REVERT JUMPDEST PUSH1 0x0 DUP1 REVERT JUMPDEST PUSH32 0x54686520616D6F756E74206973206C657373207468616E203145544821205472 PUSH1 0x0 DUP3 ADD MSTORE PUSH32 0x7920416761696E2E000000000000000000000000000000000000000000000000 PUSH1 0x20 DUP3 ADD MSTORE POP JUMP JUMPDEST PUSH32 0x596F7520617265206E6F7420746865204F776E65722100000000000000000000 PUSH1 0x0 DUP3 ADD MSTORE POP JUMP JUMPDEST PUSH32 0x53656E64204661696C6564000000000000000000000000000000000000000000 PUSH1 0x0 DUP3 ADD MSTORE POP JUMP JUMPDEST POP JUMP JUMPDEST PUSH2 0xD0D DUP2 PUSH2 0xAFA JUMP JUMPDEST DUP2 EQ PUSH2 0xD18 JUMPI PUSH1 0x0 DUP1 REVERT JUMPDEST POP JUMP JUMPDEST PUSH2 0xD24 DUP2 PUSH2 0xB0C JUMP JUMPDEST DUP2 EQ PUSH2 0xD2F JUMPI PUSH1 0x0 DUP1 REVERT JUMPDEST POP JUMP JUMPDEST PUSH2 0xD3B DUP2 PUSH2 0xB36 JUMP JUMPDEST DUP2 EQ PUSH2 0xD46 JUMPI PUSH1 0x0 DUP1 REVERT JUMPDEST POP JUMP JUMPDEST PUSH2 0xD52 DUP2 PUSH2 0xB40 JUMP JUMPDEST DUP2 EQ PUSH2 0xD5D JUMPI PUSH1 0x0 DUP1 REVERT JUMPDEST POP JUMP INVALID LOG2 PUSH5 0x6970667358 0x22 SLT KECCAK256 DUP8 AND PUSH7 0xFA46527139800E 0xED DIFFICULTY 0xC9 0xD2 DUP12 0x5E 0xF7 0xC3 0xAA 0xBE ISZERO 0xB6 EXTCODEHASH SWAP10 SLT SSTORE RETURNDATACOPY 0xCC MSIZE DUP3 0xD9 SAR PUSH5 0x736F6C6343 STOP ADDMOD SMOD STOP CALLER "
				},
				"gasEstimates": {
					"creation": {
						"codeDepositCost": "695600",
						"executionCost": "47100",
						"totalCost": "742700"
					},
					"external": {
						"adressToAmountFunded(address)": "2814",
						"fund()": "infinite",
						"funders(uint256)": "5022",
						"minUSD()": "2517",
						"owner()": "2536",
						"withdraw()": "infinite"
					}
				},
				"methodIdentifiers": {
					"adressToAmountFunded(address)": "55f2a7d5",
					"fund()": "b60d4288",
					"funders(uint256)": "dc0d3dff",
					"minUSD()": "dc992aa0",
					"owner()": "8da5cb5b",
					"withdraw()": "3ccfd60b"
				}
			},
			"storageLayout": {
				"storage": [
					{
						"astId": 56,
						"contract": "contracts/FundMe.sol:FundMe",
						"label": "minUSD",
						"offset": 0,
						"slot": "0",
						"type": "t_uint256"
					},
					{
						"astId": 59,
						"contract": "contracts/FundMe.sol:FundMe",
						"label": "funders",
						"offset": 0,
						"slot": "1",
						"type": "t_array(t_address)dyn_storage"
					},
					{
						"astId": 63,
						"contract": "contracts/FundMe.sol:FundMe",
						"label": "adressToAmountFunded",
						"offset": 0,
						"slot": "2",
						"type": "t_mapping(t_address,t_uint256)"
					},
					{
						"astId": 65,
						"contract": "contracts/FundMe.sol:FundMe",
						"label": "owner",
						"offset": 0,
						"slot": "3",
						"type": "t_address"
					}
				],
				"types": {
					"t_address": {
						"encoding": "inplace",
						"label": "address",
						"numberOfBytes": "20"
					},
					"t_array(t_address)dyn_storage": {
						"base": "t_address",
						"encoding": "dynamic_array",
						"label": "address[]",
						"numberOfBytes": "32"
					},
					"t_mapping(t_address,t_uint256)": {
						"encoding": "mapping",
						"key": "t_address",
						"label": "mapping(address => uint256)",
						"numberOfBytes": "32",
						"value": "t_uint256"
					},
					"t_uint256": {
						"encoding": "inplace",
						"label": "uint256",
						"numberOfBytes": "32"
					}
				}
			},
			"userdoc": {
				"kind": "user",
				"methods": {},
				"version": 1
			}
		}
	}
}