{
	"contracts/FundMe.sol": {
		"FundMe": {
			"abi": [
				{
					"inputs": [],
					"name": "fund",
					"outputs": [],
					"stateMutability": "payable",
					"type": "function"
				},
				{
					"inputs": [],
					"name": "getPrice",
					"outputs": [
						{
							"internalType": "uint256",
							"name": "",
							"type": "uint256"
						}
					],
					"stateMutability": "view",
					"type": "function"
				},
				{
					"inputs": [],
					"name": "minUSD",
					"outputs": [
						{
							"internalType": "uint256",
							"name": "",
							"type": "uint256"
						}
					],
					"stateMutability": "view",
					"type": "function"
				}
			],
			"devdoc": {
				"kind": "dev",
				"methods": {},
				"version": 1
			},
			"evm": {
				"assembly": "    /* \"contracts/FundMe.sol\":222:1283  contract FundMe {\r... */\n  mstore(0x40, 0x80)\n    /* \"contracts/FundMe.sol\":269:271  50 */\n  0x32\n    /* \"contracts/FundMe.sol\":247:271  uint256 public minUSD=50 */\n  0x00\n  sstore\n    /* \"contracts/FundMe.sol\":222:1283  contract FundMe {\r... */\n  callvalue\n  dup1\n  iszero\n  tag_1\n  jumpi\n  0x00\n  dup1\n  revert\ntag_1:\n  pop\n  dataSize(sub_0)\n  dup1\n  dataOffset(sub_0)\n  0x00\n  codecopy\n  0x00\n  return\nstop\n\nsub_0: assembly {\n        /* \"contracts/FundMe.sol\":222:1283  contract FundMe {\r... */\n      mstore(0x40, 0x80)\n      jumpi(tag_1, lt(calldatasize, 0x04))\n      shr(0xe0, calldataload(0x00))\n      dup1\n      0x98d5fdca\n      eq\n      tag_2\n      jumpi\n      dup1\n      0xb60d4288\n      eq\n      tag_3\n      jumpi\n      dup1\n      0xdc992aa0\n      eq\n      tag_4\n      jumpi\n    tag_1:\n      0x00\n      dup1\n      revert\n        /* \"contracts/FundMe.sol\":580:1195  function getPrice() public view returns(uint256){\r... */\n    tag_2:\n      callvalue\n      dup1\n      iszero\n      tag_5\n      jumpi\n      0x00\n      dup1\n      revert\n    tag_5:\n      pop\n      tag_6\n      tag_7\n      jump\t// in\n    tag_6:\n      mload(0x40)\n      tag_8\n      swap2\n      swap1\n      tag_9\n      jump\t// in\n    tag_8:\n      mload(0x40)\n      dup1\n      swap2\n      sub\n      swap1\n      return\n        /* \"contracts/FundMe.sol\":280:572  function fund() public payable{\r... */\n    tag_3:\n      tag_10\n      tag_11\n      jump\t// in\n    tag_10:\n      stop\n        /* \"contracts/FundMe.sol\":247:271  uint256 public minUSD=50 */\n    tag_4:\n      callvalue\n      dup1\n      iszero\n      tag_12\n      jumpi\n      0x00\n      dup1\n      revert\n    tag_12:\n      pop\n      tag_13\n      tag_14\n      jump\t// in\n    tag_13:\n      mload(0x40)\n      tag_15\n      swap2\n      swap1\n      tag_9\n      jump\t// in\n    tag_15:\n      mload(0x40)\n      dup1\n      swap2\n      sub\n      swap1\n      return\n        /* \"contracts/FundMe.sol\":580:1195  function getPrice() public view returns(uint256){\r... */\n    tag_7:\n        /* \"contracts/FundMe.sol\":620:627  uint256 */\n      0x00\n        /* \"contracts/FundMe.sol\":934:965  AggregatorV3Interface priceFeed */\n      dup1\n        /* \"contracts/FundMe.sol\":990:1032  0xD4a33860578De61DBAbDc8BFdb98FD742fA7028e */\n      0xd4a33860578de61dbabdc8bfdb98fd742fa7028e\n        /* \"contracts/FundMe.sol\":934:1033  AggregatorV3Interface priceFeed = AggregatorV3Interface(0xD4a33860578De61DBAbDc8BFdb98FD742fA7028e) */\n      swap1\n      pop\n        /* \"contracts/FundMe.sol\":1046:1055  int price */\n      0x00\n        /* \"contracts/FundMe.sol\":1062:1071  priceFeed */\n      dup2\n        /* \"contracts/FundMe.sol\":1062:1087  priceFeed.latestRoundData */\n      0xffffffffffffffffffffffffffffffffffffffff\n      and\n      0xfeaf968c\n        /* \"contracts/FundMe.sol\":1062:1089  priceFeed.latestRoundData() */\n      mload(0x40)\n      dup2\n      0xffffffff\n      and\n      0xe0\n      shl\n      dup2\n      mstore\n      0x04\n      add\n      0xa0\n      mload(0x40)\n      dup1\n      dup4\n      sub\n      dup2\n      dup7\n      dup1\n      extcodesize\n      iszero\n      dup1\n      iszero\n      tag_17\n      jumpi\n      0x00\n      dup1\n      revert\n    tag_17:\n      pop\n      gas\n      staticcall\n      iszero\n      dup1\n      iszero\n      tag_19\n      jumpi\n      returndatasize\n      0x00\n      dup1\n      returndatacopy\n      revert(0x00, returndatasize)\n    tag_19:\n      pop\n      pop\n      pop\n      pop\n      mload(0x40)\n      returndatasize\n      not(0x1f)\n      0x1f\n      dup3\n      add\n      and\n      dup3\n      add\n      dup1\n      0x40\n      mstore\n      pop\n      dup2\n      add\n      swap1\n      tag_20\n      swap2\n      swap1\n      tag_21\n      jump\t// in\n    tag_20:\n        /* \"contracts/FundMe.sol\":1044:1089  (,int price,,,) = priceFeed.latestRoundData() */\n      pop\n      pop\n      pop\n      swap2\n      pop\n      pop\n        /* \"contracts/FundMe.sol\":1145:1149  1e10 */\n      0x02540be400\n        /* \"contracts/FundMe.sol\":1137:1142  price */\n      dup2\n        /* \"contracts/FundMe.sol\":1137:1149  price * 1e10 */\n      tag_22\n      swap2\n      swap1\n      tag_23\n      jump\t// in\n    tag_22:\n        /* \"contracts/FundMe.sol\":1122:1150  return uint256(price * 1e10) */\n      swap3\n      pop\n      pop\n      pop\n        /* \"contracts/FundMe.sol\":580:1195  function getPrice() public view returns(uint256){\r... */\n      swap1\n      jump\t// out\n        /* \"contracts/FundMe.sol\":280:572  function fund() public payable{\r... */\n    tag_11:\n        /* \"contracts/FundMe.sol\":456:462  minUSD */\n      sload(0x00)\n        /* \"contracts/FundMe.sol\":443:452  msg.value */\n      callvalue\n        /* \"contracts/FundMe.sol\":443:462  msg.value >= minUSD */\n      lt\n      iszero\n        /* \"contracts/FundMe.sol\":435:507  require(msg.value >= minUSD, \"The amount is less than 1ETH! Try Again.\") */\n      tag_25\n      jumpi\n      mload(0x40)\n      0x08c379a000000000000000000000000000000000000000000000000000000000\n      dup2\n      mstore\n      0x04\n      add\n      tag_26\n      swap1\n      tag_27\n      jump\t// in\n    tag_26:\n      mload(0x40)\n      dup1\n      swap2\n      sub\n      swap1\n      revert\n    tag_25:\n        /* \"contracts/FundMe.sol\":280:572  function fund() public payable{\r... */\n      jump\t// out\n        /* \"contracts/FundMe.sol\":247:271  uint256 public minUSD=50 */\n    tag_14:\n      sload(0x00)\n      dup2\n      jump\t// out\n        /* \"#utility.yul\":7:148   */\n    tag_29:\n        /* \"#utility.yul\":63:68   */\n      0x00\n        /* \"#utility.yul\":94:100   */\n      dup2\n        /* \"#utility.yul\":88:101   */\n      mload\n        /* \"#utility.yul\":79:101   */\n      swap1\n      pop\n        /* \"#utility.yul\":110:142   */\n      tag_31\n        /* \"#utility.yul\":136:141   */\n      dup2\n        /* \"#utility.yul\":110:142   */\n      tag_32\n      jump\t// in\n    tag_31:\n        /* \"#utility.yul\":7:148   */\n      swap3\n      swap2\n      pop\n      pop\n      jump\t// out\n        /* \"#utility.yul\":154:297   */\n    tag_33:\n        /* \"#utility.yul\":211:216   */\n      0x00\n        /* \"#utility.yul\":242:248   */\n      dup2\n        /* \"#utility.yul\":236:249   */\n      mload\n        /* \"#utility.yul\":227:249   */\n      swap1\n      pop\n        /* \"#utility.yul\":258:291   */\n      tag_35\n        /* \"#utility.yul\":285:290   */\n      dup2\n        /* \"#utility.yul\":258:291   */\n      tag_36\n      jump\t// in\n    tag_35:\n        /* \"#utility.yul\":154:297   */\n      swap3\n      swap2\n      pop\n      pop\n      jump\t// out\n        /* \"#utility.yul\":303:444   */\n    tag_37:\n        /* \"#utility.yul\":359:364   */\n      0x00\n        /* \"#utility.yul\":390:396   */\n      dup2\n        /* \"#utility.yul\":384:397   */\n      mload\n        /* \"#utility.yul\":375:397   */\n      swap1\n      pop\n        /* \"#utility.yul\":406:438   */\n      tag_39\n        /* \"#utility.yul\":432:437   */\n      dup2\n        /* \"#utility.yul\":406:438   */\n      tag_40\n      jump\t// in\n    tag_39:\n        /* \"#utility.yul\":303:444   */\n      swap3\n      swap2\n      pop\n      pop\n      jump\t// out\n        /* \"#utility.yul\":450:1421   */\n    tag_21:\n        /* \"#utility.yul\":553:559   */\n      0x00\n        /* \"#utility.yul\":561:567   */\n      dup1\n        /* \"#utility.yul\":569:575   */\n      0x00\n        /* \"#utility.yul\":577:583   */\n      dup1\n        /* \"#utility.yul\":585:591   */\n      0x00\n        /* \"#utility.yul\":634:637   */\n      0xa0\n        /* \"#utility.yul\":622:631   */\n      dup7\n        /* \"#utility.yul\":613:620   */\n      dup9\n        /* \"#utility.yul\":609:632   */\n      sub\n        /* \"#utility.yul\":605:638   */\n      slt\n        /* \"#utility.yul\":602:722   */\n      iszero\n      tag_42\n      jumpi\n        /* \"#utility.yul\":641:720   */\n      tag_43\n      tag_44\n      jump\t// in\n    tag_43:\n        /* \"#utility.yul\":602:722   */\n    tag_42:\n        /* \"#utility.yul\":761:762   */\n      0x00\n        /* \"#utility.yul\":786:849   */\n      tag_45\n        /* \"#utility.yul\":841:848   */\n      dup9\n        /* \"#utility.yul\":832:838   */\n      dup3\n        /* \"#utility.yul\":821:830   */\n      dup10\n        /* \"#utility.yul\":817:839   */\n      add\n        /* \"#utility.yul\":786:849   */\n      tag_37\n      jump\t// in\n    tag_45:\n        /* \"#utility.yul\":776:849   */\n      swap6\n      pop\n        /* \"#utility.yul\":732:859   */\n      pop\n        /* \"#utility.yul\":898:900   */\n      0x20\n        /* \"#utility.yul\":924:987   */\n      tag_46\n        /* \"#utility.yul\":979:986   */\n      dup9\n        /* \"#utility.yul\":970:976   */\n      dup3\n        /* \"#utility.yul\":959:968   */\n      dup10\n        /* \"#utility.yul\":955:977   */\n      add\n        /* \"#utility.yul\":924:987   */\n      tag_29\n      jump\t// in\n    tag_46:\n        /* \"#utility.yul\":914:987   */\n      swap5\n      pop\n        /* \"#utility.yul\":869:997   */\n      pop\n        /* \"#utility.yul\":1036:1038   */\n      0x40\n        /* \"#utility.yul\":1062:1126   */\n      tag_47\n        /* \"#utility.yul\":1118:1125   */\n      dup9\n        /* \"#utility.yul\":1109:1115   */\n      dup3\n        /* \"#utility.yul\":1098:1107   */\n      dup10\n        /* \"#utility.yul\":1094:1116   */\n      add\n        /* \"#utility.yul\":1062:1126   */\n      tag_33\n      jump\t// in\n    tag_47:\n        /* \"#utility.yul\":1052:1126   */\n      swap4\n      pop\n        /* \"#utility.yul\":1007:1136   */\n      pop\n        /* \"#utility.yul\":1175:1177   */\n      0x60\n        /* \"#utility.yul\":1201:1265   */\n      tag_48\n        /* \"#utility.yul\":1257:1264   */\n      dup9\n        /* \"#utility.yul\":1248:1254   */\n      dup3\n        /* \"#utility.yul\":1237:1246   */\n      dup10\n        /* \"#utility.yul\":1233:1255   */\n      add\n        /* \"#utility.yul\":1201:1265   */\n      tag_33\n      jump\t// in\n    tag_48:\n        /* \"#utility.yul\":1191:1265   */\n      swap3\n      pop\n        /* \"#utility.yul\":1146:1275   */\n      pop\n        /* \"#utility.yul\":1314:1317   */\n      0x80\n        /* \"#utility.yul\":1341:1404   */\n      tag_49\n        /* \"#utility.yul\":1396:1403   */\n      dup9\n        /* \"#utility.yul\":1387:1393   */\n      dup3\n        /* \"#utility.yul\":1376:1385   */\n      dup10\n        /* \"#utility.yul\":1372:1394   */\n      add\n        /* \"#utility.yul\":1341:1404   */\n      tag_37\n      jump\t// in\n    tag_49:\n        /* \"#utility.yul\":1331:1404   */\n      swap2\n      pop\n        /* \"#utility.yul\":1285:1414   */\n      pop\n        /* \"#utility.yul\":450:1421   */\n      swap3\n      swap6\n      pop\n      swap3\n      swap6\n      swap1\n      swap4\n      pop\n      jump\t// out\n        /* \"#utility.yul\":1427:1793   */\n    tag_50:\n        /* \"#utility.yul\":1569:1572   */\n      0x00\n        /* \"#utility.yul\":1590:1657   */\n      tag_52\n        /* \"#utility.yul\":1654:1656   */\n      0x28\n        /* \"#utility.yul\":1649:1652   */\n      dup4\n        /* \"#utility.yul\":1590:1657   */\n      tag_53\n      jump\t// in\n    tag_52:\n        /* \"#utility.yul\":1583:1657   */\n      swap2\n      pop\n        /* \"#utility.yul\":1666:1759   */\n      tag_54\n        /* \"#utility.yul\":1755:1758   */\n      dup3\n        /* \"#utility.yul\":1666:1759   */\n      tag_55\n      jump\t// in\n    tag_54:\n        /* \"#utility.yul\":1784:1786   */\n      0x40\n        /* \"#utility.yul\":1779:1782   */\n      dup3\n        /* \"#utility.yul\":1775:1787   */\n      add\n        /* \"#utility.yul\":1768:1787   */\n      swap1\n      pop\n        /* \"#utility.yul\":1427:1793   */\n      swap2\n      swap1\n      pop\n      jump\t// out\n        /* \"#utility.yul\":1799:1917   */\n    tag_56:\n        /* \"#utility.yul\":1886:1910   */\n      tag_58\n        /* \"#utility.yul\":1904:1909   */\n      dup2\n        /* \"#utility.yul\":1886:1910   */\n      tag_59\n      jump\t// in\n    tag_58:\n        /* \"#utility.yul\":1881:1884   */\n      dup3\n        /* \"#utility.yul\":1874:1911   */\n      mstore\n        /* \"#utility.yul\":1799:1917   */\n      pop\n      pop\n      jump\t// out\n        /* \"#utility.yul\":1923:2342   */\n    tag_27:\n        /* \"#utility.yul\":2089:2093   */\n      0x00\n        /* \"#utility.yul\":2127:2129   */\n      0x20\n        /* \"#utility.yul\":2116:2125   */\n      dup3\n        /* \"#utility.yul\":2112:2130   */\n      add\n        /* \"#utility.yul\":2104:2130   */\n      swap1\n      pop\n        /* \"#utility.yul\":2176:2185   */\n      dup2\n        /* \"#utility.yul\":2170:2174   */\n      dup2\n        /* \"#utility.yul\":2166:2186   */\n      sub\n        /* \"#utility.yul\":2162:2163   */\n      0x00\n        /* \"#utility.yul\":2151:2160   */\n      dup4\n        /* \"#utility.yul\":2147:2164   */\n      add\n        /* \"#utility.yul\":2140:2187   */\n      mstore\n        /* \"#utility.yul\":2204:2335   */\n      tag_61\n        /* \"#utility.yul\":2330:2334   */\n      dup2\n        /* \"#utility.yul\":2204:2335   */\n      tag_50\n      jump\t// in\n    tag_61:\n        /* \"#utility.yul\":2196:2335   */\n      swap1\n      pop\n        /* \"#utility.yul\":1923:2342   */\n      swap2\n      swap1\n      pop\n      jump\t// out\n        /* \"#utility.yul\":2348:2570   */\n    tag_9:\n        /* \"#utility.yul\":2441:2445   */\n      0x00\n        /* \"#utility.yul\":2479:2481   */\n      0x20\n        /* \"#utility.yul\":2468:2477   */\n      dup3\n        /* \"#utility.yul\":2464:2482   */\n      add\n        /* \"#utility.yul\":2456:2482   */\n      swap1\n      pop\n        /* \"#utility.yul\":2492:2563   */\n      tag_63\n        /* \"#utility.yul\":2560:2561   */\n      0x00\n        /* \"#utility.yul\":2549:2558   */\n      dup4\n        /* \"#utility.yul\":2545:2562   */\n      add\n        /* \"#utility.yul\":2536:2542   */\n      dup5\n        /* \"#utility.yul\":2492:2563   */\n      tag_56\n      jump\t// in\n    tag_63:\n        /* \"#utility.yul\":2348:2570   */\n      swap3\n      swap2\n      pop\n      pop\n      jump\t// out\n        /* \"#utility.yul\":2657:2826   */\n    tag_53:\n        /* \"#utility.yul\":2741:2752   */\n      0x00\n        /* \"#utility.yul\":2775:2781   */\n      dup3\n        /* \"#utility.yul\":2770:2773   */\n      dup3\n        /* \"#utility.yul\":2763:2782   */\n      mstore\n        /* \"#utility.yul\":2815:2819   */\n      0x20\n        /* \"#utility.yul\":2810:2813   */\n      dup3\n        /* \"#utility.yul\":2806:2820   */\n      add\n        /* \"#utility.yul\":2791:2820   */\n      swap1\n      pop\n        /* \"#utility.yul\":2657:2826   */\n      swap3\n      swap2\n      pop\n      pop\n      jump\t// out\n        /* \"#utility.yul\":2832:3823   */\n    tag_23:\n        /* \"#utility.yul\":2871:2878   */\n      0x00\n        /* \"#utility.yul\":2894:2913   */\n      tag_68\n        /* \"#utility.yul\":2911:2912   */\n      dup3\n        /* \"#utility.yul\":2894:2913   */\n      tag_69\n      jump\t// in\n    tag_68:\n        /* \"#utility.yul\":2889:2913   */\n      swap2\n      pop\n        /* \"#utility.yul\":2927:2946   */\n      tag_70\n        /* \"#utility.yul\":2944:2945   */\n      dup4\n        /* \"#utility.yul\":2927:2946   */\n      tag_69\n      jump\t// in\n    tag_70:\n        /* \"#utility.yul\":2922:2946   */\n      swap3\n      pop\n        /* \"#utility.yul\":3128:3129   */\n      dup3\n        /* \"#utility.yul\":3060:3126   */\n      0x7fffffffffffffffffffffffffffffffffffffffffffffffffffffffffffffff\n        /* \"#utility.yul\":3056:3130   */\n      div\n        /* \"#utility.yul\":3053:3054   */\n      dup3\n        /* \"#utility.yul\":3050:3131   */\n      gt\n        /* \"#utility.yul\":3045:3046   */\n      0x00\n        /* \"#utility.yul\":3042:3043   */\n      dup5\n        /* \"#utility.yul\":3038:3047   */\n      sgt\n        /* \"#utility.yul\":3034:3035   */\n      0x00\n        /* \"#utility.yul\":3031:3032   */\n      dup5\n        /* \"#utility.yul\":3027:3036   */\n      sgt\n        /* \"#utility.yul\":3023:3048   */\n      and\n        /* \"#utility.yul\":3019:3132   */\n      and\n        /* \"#utility.yul\":3016:3155   */\n      iszero\n      tag_71\n      jumpi\n        /* \"#utility.yul\":3135:3153   */\n      tag_72\n      tag_73\n      jump\t// in\n    tag_72:\n        /* \"#utility.yul\":3016:3155   */\n    tag_71:\n        /* \"#utility.yul\":3339:3340   */\n      dup2\n        /* \"#utility.yul\":3271:3337   */\n      0x8000000000000000000000000000000000000000000000000000000000000000\n        /* \"#utility.yul\":3266:3341   */\n      sdiv\n        /* \"#utility.yul\":3263:3264   */\n      dup4\n        /* \"#utility.yul\":3259:3342   */\n      slt\n        /* \"#utility.yul\":3254:3255   */\n      0x00\n        /* \"#utility.yul\":3251:3252   */\n      dup5\n        /* \"#utility.yul\":3247:3256   */\n      slt\n        /* \"#utility.yul\":3243:3244   */\n      0x00\n        /* \"#utility.yul\":3240:3241   */\n      dup5\n        /* \"#utility.yul\":3236:3245   */\n      sgt\n        /* \"#utility.yul\":3232:3257   */\n      and\n        /* \"#utility.yul\":3228:3343   */\n      and\n        /* \"#utility.yul\":3225:3366   */\n      iszero\n      tag_74\n      jumpi\n        /* \"#utility.yul\":3346:3364   */\n      tag_75\n      tag_73\n      jump\t// in\n    tag_75:\n        /* \"#utility.yul\":3225:3366   */\n    tag_74:\n        /* \"#utility.yul\":3550:3551   */\n      dup3\n        /* \"#utility.yul\":3482:3548   */\n      0x8000000000000000000000000000000000000000000000000000000000000000\n        /* \"#utility.yul\":3477:3552   */\n      sdiv\n        /* \"#utility.yul\":3474:3475   */\n      dup3\n        /* \"#utility.yul\":3470:3553   */\n      slt\n        /* \"#utility.yul\":3465:3466   */\n      0x00\n        /* \"#utility.yul\":3462:3463   */\n      dup5\n        /* \"#utility.yul\":3458:3467   */\n      sgt\n        /* \"#utility.yul\":3454:3455   */\n      0x00\n        /* \"#utility.yul\":3451:3452   */\n      dup5\n        /* \"#utility.yul\":3447:3456   */\n      slt\n        /* \"#utility.yul\":3443:3468   */\n      and\n        /* \"#utility.yul\":3439:3554   */\n      and\n        /* \"#utility.yul\":3436:3577   */\n      iszero\n      tag_76\n      jumpi\n        /* \"#utility.yul\":3557:3575   */\n      tag_77\n      tag_73\n      jump\t// in\n    tag_77:\n        /* \"#utility.yul\":3436:3577   */\n    tag_76:\n        /* \"#utility.yul\":3760:3761   */\n      dup3\n        /* \"#utility.yul\":3692:3758   */\n      0x7fffffffffffffffffffffffffffffffffffffffffffffffffffffffffffffff\n        /* \"#utility.yul\":3687:3762   */\n      sdiv\n        /* \"#utility.yul\":3684:3685   */\n      dup3\n        /* \"#utility.yul\":3680:3763   */\n      slt\n        /* \"#utility.yul\":3675:3676   */\n      0x00\n        /* \"#utility.yul\":3672:3673   */\n      dup5\n        /* \"#utility.yul\":3668:3677   */\n      slt\n        /* \"#utility.yul\":3664:3665   */\n      0x00\n        /* \"#utility.yul\":3661:3662   */\n      dup5\n        /* \"#utility.yul\":3657:3666   */\n      slt\n        /* \"#utility.yul\":3653:3678   */\n      and\n        /* \"#utility.yul\":3649:3764   */\n      and\n        /* \"#utility.yul\":3646:3787   */\n      iszero\n      tag_78\n      jumpi\n        /* \"#utility.yul\":3767:3785   */\n      tag_79\n      tag_73\n      jump\t// in\n    tag_79:\n        /* \"#utility.yul\":3646:3787   */\n    tag_78:\n        /* \"#utility.yul\":3815:3816   */\n      dup3\n        /* \"#utility.yul\":3812:3813   */\n      dup3\n        /* \"#utility.yul\":3808:3817   */\n      mul\n        /* \"#utility.yul\":3797:3817   */\n      swap1\n      pop\n        /* \"#utility.yul\":2832:3823   */\n      swap3\n      swap2\n      pop\n      pop\n      jump\t// out\n        /* \"#utility.yul\":3829:3905   */\n    tag_69:\n        /* \"#utility.yul\":3865:3872   */\n      0x00\n        /* \"#utility.yul\":3894:3899   */\n      dup2\n        /* \"#utility.yul\":3883:3899   */\n      swap1\n      pop\n        /* \"#utility.yul\":3829:3905   */\n      swap2\n      swap1\n      pop\n      jump\t// out\n        /* \"#utility.yul\":3911:3988   */\n    tag_59:\n        /* \"#utility.yul\":3948:3955   */\n      0x00\n        /* \"#utility.yul\":3977:3982   */\n      dup2\n        /* \"#utility.yul\":3966:3982   */\n      swap1\n      pop\n        /* \"#utility.yul\":3911:3988   */\n      swap2\n      swap1\n      pop\n      jump\t// out\n        /* \"#utility.yul\":3994:4099   */\n    tag_82:\n        /* \"#utility.yul\":4030:4037   */\n      0x00\n        /* \"#utility.yul\":4070:4092   */\n      0xffffffffffffffffffff\n        /* \"#utility.yul\":4063:4068   */\n      dup3\n        /* \"#utility.yul\":4059:4093   */\n      and\n        /* \"#utility.yul\":4048:4093   */\n      swap1\n      pop\n        /* \"#utility.yul\":3994:4099   */\n      swap2\n      swap1\n      pop\n      jump\t// out\n        /* \"#utility.yul\":4105:4285   */\n    tag_73:\n        /* \"#utility.yul\":4153:4230   */\n      0x4e487b7100000000000000000000000000000000000000000000000000000000\n        /* \"#utility.yul\":4150:4151   */\n      0x00\n        /* \"#utility.yul\":4143:4231   */\n      mstore\n        /* \"#utility.yul\":4250:4254   */\n      0x11\n        /* \"#utility.yul\":4247:4248   */\n      0x04\n        /* \"#utility.yul\":4240:4255   */\n      mstore\n        /* \"#utility.yul\":4274:4278   */\n      0x24\n        /* \"#utility.yul\":4271:4272   */\n      0x00\n        /* \"#utility.yul\":4264:4279   */\n      revert\n        /* \"#utility.yul\":4414:4531   */\n    tag_44:\n        /* \"#utility.yul\":4523:4524   */\n      0x00\n        /* \"#utility.yul\":4520:4521   */\n      dup1\n        /* \"#utility.yul\":4513:4525   */\n      revert\n        /* \"#utility.yul\":4537:4764   */\n    tag_55:\n        /* \"#utility.yul\":4677:4711   */\n      0x54686520616d6f756e74206973206c657373207468616e203145544821205472\n        /* \"#utility.yul\":4673:4674   */\n      0x00\n        /* \"#utility.yul\":4665:4671   */\n      dup3\n        /* \"#utility.yul\":4661:4675   */\n      add\n        /* \"#utility.yul\":4654:4712   */\n      mstore\n        /* \"#utility.yul\":4746:4756   */\n      0x7920416761696e2e000000000000000000000000000000000000000000000000\n        /* \"#utility.yul\":4741:4743   */\n      0x20\n        /* \"#utility.yul\":4733:4739   */\n      dup3\n        /* \"#utility.yul\":4729:4744   */\n      add\n        /* \"#utility.yul\":4722:4757   */\n      mstore\n        /* \"#utility.yul\":4537:4764   */\n      pop\n      jump\t// out\n        /* \"#utility.yul\":4770:4890   */\n    tag_32:\n        /* \"#utility.yul\":4842:4865   */\n      tag_90\n        /* \"#utility.yul\":4859:4864   */\n      dup2\n        /* \"#utility.yul\":4842:4865   */\n      tag_69\n      jump\t// in\n    tag_90:\n        /* \"#utility.yul\":4835:4840   */\n      dup2\n        /* \"#utility.yul\":4832:4866   */\n      eq\n        /* \"#utility.yul\":4822:4884   */\n      tag_91\n      jumpi\n        /* \"#utility.yul\":4880:4881   */\n      0x00\n        /* \"#utility.yul\":4877:4878   */\n      dup1\n        /* \"#utility.yul\":4870:4882   */\n      revert\n        /* \"#utility.yul\":4822:4884   */\n    tag_91:\n        /* \"#utility.yul\":4770:4890   */\n      pop\n      jump\t// out\n        /* \"#utility.yul\":4896:5018   */\n    tag_36:\n        /* \"#utility.yul\":4969:4993   */\n      tag_93\n        /* \"#utility.yul\":4987:4992   */\n      dup2\n        /* \"#utility.yul\":4969:4993   */\n      tag_59\n      jump\t// in\n    tag_93:\n        /* \"#utility.yul\":4962:4967   */\n      dup2\n        /* \"#utility.yul\":4959:4994   */\n      eq\n        /* \"#utility.yul\":4949:5012   */\n      tag_94\n      jumpi\n        /* \"#utility.yul\":5008:5009   */\n      0x00\n        /* \"#utility.yul\":5005:5006   */\n      dup1\n        /* \"#utility.yul\":4998:5010   */\n      revert\n        /* \"#utility.yul\":4949:5012   */\n    tag_94:\n        /* \"#utility.yul\":4896:5018   */\n      pop\n      jump\t// out\n        /* \"#utility.yul\":5024:5144   */\n    tag_40:\n        /* \"#utility.yul\":5096:5119   */\n      tag_96\n        /* \"#utility.yul\":5113:5118   */\n      dup2\n        /* \"#utility.yul\":5096:5119   */\n      tag_82\n      jump\t// in\n    tag_96:\n        /* \"#utility.yul\":5089:5094   */\n      dup2\n        /* \"#utility.yul\":5086:5120   */\n      eq\n        /* \"#utility.yul\":5076:5138   */\n      tag_97\n      jumpi\n        /* \"#utility.yul\":5134:5135   */\n      0x00\n        /* \"#utility.yul\":5131:5132   */\n      dup1\n        /* \"#utility.yul\":5124:5136   */\n      revert\n        /* \"#utility.yul\":5076:5138   */\n    tag_97:\n        /* \"#utility.yul\":5024:5144   */\n      pop\n      jump\t// out\n\n    auxdata: 0xa264697066735822122039223e5529b0e8f4026347700e23649d35c19cd70efd2647786d170d113ef16164736f6c63430008070033\n}\n",
				"bytecode": {
					"linkReferences": {},
					"object": "6080604052603260005534801561001557600080fd5b50610515806100256000396000f3fe6080604052600436106100345760003560e01c806398d5fdca14610039578063b60d428814610064578063dc992aa01461006e575b600080fd5b34801561004557600080fd5b5061004e610099565b60405161005b91906102aa565b60405180910390f35b61006c610151565b005b34801561007a57600080fd5b50610083610198565b60405161009091906102aa565b60405180910390f35b60008073d4a33860578de61dbabdc8bfdb98fd742fa7028e905060008173ffffffffffffffffffffffffffffffffffffffff1663feaf968c6040518163ffffffff1660e01b815260040160a06040518083038186803b1580156100fb57600080fd5b505afa15801561010f573d6000803e3d6000fd5b505050506040513d601f19601f8201168201806040525081019061013391906101dd565b5050509150506402540be4008161014a91906102d6565b9250505090565b600054341015610196576040517f08c379a000000000000000000000000000000000000000000000000000000000815260040161018d9061028a565b60405180910390fd5b565b60005481565b6000815190506101ad8161049a565b92915050565b6000815190506101c2816104b1565b92915050565b6000815190506101d7816104c8565b92915050565b600080600080600060a086880312156101f9576101f8610446565b5b6000610207888289016101c8565b95505060206102188882890161019e565b9450506040610229888289016101b3565b935050606061023a888289016101b3565b925050608061024b888289016101c8565b9150509295509295909350565b60006102656028836102c5565b91506102708261044b565b604082019050919050565b610284816103f7565b82525050565b600060208201905081810360008301526102a381610258565b9050919050565b60006020820190506102bf600083018461027b565b92915050565b600082825260208201905092915050565b60006102e1826103ed565b91506102ec836103ed565b9250827f7fffffffffffffffffffffffffffffffffffffffffffffffffffffffffffffff048211600084136000841316161561032b5761032a610417565b5b817f8000000000000000000000000000000000000000000000000000000000000000058312600084126000841316161561036857610367610417565b5b827f800000000000000000000000000000000000000000000000000000000000000005821260008413600084121616156103a5576103a4610417565b5b827f7fffffffffffffffffffffffffffffffffffffffffffffffffffffffffffffff05821260008412600084121616156103e2576103e1610417565b5b828202905092915050565b6000819050919050565b6000819050919050565b600069ffffffffffffffffffff82169050919050565b7f4e487b7100000000000000000000000000000000000000000000000000000000600052601160045260246000fd5b600080fd5b7f54686520616d6f756e74206973206c657373207468616e20314554482120547260008201527f7920416761696e2e000000000000000000000000000000000000000000000000602082015250565b6104a3816103ed565b81146104ae57600080fd5b50565b6104ba816103f7565b81146104c557600080fd5b50565b6104d181610401565b81146104dc57600080fd5b5056fea264697066735822122039223e5529b0e8f4026347700e23649d35c19cd70efd2647786d170d113ef16164736f6c63430008070033",
					"opcodes": "PUSH1 0x80 PUSH1 0x40 MSTORE PUSH1 0x32 PUSH1 0x0 SSTORE CALLVALUE DUP1 ISZERO PUSH2 0x15 JUMPI PUSH1 0x0 DUP1 REVERT JUMPDEST POP PUSH2 0x515 DUP1 PUSH2 0x25 PUSH1 0x0 CODECOPY PUSH1 0x0 RETURN INVALID PUSH1 0x80 PUSH1 0x40 MSTORE PUSH1 0x4 CALLDATASIZE LT PUSH2 0x34 JUMPI PUSH1 0x0 CALLDATALOAD PUSH1 0xE0 SHR DUP1 PUSH4 0x98D5FDCA EQ PUSH2 0x39 JUMPI DUP1 PUSH4 0xB60D4288 EQ PUSH2 0x64 JUMPI DUP1 PUSH4 0xDC992AA0 EQ PUSH2 0x6E JUMPI JUMPDEST PUSH1 0x0 DUP1 REVERT JUMPDEST CALLVALUE DUP1 ISZERO PUSH2 0x45 JUMPI PUSH1 0x0 DUP1 REVERT JUMPDEST POP PUSH2 0x4E PUSH2 0x99 JUMP JUMPDEST PUSH1 0x40 MLOAD PUSH2 0x5B SWAP2 SWAP1 PUSH2 0x2AA JUMP JUMPDEST PUSH1 0x40 MLOAD DUP1 SWAP2 SUB SWAP1 RETURN JUMPDEST PUSH2 0x6C PUSH2 0x151 JUMP JUMPDEST STOP JUMPDEST CALLVALUE DUP1 ISZERO PUSH2 0x7A JUMPI PUSH1 0x0 DUP1 REVERT JUMPDEST POP PUSH2 0x83 PUSH2 0x198 JUMP JUMPDEST PUSH1 0x40 MLOAD PUSH2 0x90 SWAP2 SWAP1 PUSH2 0x2AA JUMP JUMPDEST PUSH1 0x40 MLOAD DUP1 SWAP2 SUB SWAP1 RETURN JUMPDEST PUSH1 0x0 DUP1 PUSH20 0xD4A33860578DE61DBABDC8BFDB98FD742FA7028E SWAP1 POP PUSH1 0x0 DUP2 PUSH20 0xFFFFFFFFFFFFFFFFFFFFFFFFFFFFFFFFFFFFFFFF AND PUSH4 0xFEAF968C PUSH1 0x40 MLOAD DUP2 PUSH4 0xFFFFFFFF AND PUSH1 0xE0 SHL DUP2 MSTORE PUSH1 0x4 ADD PUSH1 0xA0 PUSH1 0x40 MLOAD DUP1 DUP4 SUB DUP2 DUP7 DUP1 EXTCODESIZE ISZERO DUP1 ISZERO PUSH2 0xFB JUMPI PUSH1 0x0 DUP1 REVERT JUMPDEST POP GAS STATICCALL ISZERO DUP1 ISZERO PUSH2 0x10F JUMPI RETURNDATASIZE PUSH1 0x0 DUP1 RETURNDATACOPY RETURNDATASIZE PUSH1 0x0 REVERT JUMPDEST POP POP POP POP PUSH1 0x40 MLOAD RETURNDATASIZE PUSH1 0x1F NOT PUSH1 0x1F DUP3 ADD AND DUP3 ADD DUP1 PUSH1 0x40 MSTORE POP DUP2 ADD SWAP1 PUSH2 0x133 SWAP2 SWAP1 PUSH2 0x1DD JUMP JUMPDEST POP POP POP SWAP2 POP POP PUSH5 0x2540BE400 DUP2 PUSH2 0x14A SWAP2 SWAP1 PUSH2 0x2D6 JUMP JUMPDEST SWAP3 POP POP POP SWAP1 JUMP JUMPDEST PUSH1 0x0 SLOAD CALLVALUE LT ISZERO PUSH2 0x196 JUMPI PUSH1 0x40 MLOAD PUSH32 0x8C379A000000000000000000000000000000000000000000000000000000000 DUP2 MSTORE PUSH1 0x4 ADD PUSH2 0x18D SWAP1 PUSH2 0x28A JUMP JUMPDEST PUSH1 0x40 MLOAD DUP1 SWAP2 SUB SWAP1 REVERT JUMPDEST JUMP JUMPDEST PUSH1 0x0 SLOAD DUP2 JUMP JUMPDEST PUSH1 0x0 DUP2 MLOAD SWAP1 POP PUSH2 0x1AD DUP2 PUSH2 0x49A JUMP JUMPDEST SWAP3 SWAP2 POP POP JUMP JUMPDEST PUSH1 0x0 DUP2 MLOAD SWAP1 POP PUSH2 0x1C2 DUP2 PUSH2 0x4B1 JUMP JUMPDEST SWAP3 SWAP2 POP POP JUMP JUMPDEST PUSH1 0x0 DUP2 MLOAD SWAP1 POP PUSH2 0x1D7 DUP2 PUSH2 0x4C8 JUMP JUMPDEST SWAP3 SWAP2 POP POP JUMP JUMPDEST PUSH1 0x0 DUP1 PUSH1 0x0 DUP1 PUSH1 0x0 PUSH1 0xA0 DUP7 DUP9 SUB SLT ISZERO PUSH2 0x1F9 JUMPI PUSH2 0x1F8 PUSH2 0x446 JUMP JUMPDEST JUMPDEST PUSH1 0x0 PUSH2 0x207 DUP9 DUP3 DUP10 ADD PUSH2 0x1C8 JUMP JUMPDEST SWAP6 POP POP PUSH1 0x20 PUSH2 0x218 DUP9 DUP3 DUP10 ADD PUSH2 0x19E JUMP JUMPDEST SWAP5 POP POP PUSH1 0x40 PUSH2 0x229 DUP9 DUP3 DUP10 ADD PUSH2 0x1B3 JUMP JUMPDEST SWAP4 POP POP PUSH1 0x60 PUSH2 0x23A DUP9 DUP3 DUP10 ADD PUSH2 0x1B3 JUMP JUMPDEST SWAP3 POP POP PUSH1 0x80 PUSH2 0x24B DUP9 DUP3 DUP10 ADD PUSH2 0x1C8 JUMP JUMPDEST SWAP2 POP POP SWAP3 SWAP6 POP SWAP3 SWAP6 SWAP1 SWAP4 POP JUMP JUMPDEST PUSH1 0x0 PUSH2 0x265 PUSH1 0x28 DUP4 PUSH2 0x2C5 JUMP JUMPDEST SWAP2 POP PUSH2 0x270 DUP3 PUSH2 0x44B JUMP JUMPDEST PUSH1 0x40 DUP3 ADD SWAP1 POP SWAP2 SWAP1 POP JUMP JUMPDEST PUSH2 0x284 DUP2 PUSH2 0x3F7 JUMP JUMPDEST DUP3 MSTORE POP POP JUMP JUMPDEST PUSH1 0x0 PUSH1 0x20 DUP3 ADD SWAP1 POP DUP2 DUP2 SUB PUSH1 0x0 DUP4 ADD MSTORE PUSH2 0x2A3 DUP2 PUSH2 0x258 JUMP JUMPDEST SWAP1 POP SWAP2 SWAP1 POP JUMP JUMPDEST PUSH1 0x0 PUSH1 0x20 DUP3 ADD SWAP1 POP PUSH2 0x2BF PUSH1 0x0 DUP4 ADD DUP5 PUSH2 0x27B JUMP JUMPDEST SWAP3 SWAP2 POP POP JUMP JUMPDEST PUSH1 0x0 DUP3 DUP3 MSTORE PUSH1 0x20 DUP3 ADD SWAP1 POP SWAP3 SWAP2 POP POP JUMP JUMPDEST PUSH1 0x0 PUSH2 0x2E1 DUP3 PUSH2 0x3ED JUMP JUMPDEST SWAP2 POP PUSH2 0x2EC DUP4 PUSH2 0x3ED JUMP JUMPDEST SWAP3 POP DUP3 PUSH32 0x7FFFFFFFFFFFFFFFFFFFFFFFFFFFFFFFFFFFFFFFFFFFFFFFFFFFFFFFFFFFFFFF DIV DUP3 GT PUSH1 0x0 DUP5 SGT PUSH1 0x0 DUP5 SGT AND AND ISZERO PUSH2 0x32B JUMPI PUSH2 0x32A PUSH2 0x417 JUMP JUMPDEST JUMPDEST DUP2 PUSH32 0x8000000000000000000000000000000000000000000000000000000000000000 SDIV DUP4 SLT PUSH1 0x0 DUP5 SLT PUSH1 0x0 DUP5 SGT AND AND ISZERO PUSH2 0x368 JUMPI PUSH2 0x367 PUSH2 0x417 JUMP JUMPDEST JUMPDEST DUP3 PUSH32 0x8000000000000000000000000000000000000000000000000000000000000000 SDIV DUP3 SLT PUSH1 0x0 DUP5 SGT PUSH1 0x0 DUP5 SLT AND AND ISZERO PUSH2 0x3A5 JUMPI PUSH2 0x3A4 PUSH2 0x417 JUMP JUMPDEST JUMPDEST DUP3 PUSH32 0x7FFFFFFFFFFFFFFFFFFFFFFFFFFFFFFFFFFFFFFFFFFFFFFFFFFFFFFFFFFFFFFF SDIV DUP3 SLT PUSH1 0x0 DUP5 SLT PUSH1 0x0 DUP5 SLT AND AND ISZERO PUSH2 0x3E2 JUMPI PUSH2 0x3E1 PUSH2 0x417 JUMP JUMPDEST JUMPDEST DUP3 DUP3 MUL SWAP1 POP SWAP3 SWAP2 POP POP JUMP JUMPDEST PUSH1 0x0 DUP2 SWAP1 POP SWAP2 SWAP1 POP JUMP JUMPDEST PUSH1 0x0 DUP2 SWAP1 POP SWAP2 SWAP1 POP JUMP JUMPDEST PUSH1 0x0 PUSH10 0xFFFFFFFFFFFFFFFFFFFF DUP3 AND SWAP1 POP SWAP2 SWAP1 POP JUMP JUMPDEST PUSH32 0x4E487B7100000000000000000000000000000000000000000000000000000000 PUSH1 0x0 MSTORE PUSH1 0x11 PUSH1 0x4 MSTORE PUSH1 0x24 PUSH1 0x0 REVERT JUMPDEST PUSH1 0x0 DUP1 REVERT JUMPDEST PUSH32 0x54686520616D6F756E74206973206C657373207468616E203145544821205472 PUSH1 0x0 DUP3 ADD MSTORE PUSH32 0x7920416761696E2E000000000000000000000000000000000000000000000000 PUSH1 0x20 DUP3 ADD MSTORE POP JUMP JUMPDEST PUSH2 0x4A3 DUP2 PUSH2 0x3ED JUMP JUMPDEST DUP2 EQ PUSH2 0x4AE JUMPI PUSH1 0x0 DUP1 REVERT JUMPDEST POP JUMP JUMPDEST PUSH2 0x4BA DUP2 PUSH2 0x3F7 JUMP JUMPDEST DUP2 EQ PUSH2 0x4C5 JUMPI PUSH1 0x0 DUP1 REVERT JUMPDEST POP JUMP JUMPDEST PUSH2 0x4D1 DUP2 PUSH2 0x401 JUMP JUMPDEST DUP2 EQ PUSH2 0x4DC JUMPI PUSH1 0x0 DUP1 REVERT JUMPDEST POP JUMP INVALID LOG2 PUSH5 0x6970667358 0x22 SLT KECCAK256 CODECOPY 0x22 RETURNDATACOPY SSTORE 0x29 0xB0 0xE8 DELEGATECALL MUL PUSH4 0x47700E23 PUSH5 0x9D35C19CD7 0xE REVERT 0x26 SELFBALANCE PUSH25 0x6D170D113EF16164736F6C6343000807003300000000000000 "
				},
				"gasEstimates": {
					"creation": {
						"codeDepositCost": "260200",
						"executionCost": "22406",
						"totalCost": "282606"
					},
					"external": {
						"fund()": "2552",
						"getPrice()": "infinite",
						"minUSD()": "2451"
					}
				},
				"methodIdentifiers": {
					"fund()": "b60d4288",
					"getPrice()": "98d5fdca",
					"minUSD()": "dc992aa0"
				}
			},
			"storageLayout": {
				"storage": [
					{
						"astId": 51,
						"contract": "contracts/FundMe.sol:FundMe",
						"label": "minUSD",
						"offset": 0,
						"slot": "0",
						"type": "t_uint256"
					}
				],
				"types": {
					"t_uint256": {
						"encoding": "inplace",
						"label": "uint256",
						"numberOfBytes": "32"
					}
				}
			},
			"userdoc": {
				"kind": "user",
				"methods": {},
				"version": 1
			}
		}
	}
}