{
	"contracts/PriceConverter.sol": {
		"PriceConverter": {
			"abi": [
				{
					"inputs": [
						{
							"internalType": "uint256",
							"name": "ethAmount",
							"type": "uint256"
						}
					],
					"name": "getConversionRate",
					"outputs": [
						{
							"internalType": "uint256",
							"name": "",
							"type": "uint256"
						}
					],
					"stateMutability": "view",
					"type": "function"
				},
				{
					"inputs": [],
					"name": "getPrice",
					"outputs": [
						{
							"internalType": "uint256",
							"name": "",
							"type": "uint256"
						}
					],
					"stateMutability": "view",
					"type": "function"
				}
			],
			"devdoc": {
				"kind": "dev",
				"methods": {},
				"version": 1
			},
			"evm": {
				"assembly": "    /* \"contracts/PriceConverter.sol\":732:1638  library PriceConverter {\r... */\n  dataSize(sub_0)\n  dataOffset(sub_0)\n  0x0b\n  dup3\n  dup3\n  dup3\n  codecopy\n  dup1\n  mload\n  0x00\n  byte\n  0x73\n  eq\n  tag_1\n  jumpi\n  mstore(0x00, 0x4e487b7100000000000000000000000000000000000000000000000000000000)\n  mstore(0x04, 0x00)\n  revert(0x00, 0x24)\ntag_1:\n  mstore(0x00, address)\n  0x73\n  dup2\n  mstore8\n  dup3\n  dup2\n  return\nstop\n\nsub_0: assembly {\n        /* \"contracts/PriceConverter.sol\":732:1638  library PriceConverter {\r... */\n      eq(address, deployTimeAddress())\n      mstore(0x40, 0x80)\n      jumpi(tag_1, lt(calldatasize, 0x04))\n      shr(0xe0, calldataload(0x00))\n      dup1\n      0x6e5b6b28\n      eq\n      tag_2\n      jumpi\n      dup1\n      0x98d5fdca\n      eq\n      tag_3\n      jumpi\n    tag_1:\n      0x00\n      dup1\n      revert\n        /* \"contracts/PriceConverter.sol\":1415:1635  function getConversionRate(uint256 ethAmount) public view returns(uint256) {\r... */\n    tag_2:\n      tag_4\n      0x04\n      dup1\n      calldatasize\n      sub\n      dup2\n      add\n      swap1\n      tag_5\n      swap2\n      swap1\n      tag_6\n      jump\t// in\n    tag_5:\n      tag_7\n      jump\t// in\n    tag_4:\n      mload(0x40)\n      tag_8\n      swap2\n      swap1\n      tag_9\n      jump\t// in\n    tag_8:\n      mload(0x40)\n      dup1\n      swap2\n      sub\n      swap1\n      return\n        /* \"contracts/PriceConverter.sol\":806:1407  function getPrice() public view returns(uint256){\r... */\n    tag_3:\n      tag_10\n      tag_11\n      jump\t// in\n    tag_10:\n      mload(0x40)\n      tag_12\n      swap2\n      swap1\n      tag_9\n      jump\t// in\n    tag_12:\n      mload(0x40)\n      dup1\n      swap2\n      sub\n      swap1\n      return\n        /* \"contracts/PriceConverter.sol\":1415:1635  function getConversionRate(uint256 ethAmount) public view returns(uint256) {\r... */\n    tag_7:\n        /* \"contracts/PriceConverter.sol\":1481:1488  uint256 */\n      0x00\n        /* \"contracts/PriceConverter.sol\":1501:1517  uint256 ethPrice */\n      dup1\n        /* \"contracts/PriceConverter.sol\":1520:1530  getPrice() */\n      tag_14\n        /* \"contracts/PriceConverter.sol\":1520:1528  getPrice */\n      tag_11\n        /* \"contracts/PriceConverter.sol\":1520:1530  getPrice() */\n      jump\t// in\n    tag_14:\n        /* \"contracts/PriceConverter.sol\":1501:1530  uint256 ethPrice = getPrice() */\n      swap1\n      pop\n        /* \"contracts/PriceConverter.sol\":1541:1563  uint256 ethAmountInUSD */\n      0x00\n        /* \"contracts/PriceConverter.sol\":1591:1595  1e18 */\n      0x0de0b6b3a7640000\n        /* \"contracts/PriceConverter.sol\":1578:1587  ethAmount */\n      dup5\n        /* \"contracts/PriceConverter.sol\":1567:1575  ethPrice */\n      dup4\n        /* \"contracts/PriceConverter.sol\":1567:1587  ethPrice * ethAmount */\n      tag_15\n      swap2\n      swap1\n      tag_16\n      jump\t// in\n    tag_15:\n        /* \"contracts/PriceConverter.sol\":1566:1595  (ethPrice * ethAmount) / 1e18 */\n      tag_17\n      swap2\n      swap1\n      tag_18\n      jump\t// in\n    tag_17:\n        /* \"contracts/PriceConverter.sol\":1541:1595  uint256 ethAmountInUSD = (ethPrice * ethAmount) / 1e18 */\n      swap1\n      pop\n        /* \"contracts/PriceConverter.sol\":1613:1627  ethAmountInUSD */\n      dup1\n        /* \"contracts/PriceConverter.sol\":1606:1627  return ethAmountInUSD */\n      swap3\n      pop\n      pop\n      pop\n        /* \"contracts/PriceConverter.sol\":1415:1635  function getConversionRate(uint256 ethAmount) public view returns(uint256) {\r... */\n      swap2\n      swap1\n      pop\n      jump\t// out\n        /* \"contracts/PriceConverter.sol\":806:1407  function getPrice() public view returns(uint256){\r... */\n    tag_11:\n        /* \"contracts/PriceConverter.sol\":846:853  uint256 */\n      0x00\n        /* \"contracts/PriceConverter.sol\":1160:1191  AggregatorV3Interface priceFeed */\n      dup1\n        /* \"contracts/PriceConverter.sol\":1216:1258  0xD4a33860578De61DBAbDc8BFdb98FD742fA7028e */\n      0xd4a33860578de61dbabdc8bfdb98fd742fa7028e\n        /* \"contracts/PriceConverter.sol\":1160:1259  AggregatorV3Interface priceFeed = AggregatorV3Interface(0xD4a33860578De61DBAbDc8BFdb98FD742fA7028e) */\n      swap1\n      pop\n        /* \"contracts/PriceConverter.sol\":1272:1281  int price */\n      0x00\n        /* \"contracts/PriceConverter.sol\":1288:1297  priceFeed */\n      dup2\n        /* \"contracts/PriceConverter.sol\":1288:1313  priceFeed.latestRoundData */\n      0xffffffffffffffffffffffffffffffffffffffff\n      and\n      0xfeaf968c\n        /* \"contracts/PriceConverter.sol\":1288:1315  priceFeed.latestRoundData() */\n      mload(0x40)\n      dup2\n      0xffffffff\n      and\n      0xe0\n      shl\n      dup2\n      mstore\n      0x04\n      add\n      0xa0\n      mload(0x40)\n      dup1\n      dup4\n      sub\n      dup2\n      dup7\n      dup1\n      extcodesize\n      iszero\n      dup1\n      iszero\n      tag_20\n      jumpi\n      0x00\n      dup1\n      revert\n    tag_20:\n      pop\n      gas\n      staticcall\n      iszero\n      dup1\n      iszero\n      tag_22\n      jumpi\n      returndatasize\n      0x00\n      dup1\n      returndatacopy\n      revert(0x00, returndatasize)\n    tag_22:\n      pop\n      pop\n      pop\n      pop\n      mload(0x40)\n      returndatasize\n      not(0x1f)\n      0x1f\n      dup3\n      add\n      and\n      dup3\n      add\n      dup1\n      0x40\n      mstore\n      pop\n      dup2\n      add\n      swap1\n      tag_23\n      swap2\n      swap1\n      tag_24\n      jump\t// in\n    tag_23:\n        /* \"contracts/PriceConverter.sol\":1270:1315  (,int price,,,) = priceFeed.latestRoundData() */\n      pop\n      pop\n      pop\n      swap2\n      pop\n      pop\n        /* \"contracts/PriceConverter.sol\":1371:1375  1e10 */\n      0x02540be400\n        /* \"contracts/PriceConverter.sol\":1363:1368  price */\n      dup2\n        /* \"contracts/PriceConverter.sol\":1363:1375  price * 1e10 */\n      tag_25\n      swap2\n      swap1\n      tag_26\n      jump\t// in\n    tag_25:\n        /* \"contracts/PriceConverter.sol\":1348:1376  return uint256(price * 1e10) */\n      swap3\n      pop\n      pop\n      pop\n        /* \"contracts/PriceConverter.sol\":806:1407  function getPrice() public view returns(uint256){\r... */\n      swap1\n      jump\t// out\n        /* \"#utility.yul\":7:148   */\n    tag_28:\n        /* \"#utility.yul\":63:68   */\n      0x00\n        /* \"#utility.yul\":94:100   */\n      dup2\n        /* \"#utility.yul\":88:101   */\n      mload\n        /* \"#utility.yul\":79:101   */\n      swap1\n      pop\n        /* \"#utility.yul\":110:142   */\n      tag_30\n        /* \"#utility.yul\":136:141   */\n      dup2\n        /* \"#utility.yul\":110:142   */\n      tag_31\n      jump\t// in\n    tag_30:\n        /* \"#utility.yul\":7:148   */\n      swap3\n      swap2\n      pop\n      pop\n      jump\t// out\n        /* \"#utility.yul\":154:293   */\n    tag_32:\n        /* \"#utility.yul\":200:205   */\n      0x00\n        /* \"#utility.yul\":238:244   */\n      dup2\n        /* \"#utility.yul\":225:245   */\n      calldataload\n        /* \"#utility.yul\":216:245   */\n      swap1\n      pop\n        /* \"#utility.yul\":254:287   */\n      tag_34\n        /* \"#utility.yul\":281:286   */\n      dup2\n        /* \"#utility.yul\":254:287   */\n      tag_35\n      jump\t// in\n    tag_34:\n        /* \"#utility.yul\":154:293   */\n      swap3\n      swap2\n      pop\n      pop\n      jump\t// out\n        /* \"#utility.yul\":299:442   */\n    tag_36:\n        /* \"#utility.yul\":356:361   */\n      0x00\n        /* \"#utility.yul\":387:393   */\n      dup2\n        /* \"#utility.yul\":381:394   */\n      mload\n        /* \"#utility.yul\":372:394   */\n      swap1\n      pop\n        /* \"#utility.yul\":403:436   */\n      tag_38\n        /* \"#utility.yul\":430:435   */\n      dup2\n        /* \"#utility.yul\":403:436   */\n      tag_35\n      jump\t// in\n    tag_38:\n        /* \"#utility.yul\":299:442   */\n      swap3\n      swap2\n      pop\n      pop\n      jump\t// out\n        /* \"#utility.yul\":448:589   */\n    tag_39:\n        /* \"#utility.yul\":504:509   */\n      0x00\n        /* \"#utility.yul\":535:541   */\n      dup2\n        /* \"#utility.yul\":529:542   */\n      mload\n        /* \"#utility.yul\":520:542   */\n      swap1\n      pop\n        /* \"#utility.yul\":551:583   */\n      tag_41\n        /* \"#utility.yul\":577:582   */\n      dup2\n        /* \"#utility.yul\":551:583   */\n      tag_42\n      jump\t// in\n    tag_41:\n        /* \"#utility.yul\":448:589   */\n      swap3\n      swap2\n      pop\n      pop\n      jump\t// out\n        /* \"#utility.yul\":595:924   */\n    tag_6:\n        /* \"#utility.yul\":654:660   */\n      0x00\n        /* \"#utility.yul\":703:705   */\n      0x20\n        /* \"#utility.yul\":691:700   */\n      dup3\n        /* \"#utility.yul\":682:689   */\n      dup5\n        /* \"#utility.yul\":678:701   */\n      sub\n        /* \"#utility.yul\":674:706   */\n      slt\n        /* \"#utility.yul\":671:790   */\n      iszero\n      tag_44\n      jumpi\n        /* \"#utility.yul\":709:788   */\n      tag_45\n      tag_46\n      jump\t// in\n    tag_45:\n        /* \"#utility.yul\":671:790   */\n    tag_44:\n        /* \"#utility.yul\":829:830   */\n      0x00\n        /* \"#utility.yul\":854:907   */\n      tag_47\n        /* \"#utility.yul\":899:906   */\n      dup5\n        /* \"#utility.yul\":890:896   */\n      dup3\n        /* \"#utility.yul\":879:888   */\n      dup6\n        /* \"#utility.yul\":875:897   */\n      add\n        /* \"#utility.yul\":854:907   */\n      tag_32\n      jump\t// in\n    tag_47:\n        /* \"#utility.yul\":844:907   */\n      swap2\n      pop\n        /* \"#utility.yul\":800:917   */\n      pop\n        /* \"#utility.yul\":595:924   */\n      swap3\n      swap2\n      pop\n      pop\n      jump\t// out\n        /* \"#utility.yul\":930:1901   */\n    tag_24:\n        /* \"#utility.yul\":1033:1039   */\n      0x00\n        /* \"#utility.yul\":1041:1047   */\n      dup1\n        /* \"#utility.yul\":1049:1055   */\n      0x00\n        /* \"#utility.yul\":1057:1063   */\n      dup1\n        /* \"#utility.yul\":1065:1071   */\n      0x00\n        /* \"#utility.yul\":1114:1117   */\n      0xa0\n        /* \"#utility.yul\":1102:1111   */\n      dup7\n        /* \"#utility.yul\":1093:1100   */\n      dup9\n        /* \"#utility.yul\":1089:1112   */\n      sub\n        /* \"#utility.yul\":1085:1118   */\n      slt\n        /* \"#utility.yul\":1082:1202   */\n      iszero\n      tag_49\n      jumpi\n        /* \"#utility.yul\":1121:1200   */\n      tag_50\n      tag_46\n      jump\t// in\n    tag_50:\n        /* \"#utility.yul\":1082:1202   */\n    tag_49:\n        /* \"#utility.yul\":1241:1242   */\n      0x00\n        /* \"#utility.yul\":1266:1329   */\n      tag_51\n        /* \"#utility.yul\":1321:1328   */\n      dup9\n        /* \"#utility.yul\":1312:1318   */\n      dup3\n        /* \"#utility.yul\":1301:1310   */\n      dup10\n        /* \"#utility.yul\":1297:1319   */\n      add\n        /* \"#utility.yul\":1266:1329   */\n      tag_39\n      jump\t// in\n    tag_51:\n        /* \"#utility.yul\":1256:1329   */\n      swap6\n      pop\n        /* \"#utility.yul\":1212:1339   */\n      pop\n        /* \"#utility.yul\":1378:1380   */\n      0x20\n        /* \"#utility.yul\":1404:1467   */\n      tag_52\n        /* \"#utility.yul\":1459:1466   */\n      dup9\n        /* \"#utility.yul\":1450:1456   */\n      dup3\n        /* \"#utility.yul\":1439:1448   */\n      dup10\n        /* \"#utility.yul\":1435:1457   */\n      add\n        /* \"#utility.yul\":1404:1467   */\n      tag_28\n      jump\t// in\n    tag_52:\n        /* \"#utility.yul\":1394:1467   */\n      swap5\n      pop\n        /* \"#utility.yul\":1349:1477   */\n      pop\n        /* \"#utility.yul\":1516:1518   */\n      0x40\n        /* \"#utility.yul\":1542:1606   */\n      tag_53\n        /* \"#utility.yul\":1598:1605   */\n      dup9\n        /* \"#utility.yul\":1589:1595   */\n      dup3\n        /* \"#utility.yul\":1578:1587   */\n      dup10\n        /* \"#utility.yul\":1574:1596   */\n      add\n        /* \"#utility.yul\":1542:1606   */\n      tag_36\n      jump\t// in\n    tag_53:\n        /* \"#utility.yul\":1532:1606   */\n      swap4\n      pop\n        /* \"#utility.yul\":1487:1616   */\n      pop\n        /* \"#utility.yul\":1655:1657   */\n      0x60\n        /* \"#utility.yul\":1681:1745   */\n      tag_54\n        /* \"#utility.yul\":1737:1744   */\n      dup9\n        /* \"#utility.yul\":1728:1734   */\n      dup3\n        /* \"#utility.yul\":1717:1726   */\n      dup10\n        /* \"#utility.yul\":1713:1735   */\n      add\n        /* \"#utility.yul\":1681:1745   */\n      tag_36\n      jump\t// in\n    tag_54:\n        /* \"#utility.yul\":1671:1745   */\n      swap3\n      pop\n        /* \"#utility.yul\":1626:1755   */\n      pop\n        /* \"#utility.yul\":1794:1797   */\n      0x80\n        /* \"#utility.yul\":1821:1884   */\n      tag_55\n        /* \"#utility.yul\":1876:1883   */\n      dup9\n        /* \"#utility.yul\":1867:1873   */\n      dup3\n        /* \"#utility.yul\":1856:1865   */\n      dup10\n        /* \"#utility.yul\":1852:1874   */\n      add\n        /* \"#utility.yul\":1821:1884   */\n      tag_39\n      jump\t// in\n    tag_55:\n        /* \"#utility.yul\":1811:1884   */\n      swap2\n      pop\n        /* \"#utility.yul\":1765:1894   */\n      pop\n        /* \"#utility.yul\":930:1901   */\n      swap3\n      swap6\n      pop\n      swap3\n      swap6\n      swap1\n      swap4\n      pop\n      jump\t// out\n        /* \"#utility.yul\":1907:2033   */\n    tag_56:\n        /* \"#utility.yul\":2002:2026   */\n      tag_58\n        /* \"#utility.yul\":2020:2025   */\n      dup2\n        /* \"#utility.yul\":2002:2026   */\n      tag_59\n      jump\t// in\n    tag_58:\n        /* \"#utility.yul\":1997:2000   */\n      dup3\n        /* \"#utility.yul\":1990:2027   */\n      mstore\n        /* \"#utility.yul\":1907:2033   */\n      pop\n      pop\n      jump\t// out\n        /* \"#utility.yul\":2039:2277   */\n    tag_9:\n        /* \"#utility.yul\":2140:2144   */\n      0x00\n        /* \"#utility.yul\":2178:2180   */\n      0x20\n        /* \"#utility.yul\":2167:2176   */\n      dup3\n        /* \"#utility.yul\":2163:2181   */\n      add\n        /* \"#utility.yul\":2155:2181   */\n      swap1\n      pop\n        /* \"#utility.yul\":2191:2270   */\n      tag_61\n        /* \"#utility.yul\":2267:2268   */\n      0x00\n        /* \"#utility.yul\":2256:2265   */\n      dup4\n        /* \"#utility.yul\":2252:2269   */\n      add\n        /* \"#utility.yul\":2243:2249   */\n      dup5\n        /* \"#utility.yul\":2191:2270   */\n      tag_56\n      jump\t// in\n    tag_61:\n        /* \"#utility.yul\":2039:2277   */\n      swap3\n      swap2\n      pop\n      pop\n      jump\t// out\n        /* \"#utility.yul\":2364:2549   */\n    tag_18:\n        /* \"#utility.yul\":2404:2405   */\n      0x00\n        /* \"#utility.yul\":2421:2441   */\n      tag_65\n        /* \"#utility.yul\":2439:2440   */\n      dup3\n        /* \"#utility.yul\":2421:2441   */\n      tag_59\n      jump\t// in\n    tag_65:\n        /* \"#utility.yul\":2416:2441   */\n      swap2\n      pop\n        /* \"#utility.yul\":2455:2475   */\n      tag_66\n        /* \"#utility.yul\":2473:2474   */\n      dup4\n        /* \"#utility.yul\":2455:2475   */\n      tag_59\n      jump\t// in\n    tag_66:\n        /* \"#utility.yul\":2450:2475   */\n      swap3\n      pop\n        /* \"#utility.yul\":2494:2495   */\n      dup3\n        /* \"#utility.yul\":2484:2519   */\n      tag_67\n      jumpi\n        /* \"#utility.yul\":2499:2517   */\n      tag_68\n      tag_69\n      jump\t// in\n    tag_68:\n        /* \"#utility.yul\":2484:2519   */\n    tag_67:\n        /* \"#utility.yul\":2541:2542   */\n      dup3\n        /* \"#utility.yul\":2538:2539   */\n      dup3\n        /* \"#utility.yul\":2534:2543   */\n      div\n        /* \"#utility.yul\":2529:2543   */\n      swap1\n      pop\n        /* \"#utility.yul\":2364:2549   */\n      swap3\n      swap2\n      pop\n      pop\n      jump\t// out\n        /* \"#utility.yul\":2555:3546   */\n    tag_26:\n        /* \"#utility.yul\":2594:2601   */\n      0x00\n        /* \"#utility.yul\":2617:2636   */\n      tag_71\n        /* \"#utility.yul\":2634:2635   */\n      dup3\n        /* \"#utility.yul\":2617:2636   */\n      tag_72\n      jump\t// in\n    tag_71:\n        /* \"#utility.yul\":2612:2636   */\n      swap2\n      pop\n        /* \"#utility.yul\":2650:2669   */\n      tag_73\n        /* \"#utility.yul\":2667:2668   */\n      dup4\n        /* \"#utility.yul\":2650:2669   */\n      tag_72\n      jump\t// in\n    tag_73:\n        /* \"#utility.yul\":2645:2669   */\n      swap3\n      pop\n        /* \"#utility.yul\":2851:2852   */\n      dup3\n        /* \"#utility.yul\":2783:2849   */\n      0x7fffffffffffffffffffffffffffffffffffffffffffffffffffffffffffffff\n        /* \"#utility.yul\":2779:2853   */\n      div\n        /* \"#utility.yul\":2776:2777   */\n      dup3\n        /* \"#utility.yul\":2773:2854   */\n      gt\n        /* \"#utility.yul\":2768:2769   */\n      0x00\n        /* \"#utility.yul\":2765:2766   */\n      dup5\n        /* \"#utility.yul\":2761:2770   */\n      sgt\n        /* \"#utility.yul\":2757:2758   */\n      0x00\n        /* \"#utility.yul\":2754:2755   */\n      dup5\n        /* \"#utility.yul\":2750:2759   */\n      sgt\n        /* \"#utility.yul\":2746:2771   */\n      and\n        /* \"#utility.yul\":2742:2855   */\n      and\n        /* \"#utility.yul\":2739:2878   */\n      iszero\n      tag_74\n      jumpi\n        /* \"#utility.yul\":2858:2876   */\n      tag_75\n      tag_76\n      jump\t// in\n    tag_75:\n        /* \"#utility.yul\":2739:2878   */\n    tag_74:\n        /* \"#utility.yul\":3062:3063   */\n      dup2\n        /* \"#utility.yul\":2994:3060   */\n      0x8000000000000000000000000000000000000000000000000000000000000000\n        /* \"#utility.yul\":2989:3064   */\n      sdiv\n        /* \"#utility.yul\":2986:2987   */\n      dup4\n        /* \"#utility.yul\":2982:3065   */\n      slt\n        /* \"#utility.yul\":2977:2978   */\n      0x00\n        /* \"#utility.yul\":2974:2975   */\n      dup5\n        /* \"#utility.yul\":2970:2979   */\n      slt\n        /* \"#utility.yul\":2966:2967   */\n      0x00\n        /* \"#utility.yul\":2963:2964   */\n      dup5\n        /* \"#utility.yul\":2959:2968   */\n      sgt\n        /* \"#utility.yul\":2955:2980   */\n      and\n        /* \"#utility.yul\":2951:3066   */\n      and\n        /* \"#utility.yul\":2948:3089   */\n      iszero\n      tag_77\n      jumpi\n        /* \"#utility.yul\":3069:3087   */\n      tag_78\n      tag_76\n      jump\t// in\n    tag_78:\n        /* \"#utility.yul\":2948:3089   */\n    tag_77:\n        /* \"#utility.yul\":3273:3274   */\n      dup3\n        /* \"#utility.yul\":3205:3271   */\n      0x8000000000000000000000000000000000000000000000000000000000000000\n        /* \"#utility.yul\":3200:3275   */\n      sdiv\n        /* \"#utility.yul\":3197:3198   */\n      dup3\n        /* \"#utility.yul\":3193:3276   */\n      slt\n        /* \"#utility.yul\":3188:3189   */\n      0x00\n        /* \"#utility.yul\":3185:3186   */\n      dup5\n        /* \"#utility.yul\":3181:3190   */\n      sgt\n        /* \"#utility.yul\":3177:3178   */\n      0x00\n        /* \"#utility.yul\":3174:3175   */\n      dup5\n        /* \"#utility.yul\":3170:3179   */\n      slt\n        /* \"#utility.yul\":3166:3191   */\n      and\n        /* \"#utility.yul\":3162:3277   */\n      and\n        /* \"#utility.yul\":3159:3300   */\n      iszero\n      tag_79\n      jumpi\n        /* \"#utility.yul\":3280:3298   */\n      tag_80\n      tag_76\n      jump\t// in\n    tag_80:\n        /* \"#utility.yul\":3159:3300   */\n    tag_79:\n        /* \"#utility.yul\":3483:3484   */\n      dup3\n        /* \"#utility.yul\":3415:3481   */\n      0x7fffffffffffffffffffffffffffffffffffffffffffffffffffffffffffffff\n        /* \"#utility.yul\":3410:3485   */\n      sdiv\n        /* \"#utility.yul\":3407:3408   */\n      dup3\n        /* \"#utility.yul\":3403:3486   */\n      slt\n        /* \"#utility.yul\":3398:3399   */\n      0x00\n        /* \"#utility.yul\":3395:3396   */\n      dup5\n        /* \"#utility.yul\":3391:3400   */\n      slt\n        /* \"#utility.yul\":3387:3388   */\n      0x00\n        /* \"#utility.yul\":3384:3385   */\n      dup5\n        /* \"#utility.yul\":3380:3389   */\n      slt\n        /* \"#utility.yul\":3376:3401   */\n      and\n        /* \"#utility.yul\":3372:3487   */\n      and\n        /* \"#utility.yul\":3369:3510   */\n      iszero\n      tag_81\n      jumpi\n        /* \"#utility.yul\":3490:3508   */\n      tag_82\n      tag_76\n      jump\t// in\n    tag_82:\n        /* \"#utility.yul\":3369:3510   */\n    tag_81:\n        /* \"#utility.yul\":3538:3539   */\n      dup3\n        /* \"#utility.yul\":3535:3536   */\n      dup3\n        /* \"#utility.yul\":3531:3540   */\n      mul\n        /* \"#utility.yul\":3520:3540   */\n      swap1\n      pop\n        /* \"#utility.yul\":2555:3546   */\n      swap3\n      swap2\n      pop\n      pop\n      jump\t// out\n        /* \"#utility.yul\":3552:3900   */\n    tag_16:\n        /* \"#utility.yul\":3592:3599   */\n      0x00\n        /* \"#utility.yul\":3615:3635   */\n      tag_84\n        /* \"#utility.yul\":3633:3634   */\n      dup3\n        /* \"#utility.yul\":3615:3635   */\n      tag_59\n      jump\t// in\n    tag_84:\n        /* \"#utility.yul\":3610:3635   */\n      swap2\n      pop\n        /* \"#utility.yul\":3649:3669   */\n      tag_85\n        /* \"#utility.yul\":3667:3668   */\n      dup4\n        /* \"#utility.yul\":3649:3669   */\n      tag_59\n      jump\t// in\n    tag_85:\n        /* \"#utility.yul\":3644:3669   */\n      swap3\n      pop\n        /* \"#utility.yul\":3837:3838   */\n      dup2\n        /* \"#utility.yul\":3769:3835   */\n      0xffffffffffffffffffffffffffffffffffffffffffffffffffffffffffffffff\n        /* \"#utility.yul\":3765:3839   */\n      div\n        /* \"#utility.yul\":3762:3763   */\n      dup4\n        /* \"#utility.yul\":3759:3840   */\n      gt\n        /* \"#utility.yul\":3754:3755   */\n      dup3\n        /* \"#utility.yul\":3747:3756   */\n      iszero\n        /* \"#utility.yul\":3740:3757   */\n      iszero\n        /* \"#utility.yul\":3736:3841   */\n      and\n        /* \"#utility.yul\":3733:3864   */\n      iszero\n      tag_86\n      jumpi\n        /* \"#utility.yul\":3844:3862   */\n      tag_87\n      tag_76\n      jump\t// in\n    tag_87:\n        /* \"#utility.yul\":3733:3864   */\n    tag_86:\n        /* \"#utility.yul\":3892:3893   */\n      dup3\n        /* \"#utility.yul\":3889:3890   */\n      dup3\n        /* \"#utility.yul\":3885:3894   */\n      mul\n        /* \"#utility.yul\":3874:3894   */\n      swap1\n      pop\n        /* \"#utility.yul\":3552:3900   */\n      swap3\n      swap2\n      pop\n      pop\n      jump\t// out\n        /* \"#utility.yul\":3906:3982   */\n    tag_72:\n        /* \"#utility.yul\":3942:3949   */\n      0x00\n        /* \"#utility.yul\":3971:3976   */\n      dup2\n        /* \"#utility.yul\":3960:3976   */\n      swap1\n      pop\n        /* \"#utility.yul\":3906:3982   */\n      swap2\n      swap1\n      pop\n      jump\t// out\n        /* \"#utility.yul\":3988:4065   */\n    tag_59:\n        /* \"#utility.yul\":4025:4032   */\n      0x00\n        /* \"#utility.yul\":4054:4059   */\n      dup2\n        /* \"#utility.yul\":4043:4059   */\n      swap1\n      pop\n        /* \"#utility.yul\":3988:4065   */\n      swap2\n      swap1\n      pop\n      jump\t// out\n        /* \"#utility.yul\":4071:4176   */\n    tag_90:\n        /* \"#utility.yul\":4107:4114   */\n      0x00\n        /* \"#utility.yul\":4147:4169   */\n      0xffffffffffffffffffff\n        /* \"#utility.yul\":4140:4145   */\n      dup3\n        /* \"#utility.yul\":4136:4170   */\n      and\n        /* \"#utility.yul\":4125:4170   */\n      swap1\n      pop\n        /* \"#utility.yul\":4071:4176   */\n      swap2\n      swap1\n      pop\n      jump\t// out\n        /* \"#utility.yul\":4182:4362   */\n    tag_76:\n        /* \"#utility.yul\":4230:4307   */\n      0x4e487b7100000000000000000000000000000000000000000000000000000000\n        /* \"#utility.yul\":4227:4228   */\n      0x00\n        /* \"#utility.yul\":4220:4308   */\n      mstore\n        /* \"#utility.yul\":4327:4331   */\n      0x11\n        /* \"#utility.yul\":4324:4325   */\n      0x04\n        /* \"#utility.yul\":4317:4332   */\n      mstore\n        /* \"#utility.yul\":4351:4355   */\n      0x24\n        /* \"#utility.yul\":4348:4349   */\n      0x00\n        /* \"#utility.yul\":4341:4356   */\n      revert\n        /* \"#utility.yul\":4368:4548   */\n    tag_69:\n        /* \"#utility.yul\":4416:4493   */\n      0x4e487b7100000000000000000000000000000000000000000000000000000000\n        /* \"#utility.yul\":4413:4414   */\n      0x00\n        /* \"#utility.yul\":4406:4494   */\n      mstore\n        /* \"#utility.yul\":4513:4517   */\n      0x12\n        /* \"#utility.yul\":4510:4511   */\n      0x04\n        /* \"#utility.yul\":4503:4518   */\n      mstore\n        /* \"#utility.yul\":4537:4541   */\n      0x24\n        /* \"#utility.yul\":4534:4535   */\n      0x00\n        /* \"#utility.yul\":4527:4542   */\n      revert\n        /* \"#utility.yul\":4677:4794   */\n    tag_46:\n        /* \"#utility.yul\":4786:4787   */\n      0x00\n        /* \"#utility.yul\":4783:4784   */\n      dup1\n        /* \"#utility.yul\":4776:4788   */\n      revert\n        /* \"#utility.yul\":4800:4920   */\n    tag_31:\n        /* \"#utility.yul\":4872:4895   */\n      tag_98\n        /* \"#utility.yul\":4889:4894   */\n      dup2\n        /* \"#utility.yul\":4872:4895   */\n      tag_72\n      jump\t// in\n    tag_98:\n        /* \"#utility.yul\":4865:4870   */\n      dup2\n        /* \"#utility.yul\":4862:4896   */\n      eq\n        /* \"#utility.yul\":4852:4914   */\n      tag_99\n      jumpi\n        /* \"#utility.yul\":4910:4911   */\n      0x00\n        /* \"#utility.yul\":4907:4908   */\n      dup1\n        /* \"#utility.yul\":4900:4912   */\n      revert\n        /* \"#utility.yul\":4852:4914   */\n    tag_99:\n        /* \"#utility.yul\":4800:4920   */\n      pop\n      jump\t// out\n        /* \"#utility.yul\":4926:5048   */\n    tag_35:\n        /* \"#utility.yul\":4999:5023   */\n      tag_101\n        /* \"#utility.yul\":5017:5022   */\n      dup2\n        /* \"#utility.yul\":4999:5023   */\n      tag_59\n      jump\t// in\n    tag_101:\n        /* \"#utility.yul\":4992:4997   */\n      dup2\n        /* \"#utility.yul\":4989:5024   */\n      eq\n        /* \"#utility.yul\":4979:5042   */\n      tag_102\n      jumpi\n        /* \"#utility.yul\":5038:5039   */\n      0x00\n        /* \"#utility.yul\":5035:5036   */\n      dup1\n        /* \"#utility.yul\":5028:5040   */\n      revert\n        /* \"#utility.yul\":4979:5042   */\n    tag_102:\n        /* \"#utility.yul\":4926:5048   */\n      pop\n      jump\t// out\n        /* \"#utility.yul\":5054:5174   */\n    tag_42:\n        /* \"#utility.yul\":5126:5149   */\n      tag_104\n        /* \"#utility.yul\":5143:5148   */\n      dup2\n        /* \"#utility.yul\":5126:5149   */\n      tag_90\n      jump\t// in\n    tag_104:\n        /* \"#utility.yul\":5119:5124   */\n      dup2\n        /* \"#utility.yul\":5116:5150   */\n      eq\n        /* \"#utility.yul\":5106:5168   */\n      tag_105\n      jumpi\n        /* \"#utility.yul\":5164:5165   */\n      0x00\n        /* \"#utility.yul\":5161:5162   */\n      dup1\n        /* \"#utility.yul\":5154:5166   */\n      revert\n        /* \"#utility.yul\":5106:5168   */\n    tag_105:\n        /* \"#utility.yul\":5054:5174   */\n      pop\n      jump\t// out\n\n    auxdata: 0xa2646970667358221220ed4a04b40972228aa757b17f657afd2088e28cd3486d01934743722a27df057b64736f6c63430008070033\n}\n",
				"bytecode": {
					"linkReferences": {},
					"object": "610555610053600b82828239805160001a607314610046577f4e487b7100000000000000000000000000000000000000000000000000000000600052600060045260246000fd5b30600052607381538281f3fe73000000000000000000000000000000000000000030146080604052600436106100405760003560e01c80636e5b6b281461004557806398d5fdca14610075575b600080fd5b61005f600480360381019061005a91906101d9565b610093565b60405161006c9190610290565b60405180910390f35b61007d6100cd565b60405161008a9190610290565b60405180910390f35b60008061009e6100cd565b90506000670de0b6b3a764000084836100b791906103f3565b6100c191906102ab565b90508092505050919050565b60008073d4a33860578de61dbabdc8bfdb98fd742fa7028e905060008173ffffffffffffffffffffffffffffffffffffffff1663feaf968c6040518163ffffffff1660e01b815260040160a06040518083038186803b15801561012f57600080fd5b505afa158015610143573d6000803e3d6000fd5b505050506040513d601f19601f820116820180604052508101906101679190610206565b5050509150506402540be4008161017e91906102dc565b9250505090565b600081519050610194816104da565b92915050565b6000813590506101a9816104f1565b92915050565b6000815190506101be816104f1565b92915050565b6000815190506101d381610508565b92915050565b6000602082840312156101ef576101ee6104d5565b5b60006101fd8482850161019a565b91505092915050565b600080600080600060a08688031215610222576102216104d5565b5b6000610230888289016101c4565b955050602061024188828901610185565b9450506040610252888289016101af565b9350506060610263888289016101af565b9250506080610274888289016101c4565b9150509295509295909350565b61028a81610457565b82525050565b60006020820190506102a56000830184610281565b92915050565b60006102b682610457565b91506102c183610457565b9250826102d1576102d06104a6565b5b828204905092915050565b60006102e78261044d565b91506102f28361044d565b9250827f7fffffffffffffffffffffffffffffffffffffffffffffffffffffffffffffff048211600084136000841316161561033157610330610477565b5b817f8000000000000000000000000000000000000000000000000000000000000000058312600084126000841316161561036e5761036d610477565b5b827f800000000000000000000000000000000000000000000000000000000000000005821260008413600084121616156103ab576103aa610477565b5b827f7fffffffffffffffffffffffffffffffffffffffffffffffffffffffffffffff05821260008412600084121616156103e8576103e7610477565b5b828202905092915050565b60006103fe82610457565b915061040983610457565b9250817fffffffffffffffffffffffffffffffffffffffffffffffffffffffffffffffff048311821515161561044257610441610477565b5b828202905092915050565b6000819050919050565b6000819050919050565b600069ffffffffffffffffffff82169050919050565b7f4e487b7100000000000000000000000000000000000000000000000000000000600052601160045260246000fd5b7f4e487b7100000000000000000000000000000000000000000000000000000000600052601260045260246000fd5b600080fd5b6104e38161044d565b81146104ee57600080fd5b50565b6104fa81610457565b811461050557600080fd5b50565b61051181610461565b811461051c57600080fd5b5056fea2646970667358221220ed4a04b40972228aa757b17f657afd2088e28cd3486d01934743722a27df057b64736f6c63430008070033",
					"opcodes": "PUSH2 0x555 PUSH2 0x53 PUSH1 0xB DUP3 DUP3 DUP3 CODECOPY DUP1 MLOAD PUSH1 0x0 BYTE PUSH1 0x73 EQ PUSH2 0x46 JUMPI PUSH32 0x4E487B7100000000000000000000000000000000000000000000000000000000 PUSH1 0x0 MSTORE PUSH1 0x0 PUSH1 0x4 MSTORE PUSH1 0x24 PUSH1 0x0 REVERT JUMPDEST ADDRESS PUSH1 0x0 MSTORE PUSH1 0x73 DUP2 MSTORE8 DUP3 DUP2 RETURN INVALID PUSH20 0x0 ADDRESS EQ PUSH1 0x80 PUSH1 0x40 MSTORE PUSH1 0x4 CALLDATASIZE LT PUSH2 0x40 JUMPI PUSH1 0x0 CALLDATALOAD PUSH1 0xE0 SHR DUP1 PUSH4 0x6E5B6B28 EQ PUSH2 0x45 JUMPI DUP1 PUSH4 0x98D5FDCA EQ PUSH2 0x75 JUMPI JUMPDEST PUSH1 0x0 DUP1 REVERT JUMPDEST PUSH2 0x5F PUSH1 0x4 DUP1 CALLDATASIZE SUB DUP2 ADD SWAP1 PUSH2 0x5A SWAP2 SWAP1 PUSH2 0x1D9 JUMP JUMPDEST PUSH2 0x93 JUMP JUMPDEST PUSH1 0x40 MLOAD PUSH2 0x6C SWAP2 SWAP1 PUSH2 0x290 JUMP JUMPDEST PUSH1 0x40 MLOAD DUP1 SWAP2 SUB SWAP1 RETURN JUMPDEST PUSH2 0x7D PUSH2 0xCD JUMP JUMPDEST PUSH1 0x40 MLOAD PUSH2 0x8A SWAP2 SWAP1 PUSH2 0x290 JUMP JUMPDEST PUSH1 0x40 MLOAD DUP1 SWAP2 SUB SWAP1 RETURN JUMPDEST PUSH1 0x0 DUP1 PUSH2 0x9E PUSH2 0xCD JUMP JUMPDEST SWAP1 POP PUSH1 0x0 PUSH8 0xDE0B6B3A7640000 DUP5 DUP4 PUSH2 0xB7 SWAP2 SWAP1 PUSH2 0x3F3 JUMP JUMPDEST PUSH2 0xC1 SWAP2 SWAP1 PUSH2 0x2AB JUMP JUMPDEST SWAP1 POP DUP1 SWAP3 POP POP POP SWAP2 SWAP1 POP JUMP JUMPDEST PUSH1 0x0 DUP1 PUSH20 0xD4A33860578DE61DBABDC8BFDB98FD742FA7028E SWAP1 POP PUSH1 0x0 DUP2 PUSH20 0xFFFFFFFFFFFFFFFFFFFFFFFFFFFFFFFFFFFFFFFF AND PUSH4 0xFEAF968C PUSH1 0x40 MLOAD DUP2 PUSH4 0xFFFFFFFF AND PUSH1 0xE0 SHL DUP2 MSTORE PUSH1 0x4 ADD PUSH1 0xA0 PUSH1 0x40 MLOAD DUP1 DUP4 SUB DUP2 DUP7 DUP1 EXTCODESIZE ISZERO DUP1 ISZERO PUSH2 0x12F JUMPI PUSH1 0x0 DUP1 REVERT JUMPDEST POP GAS STATICCALL ISZERO DUP1 ISZERO PUSH2 0x143 JUMPI RETURNDATASIZE PUSH1 0x0 DUP1 RETURNDATACOPY RETURNDATASIZE PUSH1 0x0 REVERT JUMPDEST POP POP POP POP PUSH1 0x40 MLOAD RETURNDATASIZE PUSH1 0x1F NOT PUSH1 0x1F DUP3 ADD AND DUP3 ADD DUP1 PUSH1 0x40 MSTORE POP DUP2 ADD SWAP1 PUSH2 0x167 SWAP2 SWAP1 PUSH2 0x206 JUMP JUMPDEST POP POP POP SWAP2 POP POP PUSH5 0x2540BE400 DUP2 PUSH2 0x17E SWAP2 SWAP1 PUSH2 0x2DC JUMP JUMPDEST SWAP3 POP POP POP SWAP1 JUMP JUMPDEST PUSH1 0x0 DUP2 MLOAD SWAP1 POP PUSH2 0x194 DUP2 PUSH2 0x4DA JUMP JUMPDEST SWAP3 SWAP2 POP POP JUMP JUMPDEST PUSH1 0x0 DUP2 CALLDATALOAD SWAP1 POP PUSH2 0x1A9 DUP2 PUSH2 0x4F1 JUMP JUMPDEST SWAP3 SWAP2 POP POP JUMP JUMPDEST PUSH1 0x0 DUP2 MLOAD SWAP1 POP PUSH2 0x1BE DUP2 PUSH2 0x4F1 JUMP JUMPDEST SWAP3 SWAP2 POP POP JUMP JUMPDEST PUSH1 0x0 DUP2 MLOAD SWAP1 POP PUSH2 0x1D3 DUP2 PUSH2 0x508 JUMP JUMPDEST SWAP3 SWAP2 POP POP JUMP JUMPDEST PUSH1 0x0 PUSH1 0x20 DUP3 DUP5 SUB SLT ISZERO PUSH2 0x1EF JUMPI PUSH2 0x1EE PUSH2 0x4D5 JUMP JUMPDEST JUMPDEST PUSH1 0x0 PUSH2 0x1FD DUP5 DUP3 DUP6 ADD PUSH2 0x19A JUMP JUMPDEST SWAP2 POP POP SWAP3 SWAP2 POP POP JUMP JUMPDEST PUSH1 0x0 DUP1 PUSH1 0x0 DUP1 PUSH1 0x0 PUSH1 0xA0 DUP7 DUP9 SUB SLT ISZERO PUSH2 0x222 JUMPI PUSH2 0x221 PUSH2 0x4D5 JUMP JUMPDEST JUMPDEST PUSH1 0x0 PUSH2 0x230 DUP9 DUP3 DUP10 ADD PUSH2 0x1C4 JUMP JUMPDEST SWAP6 POP POP PUSH1 0x20 PUSH2 0x241 DUP9 DUP3 DUP10 ADD PUSH2 0x185 JUMP JUMPDEST SWAP5 POP POP PUSH1 0x40 PUSH2 0x252 DUP9 DUP3 DUP10 ADD PUSH2 0x1AF JUMP JUMPDEST SWAP4 POP POP PUSH1 0x60 PUSH2 0x263 DUP9 DUP3 DUP10 ADD PUSH2 0x1AF JUMP JUMPDEST SWAP3 POP POP PUSH1 0x80 PUSH2 0x274 DUP9 DUP3 DUP10 ADD PUSH2 0x1C4 JUMP JUMPDEST SWAP2 POP POP SWAP3 SWAP6 POP SWAP3 SWAP6 SWAP1 SWAP4 POP JUMP JUMPDEST PUSH2 0x28A DUP2 PUSH2 0x457 JUMP JUMPDEST DUP3 MSTORE POP POP JUMP JUMPDEST PUSH1 0x0 PUSH1 0x20 DUP3 ADD SWAP1 POP PUSH2 0x2A5 PUSH1 0x0 DUP4 ADD DUP5 PUSH2 0x281 JUMP JUMPDEST SWAP3 SWAP2 POP POP JUMP JUMPDEST PUSH1 0x0 PUSH2 0x2B6 DUP3 PUSH2 0x457 JUMP JUMPDEST SWAP2 POP PUSH2 0x2C1 DUP4 PUSH2 0x457 JUMP JUMPDEST SWAP3 POP DUP3 PUSH2 0x2D1 JUMPI PUSH2 0x2D0 PUSH2 0x4A6 JUMP JUMPDEST JUMPDEST DUP3 DUP3 DIV SWAP1 POP SWAP3 SWAP2 POP POP JUMP JUMPDEST PUSH1 0x0 PUSH2 0x2E7 DUP3 PUSH2 0x44D JUMP JUMPDEST SWAP2 POP PUSH2 0x2F2 DUP4 PUSH2 0x44D JUMP JUMPDEST SWAP3 POP DUP3 PUSH32 0x7FFFFFFFFFFFFFFFFFFFFFFFFFFFFFFFFFFFFFFFFFFFFFFFFFFFFFFFFFFFFFFF DIV DUP3 GT PUSH1 0x0 DUP5 SGT PUSH1 0x0 DUP5 SGT AND AND ISZERO PUSH2 0x331 JUMPI PUSH2 0x330 PUSH2 0x477 JUMP JUMPDEST JUMPDEST DUP2 PUSH32 0x8000000000000000000000000000000000000000000000000000000000000000 SDIV DUP4 SLT PUSH1 0x0 DUP5 SLT PUSH1 0x0 DUP5 SGT AND AND ISZERO PUSH2 0x36E JUMPI PUSH2 0x36D PUSH2 0x477 JUMP JUMPDEST JUMPDEST DUP3 PUSH32 0x8000000000000000000000000000000000000000000000000000000000000000 SDIV DUP3 SLT PUSH1 0x0 DUP5 SGT PUSH1 0x0 DUP5 SLT AND AND ISZERO PUSH2 0x3AB JUMPI PUSH2 0x3AA PUSH2 0x477 JUMP JUMPDEST JUMPDEST DUP3 PUSH32 0x7FFFFFFFFFFFFFFFFFFFFFFFFFFFFFFFFFFFFFFFFFFFFFFFFFFFFFFFFFFFFFFF SDIV DUP3 SLT PUSH1 0x0 DUP5 SLT PUSH1 0x0 DUP5 SLT AND AND ISZERO PUSH2 0x3E8 JUMPI PUSH2 0x3E7 PUSH2 0x477 JUMP JUMPDEST JUMPDEST DUP3 DUP3 MUL SWAP1 POP SWAP3 SWAP2 POP POP JUMP JUMPDEST PUSH1 0x0 PUSH2 0x3FE DUP3 PUSH2 0x457 JUMP JUMPDEST SWAP2 POP PUSH2 0x409 DUP4 PUSH2 0x457 JUMP JUMPDEST SWAP3 POP DUP2 PUSH32 0xFFFFFFFFFFFFFFFFFFFFFFFFFFFFFFFFFFFFFFFFFFFFFFFFFFFFFFFFFFFFFFFF DIV DUP4 GT DUP3 ISZERO ISZERO AND ISZERO PUSH2 0x442 JUMPI PUSH2 0x441 PUSH2 0x477 JUMP JUMPDEST JUMPDEST DUP3 DUP3 MUL SWAP1 POP SWAP3 SWAP2 POP POP JUMP JUMPDEST PUSH1 0x0 DUP2 SWAP1 POP SWAP2 SWAP1 POP JUMP JUMPDEST PUSH1 0x0 DUP2 SWAP1 POP SWAP2 SWAP1 POP JUMP JUMPDEST PUSH1 0x0 PUSH10 0xFFFFFFFFFFFFFFFFFFFF DUP3 AND SWAP1 POP SWAP2 SWAP1 POP JUMP JUMPDEST PUSH32 0x4E487B7100000000000000000000000000000000000000000000000000000000 PUSH1 0x0 MSTORE PUSH1 0x11 PUSH1 0x4 MSTORE PUSH1 0x24 PUSH1 0x0 REVERT JUMPDEST PUSH32 0x4E487B7100000000000000000000000000000000000000000000000000000000 PUSH1 0x0 MSTORE PUSH1 0x12 PUSH1 0x4 MSTORE PUSH1 0x24 PUSH1 0x0 REVERT JUMPDEST PUSH1 0x0 DUP1 REVERT JUMPDEST PUSH2 0x4E3 DUP2 PUSH2 0x44D JUMP JUMPDEST DUP2 EQ PUSH2 0x4EE JUMPI PUSH1 0x0 DUP1 REVERT JUMPDEST POP JUMP JUMPDEST PUSH2 0x4FA DUP2 PUSH2 0x457 JUMP JUMPDEST DUP2 EQ PUSH2 0x505 JUMPI PUSH1 0x0 DUP1 REVERT JUMPDEST POP JUMP JUMPDEST PUSH2 0x511 DUP2 PUSH2 0x461 JUMP JUMPDEST DUP2 EQ PUSH2 0x51C JUMPI PUSH1 0x0 DUP1 REVERT JUMPDEST POP JUMP INVALID LOG2 PUSH5 0x6970667358 0x22 SLT KECCAK256 0xED 0x4A DIV 0xB4 MULMOD PUSH19 0x228AA757B17F657AFD2088E28CD3486D019347 NUMBER PUSH19 0x2A27DF057B64736F6C63430008070033000000 "
				},
				"gasEstimates": {
					"creation": {
						"codeDepositCost": "273000",
						"executionCost": "337",
						"totalCost": "273337"
					},
					"external": {
						"getConversionRate(uint256)": "infinite",
						"getPrice()": "infinite"
					}
				},
				"methodIdentifiers": {
					"getConversionRate(uint256)": "6e5b6b28",
					"getPrice()": "98d5fdca"
				}
			},
			"storageLayout": {
				"storage": [],
				"types": null
			},
			"userdoc": {
				"kind": "user",
				"methods": {},
				"version": 1
			}
		}
	}
}