{
	"contracts/FundMe.sol": {
		"FundMe": {
			"abi": [
				{
					"inputs": [],
					"name": "fund",
					"outputs": [],
					"stateMutability": "payable",
					"type": "function"
				},
				{
					"inputs": [
						{
							"internalType": "uint256",
							"name": "ethAmount",
							"type": "uint256"
						}
					],
					"name": "getConversionRate",
					"outputs": [
						{
							"internalType": "uint256",
							"name": "",
							"type": "uint256"
						}
					],
					"stateMutability": "view",
					"type": "function"
				},
				{
					"inputs": [],
					"name": "getPrice",
					"outputs": [
						{
							"internalType": "uint256",
							"name": "",
							"type": "uint256"
						}
					],
					"stateMutability": "view",
					"type": "function"
				},
				{
					"inputs": [],
					"name": "minUSD",
					"outputs": [
						{
							"internalType": "uint256",
							"name": "",
							"type": "uint256"
						}
					],
					"stateMutability": "view",
					"type": "function"
				}
			],
			"devdoc": {
				"kind": "dev",
				"methods": {},
				"version": 1
			},
			"evm": {
				"assembly": "    /* \"contracts/FundMe.sol\":222:1508  contract FundMe {\r... */\n  mstore(0x40, 0x80)\n    /* \"contracts/FundMe.sol\":269:278  50 * 1e18 */\n  0x02b5e3af16b1880000\n    /* \"contracts/FundMe.sol\":247:278  uint256 public minUSD=50 * 1e18 */\n  0x00\n  sstore\n    /* \"contracts/FundMe.sol\":222:1508  contract FundMe {\r... */\n  callvalue\n  dup1\n  iszero\n  tag_1\n  jumpi\n  0x00\n  dup1\n  revert\ntag_1:\n  pop\n  dataSize(sub_0)\n  dup1\n  dataOffset(sub_0)\n  0x00\n  codecopy\n  0x00\n  return\nstop\n\nsub_0: assembly {\n        /* \"contracts/FundMe.sol\":222:1508  contract FundMe {\r... */\n      mstore(0x40, 0x80)\n      jumpi(tag_1, lt(calldatasize, 0x04))\n      shr(0xe0, calldataload(0x00))\n      dup1\n      0x6e5b6b28\n      eq\n      tag_2\n      jumpi\n      dup1\n      0x98d5fdca\n      eq\n      tag_3\n      jumpi\n      dup1\n      0xb60d4288\n      eq\n      tag_4\n      jumpi\n      dup1\n      0xdc992aa0\n      eq\n      tag_5\n      jumpi\n    tag_1:\n      0x00\n      dup1\n      revert\n        /* \"contracts/FundMe.sol\":1239:1459  function getConversionRate(uint256 ethAmount) public view returns(uint256) {\r... */\n    tag_2:\n      callvalue\n      dup1\n      iszero\n      tag_6\n      jumpi\n      0x00\n      dup1\n      revert\n    tag_6:\n      pop\n      tag_7\n      0x04\n      dup1\n      calldatasize\n      sub\n      dup2\n      add\n      swap1\n      tag_8\n      swap2\n      swap1\n      tag_9\n      jump\t// in\n    tag_8:\n      tag_10\n      jump\t// in\n    tag_7:\n      mload(0x40)\n      tag_11\n      swap2\n      swap1\n      tag_12\n      jump\t// in\n    tag_11:\n      mload(0x40)\n      dup1\n      swap2\n      sub\n      swap1\n      return\n        /* \"contracts/FundMe.sol\":630:1231  function getPrice() public view returns(uint256){\r... */\n    tag_3:\n      callvalue\n      dup1\n      iszero\n      tag_13\n      jumpi\n      0x00\n      dup1\n      revert\n    tag_13:\n      pop\n      tag_14\n      tag_15\n      jump\t// in\n    tag_14:\n      mload(0x40)\n      tag_16\n      swap2\n      swap1\n      tag_12\n      jump\t// in\n    tag_16:\n      mload(0x40)\n      dup1\n      swap2\n      sub\n      swap1\n      return\n        /* \"contracts/FundMe.sol\":287:579  function fund() public payable{\r... */\n    tag_4:\n      tag_17\n      tag_18\n      jump\t// in\n    tag_17:\n      stop\n        /* \"contracts/FundMe.sol\":247:278  uint256 public minUSD=50 * 1e18 */\n    tag_5:\n      callvalue\n      dup1\n      iszero\n      tag_19\n      jumpi\n      0x00\n      dup1\n      revert\n    tag_19:\n      pop\n      tag_20\n      tag_21\n      jump\t// in\n    tag_20:\n      mload(0x40)\n      tag_22\n      swap2\n      swap1\n      tag_12\n      jump\t// in\n    tag_22:\n      mload(0x40)\n      dup1\n      swap2\n      sub\n      swap1\n      return\n        /* \"contracts/FundMe.sol\":1239:1459  function getConversionRate(uint256 ethAmount) public view returns(uint256) {\r... */\n    tag_10:\n        /* \"contracts/FundMe.sol\":1305:1312  uint256 */\n      0x00\n        /* \"contracts/FundMe.sol\":1325:1341  uint256 ethPrice */\n      dup1\n        /* \"contracts/FundMe.sol\":1344:1354  getPrice() */\n      tag_24\n        /* \"contracts/FundMe.sol\":1344:1352  getPrice */\n      tag_15\n        /* \"contracts/FundMe.sol\":1344:1354  getPrice() */\n      jump\t// in\n    tag_24:\n        /* \"contracts/FundMe.sol\":1325:1354  uint256 ethPrice = getPrice() */\n      swap1\n      pop\n        /* \"contracts/FundMe.sol\":1365:1387  uint256 ethAmountInUSD */\n      0x00\n        /* \"contracts/FundMe.sol\":1415:1419  1e18 */\n      0x0de0b6b3a7640000\n        /* \"contracts/FundMe.sol\":1402:1411  ethAmount */\n      dup5\n        /* \"contracts/FundMe.sol\":1391:1399  ethPrice */\n      dup4\n        /* \"contracts/FundMe.sol\":1391:1411  ethPrice * ethAmount */\n      tag_25\n      swap2\n      swap1\n      tag_26\n      jump\t// in\n    tag_25:\n        /* \"contracts/FundMe.sol\":1390:1419  (ethPrice * ethAmount) / 1e18 */\n      tag_27\n      swap2\n      swap1\n      tag_28\n      jump\t// in\n    tag_27:\n        /* \"contracts/FundMe.sol\":1365:1419  uint256 ethAmountInUSD = (ethPrice * ethAmount) / 1e18 */\n      swap1\n      pop\n        /* \"contracts/FundMe.sol\":1437:1451  ethAmountInUSD */\n      dup1\n        /* \"contracts/FundMe.sol\":1430:1451  return ethAmountInUSD */\n      swap3\n      pop\n      pop\n      pop\n        /* \"contracts/FundMe.sol\":1239:1459  function getConversionRate(uint256 ethAmount) public view returns(uint256) {\r... */\n      swap2\n      swap1\n      pop\n      jump\t// out\n        /* \"contracts/FundMe.sol\":630:1231  function getPrice() public view returns(uint256){\r... */\n    tag_15:\n        /* \"contracts/FundMe.sol\":670:677  uint256 */\n      0x00\n        /* \"contracts/FundMe.sol\":984:1015  AggregatorV3Interface priceFeed */\n      dup1\n        /* \"contracts/FundMe.sol\":1040:1082  0xD4a33860578De61DBAbDc8BFdb98FD742fA7028e */\n      0xd4a33860578de61dbabdc8bfdb98fd742fa7028e\n        /* \"contracts/FundMe.sol\":984:1083  AggregatorV3Interface priceFeed = AggregatorV3Interface(0xD4a33860578De61DBAbDc8BFdb98FD742fA7028e) */\n      swap1\n      pop\n        /* \"contracts/FundMe.sol\":1096:1105  int price */\n      0x00\n        /* \"contracts/FundMe.sol\":1112:1121  priceFeed */\n      dup2\n        /* \"contracts/FundMe.sol\":1112:1137  priceFeed.latestRoundData */\n      0xffffffffffffffffffffffffffffffffffffffff\n      and\n      0xfeaf968c\n        /* \"contracts/FundMe.sol\":1112:1139  priceFeed.latestRoundData() */\n      mload(0x40)\n      dup2\n      0xffffffff\n      and\n      0xe0\n      shl\n      dup2\n      mstore\n      0x04\n      add\n      0xa0\n      mload(0x40)\n      dup1\n      dup4\n      sub\n      dup2\n      dup7\n      dup1\n      extcodesize\n      iszero\n      dup1\n      iszero\n      tag_30\n      jumpi\n      0x00\n      dup1\n      revert\n    tag_30:\n      pop\n      gas\n      staticcall\n      iszero\n      dup1\n      iszero\n      tag_32\n      jumpi\n      returndatasize\n      0x00\n      dup1\n      returndatacopy\n      revert(0x00, returndatasize)\n    tag_32:\n      pop\n      pop\n      pop\n      pop\n      mload(0x40)\n      returndatasize\n      not(0x1f)\n      0x1f\n      dup3\n      add\n      and\n      dup3\n      add\n      dup1\n      0x40\n      mstore\n      pop\n      dup2\n      add\n      swap1\n      tag_33\n      swap2\n      swap1\n      tag_34\n      jump\t// in\n    tag_33:\n        /* \"contracts/FundMe.sol\":1094:1139  (,int price,,,) = priceFeed.latestRoundData() */\n      pop\n      pop\n      pop\n      swap2\n      pop\n      pop\n        /* \"contracts/FundMe.sol\":1195:1199  1e10 */\n      0x02540be400\n        /* \"contracts/FundMe.sol\":1187:1192  price */\n      dup2\n        /* \"contracts/FundMe.sol\":1187:1199  price * 1e10 */\n      tag_35\n      swap2\n      swap1\n      tag_36\n      jump\t// in\n    tag_35:\n        /* \"contracts/FundMe.sol\":1172:1200  return uint256(price * 1e10) */\n      swap3\n      pop\n      pop\n      pop\n        /* \"contracts/FundMe.sol\":630:1231  function getPrice() public view returns(uint256){\r... */\n      swap1\n      jump\t// out\n        /* \"contracts/FundMe.sol\":287:579  function fund() public payable{\r... */\n    tag_18:\n        /* \"contracts/FundMe.sol\":463:469  minUSD */\n      sload(0x00)\n        /* \"contracts/FundMe.sol\":450:459  msg.value */\n      callvalue\n        /* \"contracts/FundMe.sol\":450:469  msg.value >= minUSD */\n      lt\n      iszero\n        /* \"contracts/FundMe.sol\":442:514  require(msg.value >= minUSD, \"The amount is less than 1ETH! Try Again.\") */\n      tag_38\n      jumpi\n      mload(0x40)\n      0x08c379a000000000000000000000000000000000000000000000000000000000\n      dup2\n      mstore\n      0x04\n      add\n      tag_39\n      swap1\n      tag_40\n      jump\t// in\n    tag_39:\n      mload(0x40)\n      dup1\n      swap2\n      sub\n      swap1\n      revert\n    tag_38:\n        /* \"contracts/FundMe.sol\":287:579  function fund() public payable{\r... */\n      jump\t// out\n        /* \"contracts/FundMe.sol\":247:278  uint256 public minUSD=50 * 1e18 */\n    tag_21:\n      sload(0x00)\n      dup2\n      jump\t// out\n        /* \"#utility.yul\":7:148   */\n    tag_42:\n        /* \"#utility.yul\":63:68   */\n      0x00\n        /* \"#utility.yul\":94:100   */\n      dup2\n        /* \"#utility.yul\":88:101   */\n      mload\n        /* \"#utility.yul\":79:101   */\n      swap1\n      pop\n        /* \"#utility.yul\":110:142   */\n      tag_44\n        /* \"#utility.yul\":136:141   */\n      dup2\n        /* \"#utility.yul\":110:142   */\n      tag_45\n      jump\t// in\n    tag_44:\n        /* \"#utility.yul\":7:148   */\n      swap3\n      swap2\n      pop\n      pop\n      jump\t// out\n        /* \"#utility.yul\":154:293   */\n    tag_46:\n        /* \"#utility.yul\":200:205   */\n      0x00\n        /* \"#utility.yul\":238:244   */\n      dup2\n        /* \"#utility.yul\":225:245   */\n      calldataload\n        /* \"#utility.yul\":216:245   */\n      swap1\n      pop\n        /* \"#utility.yul\":254:287   */\n      tag_48\n        /* \"#utility.yul\":281:286   */\n      dup2\n        /* \"#utility.yul\":254:287   */\n      tag_49\n      jump\t// in\n    tag_48:\n        /* \"#utility.yul\":154:293   */\n      swap3\n      swap2\n      pop\n      pop\n      jump\t// out\n        /* \"#utility.yul\":299:442   */\n    tag_50:\n        /* \"#utility.yul\":356:361   */\n      0x00\n        /* \"#utility.yul\":387:393   */\n      dup2\n        /* \"#utility.yul\":381:394   */\n      mload\n        /* \"#utility.yul\":372:394   */\n      swap1\n      pop\n        /* \"#utility.yul\":403:436   */\n      tag_52\n        /* \"#utility.yul\":430:435   */\n      dup2\n        /* \"#utility.yul\":403:436   */\n      tag_49\n      jump\t// in\n    tag_52:\n        /* \"#utility.yul\":299:442   */\n      swap3\n      swap2\n      pop\n      pop\n      jump\t// out\n        /* \"#utility.yul\":448:589   */\n    tag_53:\n        /* \"#utility.yul\":504:509   */\n      0x00\n        /* \"#utility.yul\":535:541   */\n      dup2\n        /* \"#utility.yul\":529:542   */\n      mload\n        /* \"#utility.yul\":520:542   */\n      swap1\n      pop\n        /* \"#utility.yul\":551:583   */\n      tag_55\n        /* \"#utility.yul\":577:582   */\n      dup2\n        /* \"#utility.yul\":551:583   */\n      tag_56\n      jump\t// in\n    tag_55:\n        /* \"#utility.yul\":448:589   */\n      swap3\n      swap2\n      pop\n      pop\n      jump\t// out\n        /* \"#utility.yul\":595:924   */\n    tag_9:\n        /* \"#utility.yul\":654:660   */\n      0x00\n        /* \"#utility.yul\":703:705   */\n      0x20\n        /* \"#utility.yul\":691:700   */\n      dup3\n        /* \"#utility.yul\":682:689   */\n      dup5\n        /* \"#utility.yul\":678:701   */\n      sub\n        /* \"#utility.yul\":674:706   */\n      slt\n        /* \"#utility.yul\":671:790   */\n      iszero\n      tag_58\n      jumpi\n        /* \"#utility.yul\":709:788   */\n      tag_59\n      tag_60\n      jump\t// in\n    tag_59:\n        /* \"#utility.yul\":671:790   */\n    tag_58:\n        /* \"#utility.yul\":829:830   */\n      0x00\n        /* \"#utility.yul\":854:907   */\n      tag_61\n        /* \"#utility.yul\":899:906   */\n      dup5\n        /* \"#utility.yul\":890:896   */\n      dup3\n        /* \"#utility.yul\":879:888   */\n      dup6\n        /* \"#utility.yul\":875:897   */\n      add\n        /* \"#utility.yul\":854:907   */\n      tag_46\n      jump\t// in\n    tag_61:\n        /* \"#utility.yul\":844:907   */\n      swap2\n      pop\n        /* \"#utility.yul\":800:917   */\n      pop\n        /* \"#utility.yul\":595:924   */\n      swap3\n      swap2\n      pop\n      pop\n      jump\t// out\n        /* \"#utility.yul\":930:1901   */\n    tag_34:\n        /* \"#utility.yul\":1033:1039   */\n      0x00\n        /* \"#utility.yul\":1041:1047   */\n      dup1\n        /* \"#utility.yul\":1049:1055   */\n      0x00\n        /* \"#utility.yul\":1057:1063   */\n      dup1\n        /* \"#utility.yul\":1065:1071   */\n      0x00\n        /* \"#utility.yul\":1114:1117   */\n      0xa0\n        /* \"#utility.yul\":1102:1111   */\n      dup7\n        /* \"#utility.yul\":1093:1100   */\n      dup9\n        /* \"#utility.yul\":1089:1112   */\n      sub\n        /* \"#utility.yul\":1085:1118   */\n      slt\n        /* \"#utility.yul\":1082:1202   */\n      iszero\n      tag_63\n      jumpi\n        /* \"#utility.yul\":1121:1200   */\n      tag_64\n      tag_60\n      jump\t// in\n    tag_64:\n        /* \"#utility.yul\":1082:1202   */\n    tag_63:\n        /* \"#utility.yul\":1241:1242   */\n      0x00\n        /* \"#utility.yul\":1266:1329   */\n      tag_65\n        /* \"#utility.yul\":1321:1328   */\n      dup9\n        /* \"#utility.yul\":1312:1318   */\n      dup3\n        /* \"#utility.yul\":1301:1310   */\n      dup10\n        /* \"#utility.yul\":1297:1319   */\n      add\n        /* \"#utility.yul\":1266:1329   */\n      tag_53\n      jump\t// in\n    tag_65:\n        /* \"#utility.yul\":1256:1329   */\n      swap6\n      pop\n        /* \"#utility.yul\":1212:1339   */\n      pop\n        /* \"#utility.yul\":1378:1380   */\n      0x20\n        /* \"#utility.yul\":1404:1467   */\n      tag_66\n        /* \"#utility.yul\":1459:1466   */\n      dup9\n        /* \"#utility.yul\":1450:1456   */\n      dup3\n        /* \"#utility.yul\":1439:1448   */\n      dup10\n        /* \"#utility.yul\":1435:1457   */\n      add\n        /* \"#utility.yul\":1404:1467   */\n      tag_42\n      jump\t// in\n    tag_66:\n        /* \"#utility.yul\":1394:1467   */\n      swap5\n      pop\n        /* \"#utility.yul\":1349:1477   */\n      pop\n        /* \"#utility.yul\":1516:1518   */\n      0x40\n        /* \"#utility.yul\":1542:1606   */\n      tag_67\n        /* \"#utility.yul\":1598:1605   */\n      dup9\n        /* \"#utility.yul\":1589:1595   */\n      dup3\n        /* \"#utility.yul\":1578:1587   */\n      dup10\n        /* \"#utility.yul\":1574:1596   */\n      add\n        /* \"#utility.yul\":1542:1606   */\n      tag_50\n      jump\t// in\n    tag_67:\n        /* \"#utility.yul\":1532:1606   */\n      swap4\n      pop\n        /* \"#utility.yul\":1487:1616   */\n      pop\n        /* \"#utility.yul\":1655:1657   */\n      0x60\n        /* \"#utility.yul\":1681:1745   */\n      tag_68\n        /* \"#utility.yul\":1737:1744   */\n      dup9\n        /* \"#utility.yul\":1728:1734   */\n      dup3\n        /* \"#utility.yul\":1717:1726   */\n      dup10\n        /* \"#utility.yul\":1713:1735   */\n      add\n        /* \"#utility.yul\":1681:1745   */\n      tag_50\n      jump\t// in\n    tag_68:\n        /* \"#utility.yul\":1671:1745   */\n      swap3\n      pop\n        /* \"#utility.yul\":1626:1755   */\n      pop\n        /* \"#utility.yul\":1794:1797   */\n      0x80\n        /* \"#utility.yul\":1821:1884   */\n      tag_69\n        /* \"#utility.yul\":1876:1883   */\n      dup9\n        /* \"#utility.yul\":1867:1873   */\n      dup3\n        /* \"#utility.yul\":1856:1865   */\n      dup10\n        /* \"#utility.yul\":1852:1874   */\n      add\n        /* \"#utility.yul\":1821:1884   */\n      tag_53\n      jump\t// in\n    tag_69:\n        /* \"#utility.yul\":1811:1884   */\n      swap2\n      pop\n        /* \"#utility.yul\":1765:1894   */\n      pop\n        /* \"#utility.yul\":930:1901   */\n      swap3\n      swap6\n      pop\n      swap3\n      swap6\n      swap1\n      swap4\n      pop\n      jump\t// out\n        /* \"#utility.yul\":1907:2273   */\n    tag_70:\n        /* \"#utility.yul\":2049:2052   */\n      0x00\n        /* \"#utility.yul\":2070:2137   */\n      tag_72\n        /* \"#utility.yul\":2134:2136   */\n      0x28\n        /* \"#utility.yul\":2129:2132   */\n      dup4\n        /* \"#utility.yul\":2070:2137   */\n      tag_73\n      jump\t// in\n    tag_72:\n        /* \"#utility.yul\":2063:2137   */\n      swap2\n      pop\n        /* \"#utility.yul\":2146:2239   */\n      tag_74\n        /* \"#utility.yul\":2235:2238   */\n      dup3\n        /* \"#utility.yul\":2146:2239   */\n      tag_75\n      jump\t// in\n    tag_74:\n        /* \"#utility.yul\":2264:2266   */\n      0x40\n        /* \"#utility.yul\":2259:2262   */\n      dup3\n        /* \"#utility.yul\":2255:2267   */\n      add\n        /* \"#utility.yul\":2248:2267   */\n      swap1\n      pop\n        /* \"#utility.yul\":1907:2273   */\n      swap2\n      swap1\n      pop\n      jump\t// out\n        /* \"#utility.yul\":2279:2397   */\n    tag_76:\n        /* \"#utility.yul\":2366:2390   */\n      tag_78\n        /* \"#utility.yul\":2384:2389   */\n      dup2\n        /* \"#utility.yul\":2366:2390   */\n      tag_79\n      jump\t// in\n    tag_78:\n        /* \"#utility.yul\":2361:2364   */\n      dup3\n        /* \"#utility.yul\":2354:2391   */\n      mstore\n        /* \"#utility.yul\":2279:2397   */\n      pop\n      pop\n      jump\t// out\n        /* \"#utility.yul\":2403:2822   */\n    tag_40:\n        /* \"#utility.yul\":2569:2573   */\n      0x00\n        /* \"#utility.yul\":2607:2609   */\n      0x20\n        /* \"#utility.yul\":2596:2605   */\n      dup3\n        /* \"#utility.yul\":2592:2610   */\n      add\n        /* \"#utility.yul\":2584:2610   */\n      swap1\n      pop\n        /* \"#utility.yul\":2656:2665   */\n      dup2\n        /* \"#utility.yul\":2650:2654   */\n      dup2\n        /* \"#utility.yul\":2646:2666   */\n      sub\n        /* \"#utility.yul\":2642:2643   */\n      0x00\n        /* \"#utility.yul\":2631:2640   */\n      dup4\n        /* \"#utility.yul\":2627:2644   */\n      add\n        /* \"#utility.yul\":2620:2667   */\n      mstore\n        /* \"#utility.yul\":2684:2815   */\n      tag_81\n        /* \"#utility.yul\":2810:2814   */\n      dup2\n        /* \"#utility.yul\":2684:2815   */\n      tag_70\n      jump\t// in\n    tag_81:\n        /* \"#utility.yul\":2676:2815   */\n      swap1\n      pop\n        /* \"#utility.yul\":2403:2822   */\n      swap2\n      swap1\n      pop\n      jump\t// out\n        /* \"#utility.yul\":2828:3050   */\n    tag_12:\n        /* \"#utility.yul\":2921:2925   */\n      0x00\n        /* \"#utility.yul\":2959:2961   */\n      0x20\n        /* \"#utility.yul\":2948:2957   */\n      dup3\n        /* \"#utility.yul\":2944:2962   */\n      add\n        /* \"#utility.yul\":2936:2962   */\n      swap1\n      pop\n        /* \"#utility.yul\":2972:3043   */\n      tag_83\n        /* \"#utility.yul\":3040:3041   */\n      0x00\n        /* \"#utility.yul\":3029:3038   */\n      dup4\n        /* \"#utility.yul\":3025:3042   */\n      add\n        /* \"#utility.yul\":3016:3022   */\n      dup5\n        /* \"#utility.yul\":2972:3043   */\n      tag_76\n      jump\t// in\n    tag_83:\n        /* \"#utility.yul\":2828:3050   */\n      swap3\n      swap2\n      pop\n      pop\n      jump\t// out\n        /* \"#utility.yul\":3137:3306   */\n    tag_73:\n        /* \"#utility.yul\":3221:3232   */\n      0x00\n        /* \"#utility.yul\":3255:3261   */\n      dup3\n        /* \"#utility.yul\":3250:3253   */\n      dup3\n        /* \"#utility.yul\":3243:3262   */\n      mstore\n        /* \"#utility.yul\":3295:3299   */\n      0x20\n        /* \"#utility.yul\":3290:3293   */\n      dup3\n        /* \"#utility.yul\":3286:3300   */\n      add\n        /* \"#utility.yul\":3271:3300   */\n      swap1\n      pop\n        /* \"#utility.yul\":3137:3306   */\n      swap3\n      swap2\n      pop\n      pop\n      jump\t// out\n        /* \"#utility.yul\":3312:3497   */\n    tag_28:\n        /* \"#utility.yul\":3352:3353   */\n      0x00\n        /* \"#utility.yul\":3369:3389   */\n      tag_88\n        /* \"#utility.yul\":3387:3388   */\n      dup3\n        /* \"#utility.yul\":3369:3389   */\n      tag_79\n      jump\t// in\n    tag_88:\n        /* \"#utility.yul\":3364:3389   */\n      swap2\n      pop\n        /* \"#utility.yul\":3403:3423   */\n      tag_89\n        /* \"#utility.yul\":3421:3422   */\n      dup4\n        /* \"#utility.yul\":3403:3423   */\n      tag_79\n      jump\t// in\n    tag_89:\n        /* \"#utility.yul\":3398:3423   */\n      swap3\n      pop\n        /* \"#utility.yul\":3442:3443   */\n      dup3\n        /* \"#utility.yul\":3432:3467   */\n      tag_90\n      jumpi\n        /* \"#utility.yul\":3447:3465   */\n      tag_91\n      tag_92\n      jump\t// in\n    tag_91:\n        /* \"#utility.yul\":3432:3467   */\n    tag_90:\n        /* \"#utility.yul\":3489:3490   */\n      dup3\n        /* \"#utility.yul\":3486:3487   */\n      dup3\n        /* \"#utility.yul\":3482:3491   */\n      div\n        /* \"#utility.yul\":3477:3491   */\n      swap1\n      pop\n        /* \"#utility.yul\":3312:3497   */\n      swap3\n      swap2\n      pop\n      pop\n      jump\t// out\n        /* \"#utility.yul\":3503:4494   */\n    tag_36:\n        /* \"#utility.yul\":3542:3549   */\n      0x00\n        /* \"#utility.yul\":3565:3584   */\n      tag_94\n        /* \"#utility.yul\":3582:3583   */\n      dup3\n        /* \"#utility.yul\":3565:3584   */\n      tag_95\n      jump\t// in\n    tag_94:\n        /* \"#utility.yul\":3560:3584   */\n      swap2\n      pop\n        /* \"#utility.yul\":3598:3617   */\n      tag_96\n        /* \"#utility.yul\":3615:3616   */\n      dup4\n        /* \"#utility.yul\":3598:3617   */\n      tag_95\n      jump\t// in\n    tag_96:\n        /* \"#utility.yul\":3593:3617   */\n      swap3\n      pop\n        /* \"#utility.yul\":3799:3800   */\n      dup3\n        /* \"#utility.yul\":3731:3797   */\n      0x7fffffffffffffffffffffffffffffffffffffffffffffffffffffffffffffff\n        /* \"#utility.yul\":3727:3801   */\n      div\n        /* \"#utility.yul\":3724:3725   */\n      dup3\n        /* \"#utility.yul\":3721:3802   */\n      gt\n        /* \"#utility.yul\":3716:3717   */\n      0x00\n        /* \"#utility.yul\":3713:3714   */\n      dup5\n        /* \"#utility.yul\":3709:3718   */\n      sgt\n        /* \"#utility.yul\":3705:3706   */\n      0x00\n        /* \"#utility.yul\":3702:3703   */\n      dup5\n        /* \"#utility.yul\":3698:3707   */\n      sgt\n        /* \"#utility.yul\":3694:3719   */\n      and\n        /* \"#utility.yul\":3690:3803   */\n      and\n        /* \"#utility.yul\":3687:3826   */\n      iszero\n      tag_97\n      jumpi\n        /* \"#utility.yul\":3806:3824   */\n      tag_98\n      tag_99\n      jump\t// in\n    tag_98:\n        /* \"#utility.yul\":3687:3826   */\n    tag_97:\n        /* \"#utility.yul\":4010:4011   */\n      dup2\n        /* \"#utility.yul\":3942:4008   */\n      0x8000000000000000000000000000000000000000000000000000000000000000\n        /* \"#utility.yul\":3937:4012   */\n      sdiv\n        /* \"#utility.yul\":3934:3935   */\n      dup4\n        /* \"#utility.yul\":3930:4013   */\n      slt\n        /* \"#utility.yul\":3925:3926   */\n      0x00\n        /* \"#utility.yul\":3922:3923   */\n      dup5\n        /* \"#utility.yul\":3918:3927   */\n      slt\n        /* \"#utility.yul\":3914:3915   */\n      0x00\n        /* \"#utility.yul\":3911:3912   */\n      dup5\n        /* \"#utility.yul\":3907:3916   */\n      sgt\n        /* \"#utility.yul\":3903:3928   */\n      and\n        /* \"#utility.yul\":3899:4014   */\n      and\n        /* \"#utility.yul\":3896:4037   */\n      iszero\n      tag_100\n      jumpi\n        /* \"#utility.yul\":4017:4035   */\n      tag_101\n      tag_99\n      jump\t// in\n    tag_101:\n        /* \"#utility.yul\":3896:4037   */\n    tag_100:\n        /* \"#utility.yul\":4221:4222   */\n      dup3\n        /* \"#utility.yul\":4153:4219   */\n      0x8000000000000000000000000000000000000000000000000000000000000000\n        /* \"#utility.yul\":4148:4223   */\n      sdiv\n        /* \"#utility.yul\":4145:4146   */\n      dup3\n        /* \"#utility.yul\":4141:4224   */\n      slt\n        /* \"#utility.yul\":4136:4137   */\n      0x00\n        /* \"#utility.yul\":4133:4134   */\n      dup5\n        /* \"#utility.yul\":4129:4138   */\n      sgt\n        /* \"#utility.yul\":4125:4126   */\n      0x00\n        /* \"#utility.yul\":4122:4123   */\n      dup5\n        /* \"#utility.yul\":4118:4127   */\n      slt\n        /* \"#utility.yul\":4114:4139   */\n      and\n        /* \"#utility.yul\":4110:4225   */\n      and\n        /* \"#utility.yul\":4107:4248   */\n      iszero\n      tag_102\n      jumpi\n        /* \"#utility.yul\":4228:4246   */\n      tag_103\n      tag_99\n      jump\t// in\n    tag_103:\n        /* \"#utility.yul\":4107:4248   */\n    tag_102:\n        /* \"#utility.yul\":4431:4432   */\n      dup3\n        /* \"#utility.yul\":4363:4429   */\n      0x7fffffffffffffffffffffffffffffffffffffffffffffffffffffffffffffff\n        /* \"#utility.yul\":4358:4433   */\n      sdiv\n        /* \"#utility.yul\":4355:4356   */\n      dup3\n        /* \"#utility.yul\":4351:4434   */\n      slt\n        /* \"#utility.yul\":4346:4347   */\n      0x00\n        /* \"#utility.yul\":4343:4344   */\n      dup5\n        /* \"#utility.yul\":4339:4348   */\n      slt\n        /* \"#utility.yul\":4335:4336   */\n      0x00\n        /* \"#utility.yul\":4332:4333   */\n      dup5\n        /* \"#utility.yul\":4328:4337   */\n      slt\n        /* \"#utility.yul\":4324:4349   */\n      and\n        /* \"#utility.yul\":4320:4435   */\n      and\n        /* \"#utility.yul\":4317:4458   */\n      iszero\n      tag_104\n      jumpi\n        /* \"#utility.yul\":4438:4456   */\n      tag_105\n      tag_99\n      jump\t// in\n    tag_105:\n        /* \"#utility.yul\":4317:4458   */\n    tag_104:\n        /* \"#utility.yul\":4486:4487   */\n      dup3\n        /* \"#utility.yul\":4483:4484   */\n      dup3\n        /* \"#utility.yul\":4479:4488   */\n      mul\n        /* \"#utility.yul\":4468:4488   */\n      swap1\n      pop\n        /* \"#utility.yul\":3503:4494   */\n      swap3\n      swap2\n      pop\n      pop\n      jump\t// out\n        /* \"#utility.yul\":4500:4848   */\n    tag_26:\n        /* \"#utility.yul\":4540:4547   */\n      0x00\n        /* \"#utility.yul\":4563:4583   */\n      tag_107\n        /* \"#utility.yul\":4581:4582   */\n      dup3\n        /* \"#utility.yul\":4563:4583   */\n      tag_79\n      jump\t// in\n    tag_107:\n        /* \"#utility.yul\":4558:4583   */\n      swap2\n      pop\n        /* \"#utility.yul\":4597:4617   */\n      tag_108\n        /* \"#utility.yul\":4615:4616   */\n      dup4\n        /* \"#utility.yul\":4597:4617   */\n      tag_79\n      jump\t// in\n    tag_108:\n        /* \"#utility.yul\":4592:4617   */\n      swap3\n      pop\n        /* \"#utility.yul\":4785:4786   */\n      dup2\n        /* \"#utility.yul\":4717:4783   */\n      0xffffffffffffffffffffffffffffffffffffffffffffffffffffffffffffffff\n        /* \"#utility.yul\":4713:4787   */\n      div\n        /* \"#utility.yul\":4710:4711   */\n      dup4\n        /* \"#utility.yul\":4707:4788   */\n      gt\n        /* \"#utility.yul\":4702:4703   */\n      dup3\n        /* \"#utility.yul\":4695:4704   */\n      iszero\n        /* \"#utility.yul\":4688:4705   */\n      iszero\n        /* \"#utility.yul\":4684:4789   */\n      and\n        /* \"#utility.yul\":4681:4812   */\n      iszero\n      tag_109\n      jumpi\n        /* \"#utility.yul\":4792:4810   */\n      tag_110\n      tag_99\n      jump\t// in\n    tag_110:\n        /* \"#utility.yul\":4681:4812   */\n    tag_109:\n        /* \"#utility.yul\":4840:4841   */\n      dup3\n        /* \"#utility.yul\":4837:4838   */\n      dup3\n        /* \"#utility.yul\":4833:4842   */\n      mul\n        /* \"#utility.yul\":4822:4842   */\n      swap1\n      pop\n        /* \"#utility.yul\":4500:4848   */\n      swap3\n      swap2\n      pop\n      pop\n      jump\t// out\n        /* \"#utility.yul\":4854:4930   */\n    tag_95:\n        /* \"#utility.yul\":4890:4897   */\n      0x00\n        /* \"#utility.yul\":4919:4924   */\n      dup2\n        /* \"#utility.yul\":4908:4924   */\n      swap1\n      pop\n        /* \"#utility.yul\":4854:4930   */\n      swap2\n      swap1\n      pop\n      jump\t// out\n        /* \"#utility.yul\":4936:5013   */\n    tag_79:\n        /* \"#utility.yul\":4973:4980   */\n      0x00\n        /* \"#utility.yul\":5002:5007   */\n      dup2\n        /* \"#utility.yul\":4991:5007   */\n      swap1\n      pop\n        /* \"#utility.yul\":4936:5013   */\n      swap2\n      swap1\n      pop\n      jump\t// out\n        /* \"#utility.yul\":5019:5124   */\n    tag_113:\n        /* \"#utility.yul\":5055:5062   */\n      0x00\n        /* \"#utility.yul\":5095:5117   */\n      0xffffffffffffffffffff\n        /* \"#utility.yul\":5088:5093   */\n      dup3\n        /* \"#utility.yul\":5084:5118   */\n      and\n        /* \"#utility.yul\":5073:5118   */\n      swap1\n      pop\n        /* \"#utility.yul\":5019:5124   */\n      swap2\n      swap1\n      pop\n      jump\t// out\n        /* \"#utility.yul\":5130:5310   */\n    tag_99:\n        /* \"#utility.yul\":5178:5255   */\n      0x4e487b7100000000000000000000000000000000000000000000000000000000\n        /* \"#utility.yul\":5175:5176   */\n      0x00\n        /* \"#utility.yul\":5168:5256   */\n      mstore\n        /* \"#utility.yul\":5275:5279   */\n      0x11\n        /* \"#utility.yul\":5272:5273   */\n      0x04\n        /* \"#utility.yul\":5265:5280   */\n      mstore\n        /* \"#utility.yul\":5299:5303   */\n      0x24\n        /* \"#utility.yul\":5296:5297   */\n      0x00\n        /* \"#utility.yul\":5289:5304   */\n      revert\n        /* \"#utility.yul\":5316:5496   */\n    tag_92:\n        /* \"#utility.yul\":5364:5441   */\n      0x4e487b7100000000000000000000000000000000000000000000000000000000\n        /* \"#utility.yul\":5361:5362   */\n      0x00\n        /* \"#utility.yul\":5354:5442   */\n      mstore\n        /* \"#utility.yul\":5461:5465   */\n      0x12\n        /* \"#utility.yul\":5458:5459   */\n      0x04\n        /* \"#utility.yul\":5451:5466   */\n      mstore\n        /* \"#utility.yul\":5485:5489   */\n      0x24\n        /* \"#utility.yul\":5482:5483   */\n      0x00\n        /* \"#utility.yul\":5475:5490   */\n      revert\n        /* \"#utility.yul\":5625:5742   */\n    tag_60:\n        /* \"#utility.yul\":5734:5735   */\n      0x00\n        /* \"#utility.yul\":5731:5732   */\n      dup1\n        /* \"#utility.yul\":5724:5736   */\n      revert\n        /* \"#utility.yul\":5748:5975   */\n    tag_75:\n        /* \"#utility.yul\":5888:5922   */\n      0x54686520616d6f756e74206973206c657373207468616e203145544821205472\n        /* \"#utility.yul\":5884:5885   */\n      0x00\n        /* \"#utility.yul\":5876:5882   */\n      dup3\n        /* \"#utility.yul\":5872:5886   */\n      add\n        /* \"#utility.yul\":5865:5923   */\n      mstore\n        /* \"#utility.yul\":5957:5967   */\n      0x7920416761696e2e000000000000000000000000000000000000000000000000\n        /* \"#utility.yul\":5952:5954   */\n      0x20\n        /* \"#utility.yul\":5944:5950   */\n      dup3\n        /* \"#utility.yul\":5940:5955   */\n      add\n        /* \"#utility.yul\":5933:5968   */\n      mstore\n        /* \"#utility.yul\":5748:5975   */\n      pop\n      jump\t// out\n        /* \"#utility.yul\":5981:6101   */\n    tag_45:\n        /* \"#utility.yul\":6053:6076   */\n      tag_122\n        /* \"#utility.yul\":6070:6075   */\n      dup2\n        /* \"#utility.yul\":6053:6076   */\n      tag_95\n      jump\t// in\n    tag_122:\n        /* \"#utility.yul\":6046:6051   */\n      dup2\n        /* \"#utility.yul\":6043:6077   */\n      eq\n        /* \"#utility.yul\":6033:6095   */\n      tag_123\n      jumpi\n        /* \"#utility.yul\":6091:6092   */\n      0x00\n        /* \"#utility.yul\":6088:6089   */\n      dup1\n        /* \"#utility.yul\":6081:6093   */\n      revert\n        /* \"#utility.yul\":6033:6095   */\n    tag_123:\n        /* \"#utility.yul\":5981:6101   */\n      pop\n      jump\t// out\n        /* \"#utility.yul\":6107:6229   */\n    tag_49:\n        /* \"#utility.yul\":6180:6204   */\n      tag_125\n        /* \"#utility.yul\":6198:6203   */\n      dup2\n        /* \"#utility.yul\":6180:6204   */\n      tag_79\n      jump\t// in\n    tag_125:\n        /* \"#utility.yul\":6173:6178   */\n      dup2\n        /* \"#utility.yul\":6170:6205   */\n      eq\n        /* \"#utility.yul\":6160:6223   */\n      tag_126\n      jumpi\n        /* \"#utility.yul\":6219:6220   */\n      0x00\n        /* \"#utility.yul\":6216:6217   */\n      dup1\n        /* \"#utility.yul\":6209:6221   */\n      revert\n        /* \"#utility.yul\":6160:6223   */\n    tag_126:\n        /* \"#utility.yul\":6107:6229   */\n      pop\n      jump\t// out\n        /* \"#utility.yul\":6235:6355   */\n    tag_56:\n        /* \"#utility.yul\":6307:6330   */\n      tag_128\n        /* \"#utility.yul\":6324:6329   */\n      dup2\n        /* \"#utility.yul\":6307:6330   */\n      tag_113\n      jump\t// in\n    tag_128:\n        /* \"#utility.yul\":6300:6305   */\n      dup2\n        /* \"#utility.yul\":6297:6331   */\n      eq\n        /* \"#utility.yul\":6287:6349   */\n      tag_129\n      jumpi\n        /* \"#utility.yul\":6345:6346   */\n      0x00\n        /* \"#utility.yul\":6342:6343   */\n      dup1\n        /* \"#utility.yul\":6335:6347   */\n      revert\n        /* \"#utility.yul\":6287:6349   */\n    tag_129:\n        /* \"#utility.yul\":6235:6355   */\n      pop\n      jump\t// out\n\n    auxdata: 0xa2646970667358221220ab7c7523079f11ee73360a6d074a176662eea108a277437286a0af34950acda864736f6c63430008070033\n}\n",
				"bytecode": {
					"linkReferences": {},
					"object": "60806040526802b5e3af16b188000060005534801561001d57600080fd5b506106938061002d6000396000f3fe60806040526004361061003f5760003560e01c80636e5b6b281461004457806398d5fdca14610081578063b60d4288146100ac578063dc992aa0146100b6575b600080fd5b34801561005057600080fd5b5061006b60048036038101906100669190610274565b6100e1565b604051610078919061036e565b60405180910390f35b34801561008d57600080fd5b5061009661011b565b6040516100a3919061036e565b60405180910390f35b6100b46101d3565b005b3480156100c257600080fd5b506100cb61021a565b6040516100d8919061036e565b60405180910390f35b6000806100ec61011b565b90506000670de0b6b3a7640000848361010591906104e2565b61010f919061039a565b90508092505050919050565b60008073d4a33860578de61dbabdc8bfdb98fd742fa7028e905060008173ffffffffffffffffffffffffffffffffffffffff1663feaf968c6040518163ffffffff1660e01b815260040160a06040518083038186803b15801561017d57600080fd5b505afa158015610191573d6000803e3d6000fd5b505050506040513d601f19601f820116820180604052508101906101b591906102a1565b5050509150506402540be400816101cc91906103cb565b9250505090565b600054341015610218576040517f08c379a000000000000000000000000000000000000000000000000000000000815260040161020f9061034e565b60405180910390fd5b565b60005481565b60008151905061022f81610618565b92915050565b6000813590506102448161062f565b92915050565b6000815190506102598161062f565b92915050565b60008151905061026e81610646565b92915050565b60006020828403121561028a576102896105c4565b5b600061029884828501610235565b91505092915050565b600080600080600060a086880312156102bd576102bc6105c4565b5b60006102cb8882890161025f565b95505060206102dc88828901610220565b94505060406102ed8882890161024a565b93505060606102fe8882890161024a565b925050608061030f8882890161025f565b9150509295509295909350565b6000610329602883610389565b9150610334826105c9565b604082019050919050565b61034881610546565b82525050565b600060208201905081810360008301526103678161031c565b9050919050565b6000602082019050610383600083018461033f565b92915050565b600082825260208201905092915050565b60006103a582610546565b91506103b083610546565b9250826103c0576103bf610595565b5b828204905092915050565b60006103d68261053c565b91506103e18361053c565b9250827f7fffffffffffffffffffffffffffffffffffffffffffffffffffffffffffffff04821160008413600084131616156104205761041f610566565b5b817f8000000000000000000000000000000000000000000000000000000000000000058312600084126000841316161561045d5761045c610566565b5b827f8000000000000000000000000000000000000000000000000000000000000000058212600084136000841216161561049a57610499610566565b5b827f7fffffffffffffffffffffffffffffffffffffffffffffffffffffffffffffff05821260008412600084121616156104d7576104d6610566565b5b828202905092915050565b60006104ed82610546565b91506104f883610546565b9250817fffffffffffffffffffffffffffffffffffffffffffffffffffffffffffffffff048311821515161561053157610530610566565b5b828202905092915050565b6000819050919050565b6000819050919050565b600069ffffffffffffffffffff82169050919050565b7f4e487b7100000000000000000000000000000000000000000000000000000000600052601160045260246000fd5b7f4e487b7100000000000000000000000000000000000000000000000000000000600052601260045260246000fd5b600080fd5b7f54686520616d6f756e74206973206c657373207468616e20314554482120547260008201527f7920416761696e2e000000000000000000000000000000000000000000000000602082015250565b6106218161053c565b811461062c57600080fd5b50565b61063881610546565b811461064357600080fd5b50565b61064f81610550565b811461065a57600080fd5b5056fea2646970667358221220ab7c7523079f11ee73360a6d074a176662eea108a277437286a0af34950acda864736f6c63430008070033",
					"opcodes": "PUSH1 0x80 PUSH1 0x40 MSTORE PUSH9 0x2B5E3AF16B1880000 PUSH1 0x0 SSTORE CALLVALUE DUP1 ISZERO PUSH2 0x1D JUMPI PUSH1 0x0 DUP1 REVERT JUMPDEST POP PUSH2 0x693 DUP1 PUSH2 0x2D PUSH1 0x0 CODECOPY PUSH1 0x0 RETURN INVALID PUSH1 0x80 PUSH1 0x40 MSTORE PUSH1 0x4 CALLDATASIZE LT PUSH2 0x3F JUMPI PUSH1 0x0 CALLDATALOAD PUSH1 0xE0 SHR DUP1 PUSH4 0x6E5B6B28 EQ PUSH2 0x44 JUMPI DUP1 PUSH4 0x98D5FDCA EQ PUSH2 0x81 JUMPI DUP1 PUSH4 0xB60D4288 EQ PUSH2 0xAC JUMPI DUP1 PUSH4 0xDC992AA0 EQ PUSH2 0xB6 JUMPI JUMPDEST PUSH1 0x0 DUP1 REVERT JUMPDEST CALLVALUE DUP1 ISZERO PUSH2 0x50 JUMPI PUSH1 0x0 DUP1 REVERT JUMPDEST POP PUSH2 0x6B PUSH1 0x4 DUP1 CALLDATASIZE SUB DUP2 ADD SWAP1 PUSH2 0x66 SWAP2 SWAP1 PUSH2 0x274 JUMP JUMPDEST PUSH2 0xE1 JUMP JUMPDEST PUSH1 0x40 MLOAD PUSH2 0x78 SWAP2 SWAP1 PUSH2 0x36E JUMP JUMPDEST PUSH1 0x40 MLOAD DUP1 SWAP2 SUB SWAP1 RETURN JUMPDEST CALLVALUE DUP1 ISZERO PUSH2 0x8D JUMPI PUSH1 0x0 DUP1 REVERT JUMPDEST POP PUSH2 0x96 PUSH2 0x11B JUMP JUMPDEST PUSH1 0x40 MLOAD PUSH2 0xA3 SWAP2 SWAP1 PUSH2 0x36E JUMP JUMPDEST PUSH1 0x40 MLOAD DUP1 SWAP2 SUB SWAP1 RETURN JUMPDEST PUSH2 0xB4 PUSH2 0x1D3 JUMP JUMPDEST STOP JUMPDEST CALLVALUE DUP1 ISZERO PUSH2 0xC2 JUMPI PUSH1 0x0 DUP1 REVERT JUMPDEST POP PUSH2 0xCB PUSH2 0x21A JUMP JUMPDEST PUSH1 0x40 MLOAD PUSH2 0xD8 SWAP2 SWAP1 PUSH2 0x36E JUMP JUMPDEST PUSH1 0x40 MLOAD DUP1 SWAP2 SUB SWAP1 RETURN JUMPDEST PUSH1 0x0 DUP1 PUSH2 0xEC PUSH2 0x11B JUMP JUMPDEST SWAP1 POP PUSH1 0x0 PUSH8 0xDE0B6B3A7640000 DUP5 DUP4 PUSH2 0x105 SWAP2 SWAP1 PUSH2 0x4E2 JUMP JUMPDEST PUSH2 0x10F SWAP2 SWAP1 PUSH2 0x39A JUMP JUMPDEST SWAP1 POP DUP1 SWAP3 POP POP POP SWAP2 SWAP1 POP JUMP JUMPDEST PUSH1 0x0 DUP1 PUSH20 0xD4A33860578DE61DBABDC8BFDB98FD742FA7028E SWAP1 POP PUSH1 0x0 DUP2 PUSH20 0xFFFFFFFFFFFFFFFFFFFFFFFFFFFFFFFFFFFFFFFF AND PUSH4 0xFEAF968C PUSH1 0x40 MLOAD DUP2 PUSH4 0xFFFFFFFF AND PUSH1 0xE0 SHL DUP2 MSTORE PUSH1 0x4 ADD PUSH1 0xA0 PUSH1 0x40 MLOAD DUP1 DUP4 SUB DUP2 DUP7 DUP1 EXTCODESIZE ISZERO DUP1 ISZERO PUSH2 0x17D JUMPI PUSH1 0x0 DUP1 REVERT JUMPDEST POP GAS STATICCALL ISZERO DUP1 ISZERO PUSH2 0x191 JUMPI RETURNDATASIZE PUSH1 0x0 DUP1 RETURNDATACOPY RETURNDATASIZE PUSH1 0x0 REVERT JUMPDEST POP POP POP POP PUSH1 0x40 MLOAD RETURNDATASIZE PUSH1 0x1F NOT PUSH1 0x1F DUP3 ADD AND DUP3 ADD DUP1 PUSH1 0x40 MSTORE POP DUP2 ADD SWAP1 PUSH2 0x1B5 SWAP2 SWAP1 PUSH2 0x2A1 JUMP JUMPDEST POP POP POP SWAP2 POP POP PUSH5 0x2540BE400 DUP2 PUSH2 0x1CC SWAP2 SWAP1 PUSH2 0x3CB JUMP JUMPDEST SWAP3 POP POP POP SWAP1 JUMP JUMPDEST PUSH1 0x0 SLOAD CALLVALUE LT ISZERO PUSH2 0x218 JUMPI PUSH1 0x40 MLOAD PUSH32 0x8C379A000000000000000000000000000000000000000000000000000000000 DUP2 MSTORE PUSH1 0x4 ADD PUSH2 0x20F SWAP1 PUSH2 0x34E JUMP JUMPDEST PUSH1 0x40 MLOAD DUP1 SWAP2 SUB SWAP1 REVERT JUMPDEST JUMP JUMPDEST PUSH1 0x0 SLOAD DUP2 JUMP JUMPDEST PUSH1 0x0 DUP2 MLOAD SWAP1 POP PUSH2 0x22F DUP2 PUSH2 0x618 JUMP JUMPDEST SWAP3 SWAP2 POP POP JUMP JUMPDEST PUSH1 0x0 DUP2 CALLDATALOAD SWAP1 POP PUSH2 0x244 DUP2 PUSH2 0x62F JUMP JUMPDEST SWAP3 SWAP2 POP POP JUMP JUMPDEST PUSH1 0x0 DUP2 MLOAD SWAP1 POP PUSH2 0x259 DUP2 PUSH2 0x62F JUMP JUMPDEST SWAP3 SWAP2 POP POP JUMP JUMPDEST PUSH1 0x0 DUP2 MLOAD SWAP1 POP PUSH2 0x26E DUP2 PUSH2 0x646 JUMP JUMPDEST SWAP3 SWAP2 POP POP JUMP JUMPDEST PUSH1 0x0 PUSH1 0x20 DUP3 DUP5 SUB SLT ISZERO PUSH2 0x28A JUMPI PUSH2 0x289 PUSH2 0x5C4 JUMP JUMPDEST JUMPDEST PUSH1 0x0 PUSH2 0x298 DUP5 DUP3 DUP6 ADD PUSH2 0x235 JUMP JUMPDEST SWAP2 POP POP SWAP3 SWAP2 POP POP JUMP JUMPDEST PUSH1 0x0 DUP1 PUSH1 0x0 DUP1 PUSH1 0x0 PUSH1 0xA0 DUP7 DUP9 SUB SLT ISZERO PUSH2 0x2BD JUMPI PUSH2 0x2BC PUSH2 0x5C4 JUMP JUMPDEST JUMPDEST PUSH1 0x0 PUSH2 0x2CB DUP9 DUP3 DUP10 ADD PUSH2 0x25F JUMP JUMPDEST SWAP6 POP POP PUSH1 0x20 PUSH2 0x2DC DUP9 DUP3 DUP10 ADD PUSH2 0x220 JUMP JUMPDEST SWAP5 POP POP PUSH1 0x40 PUSH2 0x2ED DUP9 DUP3 DUP10 ADD PUSH2 0x24A JUMP JUMPDEST SWAP4 POP POP PUSH1 0x60 PUSH2 0x2FE DUP9 DUP3 DUP10 ADD PUSH2 0x24A JUMP JUMPDEST SWAP3 POP POP PUSH1 0x80 PUSH2 0x30F DUP9 DUP3 DUP10 ADD PUSH2 0x25F JUMP JUMPDEST SWAP2 POP POP SWAP3 SWAP6 POP SWAP3 SWAP6 SWAP1 SWAP4 POP JUMP JUMPDEST PUSH1 0x0 PUSH2 0x329 PUSH1 0x28 DUP4 PUSH2 0x389 JUMP JUMPDEST SWAP2 POP PUSH2 0x334 DUP3 PUSH2 0x5C9 JUMP JUMPDEST PUSH1 0x40 DUP3 ADD SWAP1 POP SWAP2 SWAP1 POP JUMP JUMPDEST PUSH2 0x348 DUP2 PUSH2 0x546 JUMP JUMPDEST DUP3 MSTORE POP POP JUMP JUMPDEST PUSH1 0x0 PUSH1 0x20 DUP3 ADD SWAP1 POP DUP2 DUP2 SUB PUSH1 0x0 DUP4 ADD MSTORE PUSH2 0x367 DUP2 PUSH2 0x31C JUMP JUMPDEST SWAP1 POP SWAP2 SWAP1 POP JUMP JUMPDEST PUSH1 0x0 PUSH1 0x20 DUP3 ADD SWAP1 POP PUSH2 0x383 PUSH1 0x0 DUP4 ADD DUP5 PUSH2 0x33F JUMP JUMPDEST SWAP3 SWAP2 POP POP JUMP JUMPDEST PUSH1 0x0 DUP3 DUP3 MSTORE PUSH1 0x20 DUP3 ADD SWAP1 POP SWAP3 SWAP2 POP POP JUMP JUMPDEST PUSH1 0x0 PUSH2 0x3A5 DUP3 PUSH2 0x546 JUMP JUMPDEST SWAP2 POP PUSH2 0x3B0 DUP4 PUSH2 0x546 JUMP JUMPDEST SWAP3 POP DUP3 PUSH2 0x3C0 JUMPI PUSH2 0x3BF PUSH2 0x595 JUMP JUMPDEST JUMPDEST DUP3 DUP3 DIV SWAP1 POP SWAP3 SWAP2 POP POP JUMP JUMPDEST PUSH1 0x0 PUSH2 0x3D6 DUP3 PUSH2 0x53C JUMP JUMPDEST SWAP2 POP PUSH2 0x3E1 DUP4 PUSH2 0x53C JUMP JUMPDEST SWAP3 POP DUP3 PUSH32 0x7FFFFFFFFFFFFFFFFFFFFFFFFFFFFFFFFFFFFFFFFFFFFFFFFFFFFFFFFFFFFFFF DIV DUP3 GT PUSH1 0x0 DUP5 SGT PUSH1 0x0 DUP5 SGT AND AND ISZERO PUSH2 0x420 JUMPI PUSH2 0x41F PUSH2 0x566 JUMP JUMPDEST JUMPDEST DUP2 PUSH32 0x8000000000000000000000000000000000000000000000000000000000000000 SDIV DUP4 SLT PUSH1 0x0 DUP5 SLT PUSH1 0x0 DUP5 SGT AND AND ISZERO PUSH2 0x45D JUMPI PUSH2 0x45C PUSH2 0x566 JUMP JUMPDEST JUMPDEST DUP3 PUSH32 0x8000000000000000000000000000000000000000000000000000000000000000 SDIV DUP3 SLT PUSH1 0x0 DUP5 SGT PUSH1 0x0 DUP5 SLT AND AND ISZERO PUSH2 0x49A JUMPI PUSH2 0x499 PUSH2 0x566 JUMP JUMPDEST JUMPDEST DUP3 PUSH32 0x7FFFFFFFFFFFFFFFFFFFFFFFFFFFFFFFFFFFFFFFFFFFFFFFFFFFFFFFFFFFFFFF SDIV DUP3 SLT PUSH1 0x0 DUP5 SLT PUSH1 0x0 DUP5 SLT AND AND ISZERO PUSH2 0x4D7 JUMPI PUSH2 0x4D6 PUSH2 0x566 JUMP JUMPDEST JUMPDEST DUP3 DUP3 MUL SWAP1 POP SWAP3 SWAP2 POP POP JUMP JUMPDEST PUSH1 0x0 PUSH2 0x4ED DUP3 PUSH2 0x546 JUMP JUMPDEST SWAP2 POP PUSH2 0x4F8 DUP4 PUSH2 0x546 JUMP JUMPDEST SWAP3 POP DUP2 PUSH32 0xFFFFFFFFFFFFFFFFFFFFFFFFFFFFFFFFFFFFFFFFFFFFFFFFFFFFFFFFFFFFFFFF DIV DUP4 GT DUP3 ISZERO ISZERO AND ISZERO PUSH2 0x531 JUMPI PUSH2 0x530 PUSH2 0x566 JUMP JUMPDEST JUMPDEST DUP3 DUP3 MUL SWAP1 POP SWAP3 SWAP2 POP POP JUMP JUMPDEST PUSH1 0x0 DUP2 SWAP1 POP SWAP2 SWAP1 POP JUMP JUMPDEST PUSH1 0x0 DUP2 SWAP1 POP SWAP2 SWAP1 POP JUMP JUMPDEST PUSH1 0x0 PUSH10 0xFFFFFFFFFFFFFFFFFFFF DUP3 AND SWAP1 POP SWAP2 SWAP1 POP JUMP JUMPDEST PUSH32 0x4E487B7100000000000000000000000000000000000000000000000000000000 PUSH1 0x0 MSTORE PUSH1 0x11 PUSH1 0x4 MSTORE PUSH1 0x24 PUSH1 0x0 REVERT JUMPDEST PUSH32 0x4E487B7100000000000000000000000000000000000000000000000000000000 PUSH1 0x0 MSTORE PUSH1 0x12 PUSH1 0x4 MSTORE PUSH1 0x24 PUSH1 0x0 REVERT JUMPDEST PUSH1 0x0 DUP1 REVERT JUMPDEST PUSH32 0x54686520616D6F756E74206973206C657373207468616E203145544821205472 PUSH1 0x0 DUP3 ADD MSTORE PUSH32 0x7920416761696E2E000000000000000000000000000000000000000000000000 PUSH1 0x20 DUP3 ADD MSTORE POP JUMP JUMPDEST PUSH2 0x621 DUP2 PUSH2 0x53C JUMP JUMPDEST DUP2 EQ PUSH2 0x62C JUMPI PUSH1 0x0 DUP1 REVERT JUMPDEST POP JUMP JUMPDEST PUSH2 0x638 DUP2 PUSH2 0x546 JUMP JUMPDEST DUP2 EQ PUSH2 0x643 JUMPI PUSH1 0x0 DUP1 REVERT JUMPDEST POP JUMP JUMPDEST PUSH2 0x64F DUP2 PUSH2 0x550 JUMP JUMPDEST DUP2 EQ PUSH2 0x65A JUMPI PUSH1 0x0 DUP1 REVERT JUMPDEST POP JUMP INVALID LOG2 PUSH5 0x6970667358 0x22 SLT KECCAK256 0xAB PUSH29 0x7523079F11EE73360A6D074A176662EEA108A277437286A0AF34950ACD 0xA8 PUSH5 0x736F6C6343 STOP ADDMOD SMOD STOP CALLER "
				},
				"gasEstimates": {
					"creation": {
						"codeDepositCost": "336600",
						"executionCost": "22480",
						"totalCost": "359080"
					},
					"external": {
						"fund()": "2574",
						"getConversionRate(uint256)": "infinite",
						"getPrice()": "infinite",
						"minUSD()": "2473"
					}
				},
				"methodIdentifiers": {
					"fund()": "b60d4288",
					"getConversionRate(uint256)": "6e5b6b28",
					"getPrice()": "98d5fdca",
					"minUSD()": "dc992aa0"
				}
			},
			"storageLayout": {
				"storage": [
					{
						"astId": 53,
						"contract": "contracts/FundMe.sol:FundMe",
						"label": "minUSD",
						"offset": 0,
						"slot": "0",
						"type": "t_uint256"
					}
				],
				"types": {
					"t_uint256": {
						"encoding": "inplace",
						"label": "uint256",
						"numberOfBytes": "32"
					}
				}
			},
			"userdoc": {
				"kind": "user",
				"methods": {},
				"version": 1
			}
		}
	}
}