{
  "_format": "hh-sol-artifact-1",
  "contractName": "Raffle",
  "sourceName": "contracts/Raffle.sol",
  "abi": [
    {
      "inputs": [
        {
          "internalType": "address",
          "name": "vrfCoordinatorV2",
          "type": "address"
        },
        {
          "internalType": "uint64",
          "name": "subscriptionId",
          "type": "uint64"
        },
        {
          "internalType": "bytes32",
          "name": "gasLane",
          "type": "bytes32"
        },
        {
          "internalType": "uint256",
          "name": "entranceFee",
          "type": "uint256"
        },
        {
          "internalType": "uint32",
          "name": "callbackGasLimit",
          "type": "uint32"
        },
        {
          "internalType": "uint256",
          "name": "interval",
          "type": "uint256"
        }
      ],
      "stateMutability": "nonpayable",
      "type": "constructor"
    },
    {
      "inputs": [
        {
          "internalType": "address",
          "name": "have",
          "type": "address"
        },
        {
          "internalType": "address",
          "name": "want",
          "type": "address"
        }
      ],
      "name": "OnlyCoordinatorCanFulfill",
      "type": "error"
    },
    {
      "inputs": [],
      "name": "Raffle__NotEnoughETHEntered",
      "type": "error"
    },
    {
      "inputs": [],
      "name": "Raffle__NotOpen",
      "type": "error"
    },
    {
      "inputs": [],
      "name": "Raffle__TransferFailed",
      "type": "error"
    },
    {
      "inputs": [
        {
          "internalType": "uint256",
          "name": "currentBalance",
          "type": "uint256"
        },
        {
          "internalType": "uint256",
          "name": "numPlayers",
          "type": "uint256"
        },
        {
          "internalType": "uint256",
          "name": "raffleState",
          "type": "uint256"
        }
      ],
      "name": "Raffle__UpkeepNotNeeded",
      "type": "error"
    },
    {
      "anonymous": false,
      "inputs": [
        {
          "indexed": true,
          "internalType": "address",
          "name": "player",
          "type": "address"
        }
      ],
      "name": "RaffleEnter",
      "type": "event"
    },
    {
      "anonymous": false,
      "inputs": [
        {
          "indexed": true,
          "internalType": "uint256",
          "name": "requestId",
          "type": "uint256"
        }
      ],
      "name": "RequestedRaffleWinner",
      "type": "event"
    },
    {
      "anonymous": false,
      "inputs": [
        {
          "indexed": true,
          "internalType": "address",
          "name": "winner",
          "type": "address"
        }
      ],
      "name": "WinnerPicked",
      "type": "event"
    },
    {
      "inputs": [
        {
          "internalType": "bytes",
          "name": "",
          "type": "bytes"
        }
      ],
      "name": "checkUpkeep",
      "outputs": [
        {
          "internalType": "bool",
          "name": "upkeepNeeded",
          "type": "bool"
        },
        {
          "internalType": "bytes",
          "name": "",
          "type": "bytes"
        }
      ],
      "stateMutability": "nonpayable",
      "type": "function"
    },
    {
      "inputs": [],
      "name": "enterRaffle",
      "outputs": [],
      "stateMutability": "payable",
      "type": "function"
    },
    {
      "inputs": [],
      "name": "getEntranceFee",
      "outputs": [
        {
          "internalType": "uint256",
          "name": "",
          "type": "uint256"
        }
      ],
      "stateMutability": "view",
      "type": "function"
    },
    {
      "inputs": [],
      "name": "getInterval",
      "outputs": [
        {
          "internalType": "uint256",
          "name": "",
          "type": "uint256"
        }
      ],
      "stateMutability": "view",
      "type": "function"
    },
    {
      "inputs": [],
      "name": "getLastTimeStamp",
      "outputs": [
        {
          "internalType": "uint256",
          "name": "",
          "type": "uint256"
        }
      ],
      "stateMutability": "view",
      "type": "function"
    },
    {
      "inputs": [],
      "name": "getNumWords",
      "outputs": [
        {
          "internalType": "uint256",
          "name": "",
          "type": "uint256"
        }
      ],
      "stateMutability": "pure",
      "type": "function"
    },
    {
      "inputs": [],
      "name": "getNumberOfPlayers",
      "outputs": [
        {
          "internalType": "uint256",
          "name": "",
          "type": "uint256"
        }
      ],
      "stateMutability": "view",
      "type": "function"
    },
    {
      "inputs": [
        {
          "internalType": "uint256",
          "name": "index",
          "type": "uint256"
        }
      ],
      "name": "getPlayer",
      "outputs": [
        {
          "internalType": "address",
          "name": "",
          "type": "address"
        }
      ],
      "stateMutability": "view",
      "type": "function"
    },
    {
      "inputs": [],
      "name": "getRaffleState",
      "outputs": [
        {
          "internalType": "enum Raffle.RaffleState",
          "name": "",
          "type": "uint8"
        }
      ],
      "stateMutability": "view",
      "type": "function"
    },
    {
      "inputs": [],
      "name": "getRecentWinner",
      "outputs": [
        {
          "internalType": "address",
          "name": "",
          "type": "address"
        }
      ],
      "stateMutability": "view",
      "type": "function"
    },
    {
      "inputs": [],
      "name": "getRequestConfirmations",
      "outputs": [
        {
          "internalType": "uint256",
          "name": "",
          "type": "uint256"
        }
      ],
      "stateMutability": "pure",
      "type": "function"
    },
    {
      "inputs": [
        {
          "internalType": "bytes",
          "name": "",
          "type": "bytes"
        }
      ],
      "name": "performUpkeep",
      "outputs": [],
      "stateMutability": "nonpayable",
      "type": "function"
    },
    {
      "inputs": [
        {
          "internalType": "uint256",
          "name": "requestId",
          "type": "uint256"
        },
        {
          "internalType": "uint256[]",
          "name": "randomWords",
          "type": "uint256[]"
        }
      ],
      "name": "rawFulfillRandomWords",
      "outputs": [],
      "stateMutability": "nonpayable",
      "type": "function"
    }
  ],
  "bytecode": "0x6101606040523480156200001257600080fd5b506040516200183d3803806200183d833981810160405281019062000038919062000294565b858073ffffffffffffffffffffffffffffffffffffffff1660808173ffffffffffffffffffffffffffffffffffffffff1681525050508261012081815250508573ffffffffffffffffffffffffffffffffffffffff166101008173ffffffffffffffffffffffffffffffffffffffff16815250508360c081815250508061014081815250508467ffffffffffffffff1660a08167ffffffffffffffff16815250508163ffffffff1660e08163ffffffff16815250506000600160146101000a81548160ff0219169083600181111562000116576200011562000330565b5b0217905550426002819055505050505050506200035f565b600080fd5b600073ffffffffffffffffffffffffffffffffffffffff82169050919050565b6000620001608262000133565b9050919050565b620001728162000153565b81146200017e57600080fd5b50565b600081519050620001928162000167565b92915050565b600067ffffffffffffffff82169050919050565b620001b78162000198565b8114620001c357600080fd5b50565b600081519050620001d781620001ac565b92915050565b6000819050919050565b620001f281620001dd565b8114620001fe57600080fd5b50565b6000815190506200021281620001e7565b92915050565b6000819050919050565b6200022d8162000218565b81146200023957600080fd5b50565b6000815190506200024d8162000222565b92915050565b600063ffffffff82169050919050565b6200026e8162000253565b81146200027a57600080fd5b50565b6000815190506200028e8162000263565b92915050565b60008060008060008060c08789031215620002b457620002b36200012e565b5b6000620002c489828a0162000181565b9650506020620002d789828a01620001c6565b9550506040620002ea89828a0162000201565b9450506060620002fd89828a016200023c565b93505060806200031089828a016200027d565b92505060a06200032389828a016200023c565b9150509295509295509295565b7f4e487b7100000000000000000000000000000000000000000000000000000000600052602160045260246000fd5b60805160a05160c05160e05161010051610120516101405161146e620003cf600039600081816107dd01526108860152600081816102fa01526103f70152600061061b0152600061069b0152600061065701526000610678015260008181610337015261038b015261146e6000f3fe6080604052600436106100c25760003560e01c806353a2c19a1161007f57806391ad27b41161005957806391ad27b414610238578063c1c244e814610263578063e55ae4e81461028e578063fd6673f5146102cb576100c2565b806353a2c19a146101a45780635f1b0fd8146101cf5780636e04ff0d146101fa576100c2565b806309bc33a7146100c7578063115cbaf5146100f25780631fe543e31461011d5780632cfcc539146101465780634585e33b14610150578063473f1ddc14610179575b600080fd5b3480156100d357600080fd5b506100dc6102f6565b6040516100e99190610bf8565b60405180910390f35b3480156100fe57600080fd5b5061010761031e565b6040516101149190610c8a565b60405180910390f35b34801561012957600080fd5b50610144600480360381019061013f9190610e3e565b610335565b005b61014e6103f5565b005b34801561015c57600080fd5b5061017760048036038101906101729190610ef5565b610564565b005b34801561018557600080fd5b5061018e610754565b60405161019b9190610f83565b60405180910390f35b3480156101b057600080fd5b506101b961077e565b6040516101c69190610bf8565b60405180910390f35b3480156101db57600080fd5b506101e461078d565b6040516101f19190610bf8565b60405180910390f35b34801561020657600080fd5b50610221600480360381019061021c9190611053565b61079a565b60405161022f929190611136565b60405180910390f35b34801561024457600080fd5b5061024d610882565b60405161025a9190610bf8565b60405180910390f35b34801561026f57600080fd5b506102786108aa565b6040516102859190610bf8565b60405180910390f35b34801561029a57600080fd5b506102b560048036038101906102b09190611166565b6108b4565b6040516102c29190610f83565b60405180910390f35b3480156102d757600080fd5b506102e06108fb565b6040516102ed9190610bf8565b60405180910390f35b60007f0000000000000000000000000000000000000000000000000000000000000000905090565b6000600160149054906101000a900460ff16905090565b7f000000000000000000000000000000000000000000000000000000000000000073ffffffffffffffffffffffffffffffffffffffff163373ffffffffffffffffffffffffffffffffffffffff16146103e757337f00000000000000000000000000000000000000000000000000000000000000006040517f1cf993f40000000000000000000000000000000000000000000000000000000081526004016103de929190611193565b60405180910390fd5b6103f18282610907565b5050565b7f000000000000000000000000000000000000000000000000000000000000000034101561044f576040517fbd4e069500000000000000000000000000000000000000000000000000000000815260040160405180910390fd5b6000600181111561046357610462610c13565b5b600160149054906101000a900460ff16600181111561048557610484610c13565b5b146104bc576040517f1425571c00000000000000000000000000000000000000000000000000000000815260040160405180910390fd5b6000339080600181540180825580915050600190039060005260206000200160009091909190916101000a81548173ffffffffffffffffffffffffffffffffffffffff021916908373ffffffffffffffffffffffffffffffffffffffff1602179055503373ffffffffffffffffffffffffffffffffffffffff167f0805e1d667bddb8a95f0f09880cf94f403fb596ce79928d9f29b74203ba284d460405160405180910390a2565b600061057e6040518060200160405280600081525061079a565b509050806105ed5747600080549050600160149054906101000a900460ff1660018111156105af576105ae610c13565b5b6040517f584327aa0000000000000000000000000000000000000000000000000000000081526004016105e4939291906111bc565b60405180910390fd5b60018060146101000a81548160ff0219169083600181111561061257610611610c13565b5b021790555060007f000000000000000000000000000000000000000000000000000000000000000073ffffffffffffffffffffffffffffffffffffffff16635d3b1d307f00000000000000000000000000000000000000000000000000000000000000007f000000000000000000000000000000000000000000000000000000000000000060037f000000000000000000000000000000000000000000000000000000000000000060016040518663ffffffff1660e01b81526004016106dc95949392919061126b565b6020604051808303816000875af11580156106fb573d6000803e3d6000fd5b505050506040513d601f19601f8201168201806040525081019061071f91906112d3565b9050807fcd6e45c8998311cab7e9d4385596cac867e20a0587194b954fa3a731c93ce78b60405160405180910390a250505050565b6000600160009054906101000a900473ffffffffffffffffffffffffffffffffffffffff16905090565b6000600163ffffffff16905090565b6000600361ffff16905090565b600060606000600160149054906101000a900460ff1660018111156107c2576107c1610c13565b5b600060018111156107d6576107d5610c13565b5b14905060007f00000000000000000000000000000000000000000000000000000000000000006002544261080a919061132f565b1190506000806000805490501190506000804711905083801561082a5750825b80156108335750815b801561083c5750805b9550856040518060400160405280600381526020017f30783000000000000000000000000000000000000000000000000000000000008152509550955050505050915091565b60007f0000000000000000000000000000000000000000000000000000000000000000905090565b6000600254905090565b60008082815481106108c9576108c8611363565b5b9060005260206000200160009054906101000a900473ffffffffffffffffffffffffffffffffffffffff169050919050565b60008080549050905090565b600080805490508260008151811061092257610921611363565b5b602002602001015161093491906113c1565b9050600080828154811061094b5761094a611363565b5b9060005260206000200160009054906101000a900473ffffffffffffffffffffffffffffffffffffffff16905080600160006101000a81548173ffffffffffffffffffffffffffffffffffffffff021916908373ffffffffffffffffffffffffffffffffffffffff1602179055506000600160146101000a81548160ff021916908360018111156109df576109de610c13565b5b0217905550600067ffffffffffffffff8111156109ff576109fe610cfb565b5b604051908082528060200260200182016040528015610a2d5781602001602082028036833780820191505090505b5060009080519060200190610a43929190610b38565b504260028190555060008173ffffffffffffffffffffffffffffffffffffffff1647604051610a7190611423565b60006040518083038185875af1925050503d8060008114610aae576040519150601f19603f3d011682016040523d82523d6000602084013e610ab3565b606091505b5050905080610aee576040517fa1d04b3900000000000000000000000000000000000000000000000000000000815260040160405180910390fd5b8173ffffffffffffffffffffffffffffffffffffffff167f5b690ec4a06fe979403046eaeea5b3ce38524683c3001f662c8b5a829632f7df60405160405180910390a25050505050565b828054828255906000526020600020908101928215610bb1579160200282015b82811115610bb05782518260006101000a81548173ffffffffffffffffffffffffffffffffffffffff021916908373ffffffffffffffffffffffffffffffffffffffff16021790555091602001919060010190610b58565b5b509050610bbe9190610bc2565b5090565b5b80821115610bdb576000816000905550600101610bc3565b5090565b6000819050919050565b610bf281610bdf565b82525050565b6000602082019050610c0d6000830184610be9565b92915050565b7f4e487b7100000000000000000000000000000000000000000000000000000000600052602160045260246000fd5b60028110610c5357610c52610c13565b5b50565b6000819050610c6482610c42565b919050565b6000610c7482610c56565b9050919050565b610c8481610c69565b82525050565b6000602082019050610c9f6000830184610c7b565b92915050565b6000604051905090565b600080fd5b600080fd5b610cc281610bdf565b8114610ccd57600080fd5b50565b600081359050610cdf81610cb9565b92915050565b600080fd5b6000601f19601f8301169050919050565b7f4e487b7100000000000000000000000000000000000000000000000000000000600052604160045260246000fd5b610d3382610cea565b810181811067ffffffffffffffff82111715610d5257610d51610cfb565b5b80604052505050565b6000610d65610ca5565b9050610d718282610d2a565b919050565b600067ffffffffffffffff821115610d9157610d90610cfb565b5b602082029050602081019050919050565b600080fd5b6000610dba610db584610d76565b610d5b565b90508083825260208201905060208402830185811115610ddd57610ddc610da2565b5b835b81811015610e065780610df28882610cd0565b845260208401935050602081019050610ddf565b5050509392505050565b600082601f830112610e2557610e24610ce5565b5b8135610e35848260208601610da7565b91505092915050565b60008060408385031215610e5557610e54610caf565b5b6000610e6385828601610cd0565b925050602083013567ffffffffffffffff811115610e8457610e83610cb4565b5b610e9085828601610e10565b9150509250929050565b600080fd5b60008083601f840112610eb557610eb4610ce5565b5b8235905067ffffffffffffffff811115610ed257610ed1610e9a565b5b602083019150836001820283011115610eee57610eed610da2565b5b9250929050565b60008060208385031215610f0c57610f0b610caf565b5b600083013567ffffffffffffffff811115610f2a57610f29610cb4565b5b610f3685828601610e9f565b92509250509250929050565b600073ffffffffffffffffffffffffffffffffffffffff82169050919050565b6000610f6d82610f42565b9050919050565b610f7d81610f62565b82525050565b6000602082019050610f986000830184610f74565b92915050565b600080fd5b600067ffffffffffffffff821115610fbe57610fbd610cfb565b5b610fc782610cea565b9050602081019050919050565b82818337600083830152505050565b6000610ff6610ff184610fa3565b610d5b565b90508281526020810184848401111561101257611011610f9e565b5b61101d848285610fd4565b509392505050565b600082601f83011261103a57611039610ce5565b5b813561104a848260208601610fe3565b91505092915050565b60006020828403121561106957611068610caf565b5b600082013567ffffffffffffffff81111561108757611086610cb4565b5b61109384828501611025565b91505092915050565b60008115159050919050565b6110b18161109c565b82525050565b600081519050919050565b600082825260208201905092915050565b60005b838110156110f15780820151818401526020810190506110d6565b60008484015250505050565b6000611108826110b7565b61111281856110c2565b93506111228185602086016110d3565b61112b81610cea565b840191505092915050565b600060408201905061114b60008301856110a8565b818103602083015261115d81846110fd565b90509392505050565b60006020828403121561117c5761117b610caf565b5b600061118a84828501610cd0565b91505092915050565b60006040820190506111a86000830185610f74565b6111b56020830184610f74565b9392505050565b60006060820190506111d16000830186610be9565b6111de6020830185610be9565b6111eb6040830184610be9565b949350505050565b6000819050919050565b611206816111f3565b82525050565b600067ffffffffffffffff82169050919050565b6112298161120c565b82525050565b600061ffff82169050919050565b6112468161122f565b82525050565b600063ffffffff82169050919050565b6112658161124c565b82525050565b600060a08201905061128060008301886111fd565b61128d6020830187611220565b61129a604083018661123d565b6112a7606083018561125c565b6112b4608083018461125c565b9695505050505050565b6000815190506112cd81610cb9565b92915050565b6000602082840312156112e9576112e8610caf565b5b60006112f7848285016112be565b91505092915050565b7f4e487b7100000000000000000000000000000000000000000000000000000000600052601160045260246000fd5b600061133a82610bdf565b915061134583610bdf565b925082820390508181111561135d5761135c611300565b5b92915050565b7f4e487b7100000000000000000000000000000000000000000000000000000000600052603260045260246000fd5b7f4e487b7100000000000000000000000000000000000000000000000000000000600052601260045260246000fd5b60006113cc82610bdf565b91506113d783610bdf565b9250826113e7576113e6611392565b5b828206905092915050565b600081905092915050565b50565b600061140d6000836113f2565b9150611418826113fd565b600082019050919050565b600061142e82611400565b915081905091905056fea2646970667358221220c3cbe1335cf9405e5bca1822655b7707e403b61558ba46b69b844be119aa802764736f6c63430008110033",
  "linkReferences": {},
  "deployedLinkReferences": {}
}